:020000040800F2
:1000000048070020290200085D08000815080008BC
:1000100059080008710300088B0E0008000000005A
:10002000000000000000000000000000250A000899
:100030003907000800000000D90800083D0B00083F
:10004000430200084302000843020008430200087C
:10005000430200084302000843020008430200086C
:10006000430200084302000843020008430200085C
:10007000430200084302000843020008430200084C
:10008000430200084302000843020008430200083C
:10009000430200084302000843020008430200082C
:1000A000430200084302000843020008430200081C
:1000B000430200084302000843020008430200080C
:1000C00043020008430200084302000843020008FC
:1000D000430200086D0C00084302000843020008B8
:1000E00043020008430200084302000843020008DC
:1000F00043020008430200084302000843020008CC
:1001000043020008430200084302000843020008BB
:1001100043020008430200084302000843020008AB
:10012000430200084302000843020008430200089B
:10013000430200084302000843020008430200088B
:10014000430200084302000843020008430200087B
:10015000430200084302000843020008430200086B
:10016000430200084302000843020008430200085B
:10017000430200084302000843020008430200084B
:10018000430200084302000800F002F800F03CF8C7
:100190000AA090E8000C82448344AAF10107DA45E2
:1001A00001D100F031F8AFF2090EBAE80F0013F0F8
:1001B000010F18BFFB1A43F0010318476C0F000032
:1001C0008C0F0000103A24BF78C878C1FAD85207C3
:1001D00024BF30C830C144BF04680C6070470000C1
:1001E0000023002400250026103A28BF78C1FBD840
:1001F000520728BF30C148BF0B6070471FB500F0E1
:1002000029FF1FBD10B510BD00F06EF81146FFF7B5
:10021000F5FF00F0ADFE00F0A0F803B4FFF7F2FF29
:1002200003BC00F034FE000009488047094800473D
:10023000FEE7FEE7FEE7FEE7FEE7FEE7FEE7FEE796
:10024000FEE7FEE704480549054A064B70470000F3
:10025000410B0008890100084801002048070020E0
:100260004803002048030020704700000FB40449F1
:1002700010B503AA029800F009F810BC5DF814FB51
:10028000040000207047704770477047074B70B5F7
:100290000D467B4400F011F80446284600F020F893
:1002A00010B14FF0FF3070BD204670BDBF0C000094
:1002B00001694A1C02610878704700B58FB0CDE92A
:1002C00001310021059105497944CDE9031011461A
:1002D000684600F02EF80FB000BD0000E5FFFFFFFC
:1002E000007B00F080007047754600F03DF8AE4698
:1002F00005006946534620F00700854618B020B532
:10030000FFF7A0FFBDE820404FF000064FF00007C8
:100310004FF000084FF0000B21F00701AC46ACE8AD
:10032000C009ACE8C009ACE8C009ACE8C0098D461A
:1003300070472DE9F04106460024D6E90170F568C2
:100340008046304603E04146B847641C3046A84723
:100350000028F8D12046BDE8F0810446AFF30080C4
:100360002046FFF75AFF000000487047E4000020D5
:1003700000BFFEE739B1084A1268012383401A43DF
:10038000054B1A6006E0044A1268012383409A4331
:10039000014B1A60704700000074004041B1094AE7
:1003A00012684FF4805383401A43064B1A6007E0EB
:1003B000044A12684FF4805383409A43014B1A60F9
:1003C000704700000074004030B5002200230A4C42
:1003D000226840F6FE748440A243D1E900452C43D4
:1003E0008D682C43CD6844EA050303FA00F42243E8
:1003F000014C226030BD00000074004008B50022AE
:100400000092054A009200F10802009B1A440092F3
:10041000009A116008BD00000074004000210160D6
:1004200041608160C160704721B1026842F0010201
:10043000026003E0026822F00102026070470000DF
:10044000016821F0010101600021016041608160CB
:10045000C1600161212141614A49884204D13D21A5
:10046000484A103A91608CE046491831884205D1DB
:100470004FF47461434A103A916082E0414930314F
:10048000884205D14FF474113E4A103A916078E0E9
:100490003C494831884205D14FF07461394A103ADD
:1004A00091606EE037496031884204D13649354A5F
:1004B000103AD16065E033497831884204D133493C
:1004C000304A103AD1605CE02E499031884204D124
:1004D0002F492C4A103AD16053E02A49A83188426A
:1004E00005D14FF03D51274A103AD16049E02949E2
:1004F000884204D13D21274A083A116041E025494C
:100500001831884205D14FF47461224A083A1160CB
:1005100037E020493031884205D14FF474111D4A2B
:10052000083A11602DE01B494831884205D14FF04F
:100530007461184A083A116023E016496031884214
:1005400004D11149134A121F11601AE01149783180
:10055000884204D10D490F4A121F116011E00D4964
:100560009031884204D10A490A4A121F116008E0FA
:100570000849A831884204D14FF03D51054A121F65
:1005800011607047106002403D000020400F0020C5
:1005900000003D201064024010B500220268134B99
:1005A0001A40CC680B6823434C6923438C6923436E
:1005B000CC6923430C6A23434C6A23438C6A23434C
:1005C0004C6B23438C6B23431A430260426922F035
:1005D0000702D1E90B3423431A4342610B6943609C
:1005E0004B6883608B68C36010BD00003F801CF0C7
:1005F0000021016041608160C160016141618161F0
:10060000C161016241628162C162016341638163D0
:100610007047000000B599B00121084600F05EF96E
:100620000121480700F06AF90121480500F056F958
:100630000121084600F062F91020179003208DF880
:10064000600002208DF8630017A9374800F075F8A4
:1006500013A8FFF7E3FE242013900020149002203B
:10066000169013A90020FFF7AFFE00210846FFF700
:10067000C5FE01210020FFF77DFE01210020FFF7CC
:100680008DFE01A800F0E8FA642002900020ADF889
:100690000400ADF80C00ADF8060001A94FF0804051
:1006A00000F098FA2021480600F08AFA04A8FFF723
:1006B0009FFF1E48FFF7C4FE4FF0606004901C4887
:1006C00005901C4806904020079064200890002068
:1006D00009904FF480600A9040000B9080000C90CD
:1006E0004FF440300E9000200F9001201090002019
:1006F000119012904FF480700D9004A90B48FFF7F1
:100700004BFF01210948FFF78FFE01210020FFF771
:1007100031FE01210020FFF741FE0121880700F092
:1007200043FA19B000BD000000000240886002409A
:10073000087400405E1000087047F0B50A460021BA
:100740000023002400BF3DE0012505FA01F31568F0
:1007500005EA03049C4234D105684F000326BE40DD
:10076000B543056015794E00B54006683543056010
:100770001579012D02D01579022D16D185684F000B
:100780000326BE40B543856055794E00B540866866
:1007900035438560456801268E40B5434560456810
:1007A00096798E40B6B235434560C5684F00032642
:1007B000BE40B543C560D5794E00B540C6683543E7
:1007C000C560491C1029BFD3F0BDF0B5002300243B
:1007D0004D07ED0E02FA05F3CE1000F1200555F895
:1007E00026504E07F70E0F26BE40B543CF1000F13E
:1007F000200646F82750CE1000F1200555F8265067
:1008000045EA0304CE1000F1200545F82640F0BD6E
:100810000183704700BFFEE71CB50121202000F0D6
:100820005DF84FF4C060009001208DF804000020B6
:100830008DF8060003208DF8050001208DF80700D3
:1008400069460448FFF779FF4FF4C0610148FFF79C
:10085000DFFF1CBD0014024000BFFEE77047000030
:1008600070B5002100230F22C4781CB3174C2468F4
:1008700004F4E064C4F5E064C4F30721C1F10404A6
:10088000E3B20A4144789C40E1B2847814402143A9
:100890000C07210E0E4C05786155047804F01F05F5
:1008A0000124AC4005786D11AD0005F1E025C5F8D7
:1008B000004109E0047804F01F050124AC40054D17
:1008C0000678761145F8264070BD00000CED00E07A
:1008D00000E400E080E100E07047000029B1064A32
:1008E00012680243044B1A6004E0034A1268824310
:1008F000014B1A60704700003038024029B1064AA7
:1009000012680243044B1A6004E0034A12688243EF
:10091000014B1A60704700004038024029B1064A76
:1009200012680243044B1A6004E0034A12688243CF
:10093000014B1A607047000044380240F0B50021B6
:1009400000220024022500260223324F3F6807F0D0
:100950000C0121B1042905D0082937D105E02E4F1B
:10096000076036E02D4F076033E02A4F3F1F3F6896
:10097000C7F38056274F3F1F3F6807F03F036EB114
:10098000264FB7FBF3F7DFF88CC0ACF1040CDCF8B2
:1009900000C0CCF3881C07FB0CF40CE01E4FB7FB27
:1009A000F3F7DFF870C0ACF1040CDCF800C0CCF356
:1009B000881C07FB0CF4174F3F1F3F68C7F3014724
:1009C0007F1C7D00B4FBF5F7076002E0124F076063
:1009D00000BF00BF0F4F3F6807F0F0010909104F3B
:1009E0007A5C0768D74047600A4F3F6807F4E051D8
:1009F000890A0B4F7A5C4768D7408760054F3F688C
:100A000007F46041490B064F7A5C4768D740C760DE
:100A1000F0BD0000083802400024F40000127A0003
:100A20000A000020704700000CB5002001900090E3
:100A30003448006840F480303249086000BF3148D3
:100A4000006800F4003000900198401C019000986C
:100A500018B90198B0F5A04FF1D12A48006800F408
:100A6000003010B10120009001E0002000900098BB
:100A7000012846D123484030006840F08050214989
:100A8000403108602048006840F440401E4908603A
:100A90001C48083000681B49083108600846006897
:100AA00040F4004008600846006840F4A050086028
:100AB0001648091F0860081F006840F08070091F71
:100AC000086000BF0F48006800F000700028F9D0EF
:100AD00040F205700E4908600A480830006820F0AE
:100AE00003000849083108600846006840F0020029
:100AF000086000BF03480830006800F00C000828B8
:100B0000F8D10CBD00380240007000400854400786
:100B1000003C0240042808D14FF0E021096941F06F
:100B200004014FF0E022116107E04FF0E021096974
:100B300021F004014FF0E02211617047704700007E
:100B400010B51548006840F4700013490860134858
:100B5000006840F001001149086000200F49083189
:100B600008600E4800680E4908400C4908600D48AE
:100B7000091D0860081F006820F48020091F086014
:100B8000002006490C310860FFF74EFF4FF000606F
:100B900001498039086010BD88ED00E0003802404E
:100BA000FFFFF6FE1030002421B1028842F001025E
:100BB000028004E002884FF6FE731A4002807047FC
:100BC00082884FF68F731A40828082880A4382801F
:100BD0007047000000220288184B98420ED0184B34
:100BE00098420BD0B0F1804F08D0164B984205D0F8
:100BF000154B984202D0154B984204D14FF68F7393
:100C00001A404B881A43124B984207D0114B984216
:100C100004D04FF6FF431A400B891A4302804B68F9
:100C2000C3620B880385054B984202D0044B98425F
:100C300001D18B7A03860123838270470000014033
:100C4000000401400004004000080040000C004087
:100C500000100040001400404FF0FF3141600021BF
:100C600001800181418081727047000010B540F21F
:100C700025511D4800F04AF810B31B4800F000F958
:100C8000C4B21A48008800F40040C8B91748008868
:100C900000F4804060B10A2C03D000201349088082
:100CA00020E01248008840F400401049088019E014
:100CB0000D2C06D10D48008840F480400B49088077
:100CC00010E00A480088C0F30D0009490C54074899
:100CD0000088401C0549088008460088C72801DDB7
:100CE0000020088010BD0000001001400800002016
:100CF0001C00002021B1828942F40052828104E06C
:100D000082894DF6FF731A408281704770B50246A2
:100D1000002400230025002040F66A16B14200D1CD
:100D200000BFC1F3421501F01F03012606FA03F3C9
:100D3000012D02D19689334006E0022D02D1168A98
:100D4000334001E0968A33400C12012606FA04F47F
:100D50001688344013B10CB1012000E0002070BDB2
:100D6000F0B50346002400260025002040F66A174F
:100D7000B94200D100BF1846C1F3421401F01F066A
:100D8000012707FA06F5012C01D10C3004E0022CF2
:100D900001D1103000E014301AB107682F4307600A
:100DA00002E00768AF430760F0BD00002DE9FF4790
:100DB00005460E460024A14600BFA046B08900B1FA
:100DC00000BF2C8A24F44054F08804432C82AC8960
:100DD00041F20C608443B08831890843718908432B
:100DE0000443AC81AC8A24F44074B0890443AC82DF
:100DF0006846FFF7A3FD2048854202D01F48854280
:100E000002D1DDF80C9001E0DDF80890A88900F42B
:100E1000004040B109EBC90000EB091031684900FE
:100E2000B0FBF1F707E009EBC90000EB09103168EE
:100E30008900B0FBF1F76420B7FBF0F00401200952
:100E4000642101FB1078A88900F4004040B13220F1
:100E500000EBC800B0FBF1F000F00700044308E02D
:100E6000322000EB08106421B0FBF1F000F00F001D
:100E700004432C81BDE8FF870010014000140140AD
:100E800001468888C0F30800704700BFFEE70146AE
:100E900000BF704710B504466FF00400FFF73AFE3C
:100EA000E11704EB5171C1F3C701074A11701046F5
:100EB000007800EB4001C1EBC0104FF6FF7101EA72
:100EC000C0000249088010BD000000200200002080
:100ED00070B504464FF4077094FBF0F0C6B24FF4BF
:100EE000077094FBF0F100FB114085B205E04FF470
:100EF000077000F009F8701EC6B2002EF7D115B1C8
:100F0000284600F001F870BD0146114A12884A4394
:100F10004FF0E0235A6100229A611A46126942F0AA
:100F200001021A6100BF4FF0E022106900F00102D7
:100F30001AB100F48032002AF5D04FF0E022126995
:100F400022F001024FF0E0231A6100229A617047FB
:100F50000200002000BF054A128802F04002002A69
:100F6000F9D0C2B2014B9A807047000000100140D6
:100F7000A820FFF78FFFFFF74FFC4FF4E13000F0A0
:100F800013F8FFF747FB06E003A0FFF76FF94FF4F4
:100F90007A70FFF79DFFF7E7B3CCD0F2D5FDD4DA36
:100FA000D4CBD0D00000000010B588B00446012199
:100FB0000846FFF793FC01211020FFF7AFFC072242
:100FC00009212248FFF701FC07220A211F48FFF7E9
:100FD000FCFB4FF4C060069002208DF81C008DF8D9
:100FE0001D0000208DF81E0001208DF81F0006A9AD
:100FF0001648FFF7A2FB02940020ADF80C00ADF8F4
:101000000E00ADF81000ADF814000C20ADF8120081
:1010100002A90F48FFF7CAFE01210D48FFF76AFE3B
:10102000012240F225510A48FFF79AFE25208DF84B
:10103000040003208DF805008DF8060001208DF8CE
:10104000070001A8FFF70CFC08B010BD000002402B
:10105000001001404FF04070E1EE100A7047FF07AA
:10106000810802098209010A7E0AF80A6F0BE20B65
:10107000520CBD0C230D840DDF0D340E830ECB0EF0
:101080000C0F450F780FA20FC50FDF0FF20FFC0FEB
:10109000FE0FF80FEA0FD30FB40F8E0F600F2A0F59
:1010A000EC0EA80E5C0E0A0EB20D540DF10C880C5D
:1010B0001B0CA90B340BBB0A400AC2094309C20826
:1010C0004008BE073C07BB063C06BE054305CA04F4
:1010D0005504E30376030D03AA024C02F401A201B6
:1010E00056011201D4009E0070004A002B0014002B
:1010F0000600000002000C001F0039005C008600A2
:10110000B900F20033017B01CA011F027A02DB023F
:101110004103AC031C048F0406058005FD057C0615
:10112000FC067D07FF0700004811000800000020B2
:101130001C000000C4010008641100081C0000200D
:101140002C070000E0010008000000000000000083
:10115000000000000000010203040102030406076E
:04116000080900007A
:040000050800018965
:00000001FF
