:020000040800F2
:100000004817002071020008E9080008A10800084C
:10001000E5080008B9030008170F000800000000F9
:10002000000000000000000000000000B10A00080D
:10003000C50700080000000065090008C90B00089A
:100040008B0200088B0200088B0200088B0200085C
:100050008B0200088B0200088B0200088B0200084C
:100060008B0200088B0200088B0200088B0200083C
:100070008B0200088B0200088B0200088B0200082C
:100080008B0200088B0200088B0200088B0200081C
:100090008B0200088B0200088B0200088B0200080C
:1000A0008B0200088B0200088B0200088B020008FC
:1000B0008B0200088B0200088B0200088B020008EC
:1000C0008B0200088B0200088B0200088B020008DC
:1000D0008B020008F90C00088B0200088B02000854
:1000E0008B0200088B0200088B0200088B020008BC
:1000F0008B0200088B0200088B0200088B020008AC
:100100008B0200088B0200088B0200088B0200089B
:100110008B0200088B0200088B0200088B0200088B
:100120008B0200088B0200088B0200088B0200087B
:100130008B0200088B0200088B0200088B0200086B
:100140008B0200088B0200088B0200088B0200085B
:100150008B0200088B0200088B0200088B0200084B
:100160008B0200088B0200088B0200088B0200083B
:100170008B0200088B0200088B0200088B0200082B
:100180008B0200088B02000800F002F800F060F813
:100190000AA090E8000C82448344AAF10107DA45E2
:1001A00001D100F055F8AFF2090EBAE80F0013F0D4
:1001B000010F18BFFB1A43F001031847300F00006E
:1001C000500F000010F8013B0A4413F0030408BF6D
:1001D00010F8014B1D1108BF10F8015B641E05D01B
:1001E00010F8016B641E01F8016BF9D1002D15D0D8
:1001F00010F8014B03F00C030C2BA1EB04040ABF15
:1002000010F8013BA4EB8314A4EB032405F10103D4
:1002100014F8016B5B1E01F8016BF9D5914238BFF0
:1002200010F8013BD1D3704700230024002500269D
:10023000103A28BF78C1FBD8520728BF30C148BF49
:100240000B6070471FB500F04BFF1FBD10B510BD10
:1002500000F06EF81146FFF7F5FF00F0CFFE00F05A
:10026000A0F803B4FFF7F2FF03BC00F056FE000055
:100270000948804709480047FEE7FEE7FEE7FEE73A
:10028000FEE7FEE7FEE7FEE7FEE7FEE70448054976
:10029000054A064B70470000CD0B00088901000895
:1002A0004811002048170020481300204813002060
:1002B000704700000FB4044910B503AA029800F07B
:1002C00009F810BC5DF814FB040800207047704763
:1002D00070477047074B70B50D467B4400F011F82E
:1002E0000446284600F020F810B14FF0FF3070BDF2
:1002F000204670BD030D000001694A1C02610878A8
:10030000704700B58FB0CDE9013100210591054955
:100310007944CDE903101146684600F02EF80FB07D
:1003200000BD0000E5FFFFFF007B00F0800070478C
:10033000754600F03DF8AE4605006946534620F08C
:100340000700854618B020B5FFF7A0FFBDE82040A4
:100350004FF000064FF000074FF000084FF0000B81
:1003600021F00701AC46ACE8C009ACE8C009ACE834
:10037000C009ACE8C0098D4670472DE9F04106463A
:100380000024D6E90170F5688046304603E0414616
:10039000B847641C3046A8470028F8D12046BDE87D
:1003A000F0810446AFF300802046FFF75AFF0000BB
:1003B00000487047E410002000BFFEE739B1084A4A
:1003C0001268012383401A43054B1A6006E0044A71
:1003D0001268012383409A43014B1A607047000062
:1003E0000074004041B1094A12684FF480538340C1
:1003F0001A43064B1A6007E0044A12684FF4805310
:1004000083409A43014B1A6070470000007400401B
:1004100030B5002200230A4C226840F6FE74844066
:10042000A243D1E900452C438D682C43CD6844EAB2
:10043000050303FA00F42243014C226030BD0000A2
:100440000074004008B500220092054A009200F1B5
:100450000802009B1A440092009A116008BD000037
:10046000007400400021016041608160C1607047FC
:1004700021B1026842F00102026003E0026822F04A
:100480000102026070470000016821F00101016073
:100490000021016041608160C160016121214161F1
:1004A0004A49884204D13D21484A103A91608CE083
:1004B00046491831884205D14FF47461434A103AD5
:1004C000916082E041493031884205D14FF4741186
:1004D0003E4A103A916078E03C494831884205D163
:1004E0004FF07461394A103A91606EE037496031DB
:1004F000884204D13649354A103AD16065E0334923
:100500007831884204D13349304A103AD1605CE0F6
:100510002E499031884204D12F492C4A103AD1609B
:1005200053E02A49A831884205D14FF03D51274A6E
:10053000103AD16049E02949884204D13D21274A37
:10054000083A116041E025491831884205D14FF43D
:100550007461224A083A116037E0204930318842FC
:1005600005D14FF474111D4A083A11602DE01B4962
:100570004831884205D14FF07461184A083A116039
:1005800023E016496031884204D11149134A121FF1
:1005900011601AE011497831884204D10D490F4A9F
:1005A000121F116011E00D499031884204D10A49AF
:1005B0000A4A121F116008E00849A831884204D194
:1005C0004FF03D51054A121F116070471060024004
:1005D0003D000020400F002000003D20106402403C
:1005E00021B1026842F48022026003E0026822F432
:1005F00080220260704722B1036843F40023036045
:1006000003E0036823F400230360016170470000E6
:1006100010B500220268134B1A40CC680B682343C4
:100620004C6923438C692343CC6923430C6A2343DD
:100630004C6A23438C6A23434C6B23438C6B2343C8
:100640001A430260426922F00702D1E90B342343C6
:100650001A4342610B6943604B6883608B68C360D7
:1006600010BD00003F801CF00021016041608160EE
:10067000C160016141618161C16101624162816268
:10068000C1620163416381637047000000B599B0A6
:100690000121084600F068F90121480700F074F9CB
:1006A0000121480500F060F90121084600F06CF9CD
:1006B0001020179003208DF8600002208DF8630051
:1006C00017A93B4800F07FF813A8FFF7CBFE2420C2
:1006D0001390002014900220169013A90020FFF719
:1006E00097FE00210846FFF7ADFE01210020FFF72D
:1006F00065FE01210020FFF775FE01A800F0F2FA67
:10070000632002900020ADF80400ADF80C00ADF8B5
:10071000060001A94FF0804000F0A2FA202148060F
:1007200000F094FA04A8FFF79FFF2248FFF7ACFE01
:100730004FF06060049020480590204806904020CB
:10074000079000010890002009904FF480600A9003
:1007500040000B9080000C904FF440300E90002031
:100760000F90012010900020119012904FF4807093
:100770000D90C20212490F48FFF73DFF01210D48BD
:10078000FFF72EFF04A90B48FFF742FF012109489C
:10079000FFF76EFE01210020FFF710FE012100206F
:1007A000FFF720FE0121880700F044FA19B000BDD0
:1007B00000000240886002400874004000000020F1
:1007C0001C0800207047F0B50A46002100230024D1
:1007D00000BF3DE0012505FA01F3156805EA0304B1
:1007E0009C4234D105684F000326BE40B5430560E6
:1007F00015794E00B5400668354305601579012D21
:1008000002D01579022D16D185684F000326BE400F
:10081000B543856055794E00B5408668354385609F
:10082000456801268E40B5434560456896798E40FF
:10083000B6B235434560C5684F000326BE40B54398
:10084000C560D5794E00B540C6683543C560491CC2
:100850001029BFD3F0BDF0B5002300244D07ED0EE5
:1008600002FA05F3CE1000F1200555F826504E0788
:10087000F70E0F26BE40B543CF1000F1200646F814
:100880002750CE1000F1200555F8265045EA030404
:10089000CE1000F1200545F82640F0BD01837047D9
:1008A00000BFFEE71CB50121202000F05DF84FF4E9
:1008B000C060009001208DF8040000208DF8060033
:1008C00003208DF8050001208DF8070069460448D3
:1008D000FFF779FF4FF4C0610148FFF7DFFF1CBD50
:1008E0000014024000BFFEE77047000070B5002111
:1008F00000230F22C4781CB3174C246804F4E0646E
:10090000C4F5E064C4F30721C1F10404E3B20A4171
:1009100044789C40E1B28478144021430C07210EB6
:100920000E4C05786155047804F01F050124AC4095
:1009300005786D11AD0005F1E025C5F8004109E02D
:10094000047804F01F050124AC40054D06787611AB
:1009500045F8264070BD00000CED00E000E400E02A
:1009600080E100E07047000029B1064A12680243A6
:10097000044B1A6004E0034A12688243014B1A6078
:10098000704700003038024029B1064A126802431D
:10099000044B1A6004E0034A12688243014B1A6058
:1009A000704700004038024029B1064A12680243ED
:1009B000044B1A6004E0034A12688243014B1A6038
:1009C0007047000044380240F0B5002100220024A6
:1009D000022500260223324F3F6807F00C0121B1A7
:1009E000042905D0082937D105E02E4F076036E0ED
:1009F0002D4F076033E02A4F3F1F3F68C7F38056F3
:100A0000274F3F1F3F6807F03F036EB1264FB7FBEC
:100A1000F3F7DFF88CC0ACF1040CDCF800C0CCF3C9
:100A2000881C07FB0CF40CE01E4FB7FBF3F7DFF854
:100A300070C0ACF1040CDCF800C0CCF3881C07FBE0
:100A40000CF4174F3F1F3F68C7F301477F1C7D0021
:100A5000B4FBF5F7076002E0124F076000BF00BF6C
:100A60000F4F3F6807F0F0010909104F7A5C0768E3
:100A7000D74047600A4F3F6807F4E051890A0B4F9F
:100A80007A5C4768D7408760054F3F6807F460414C
:100A9000490B064F7A5C4768D740C760F0BD00003D
:100AA000083802400024F40000127A000A080020EE
:100AB000704700000CB50020019000903448006899
:100AC00040F480303249086000BF3148006800F4CB
:100AD000003000900198401C0190009818B90198CE
:100AE000B0F5A04FF1D12A48006800F4003010B1F1
:100AF0000120009001E0002000900098012846D1DC
:100B000023484030006840F080502149403108605F
:100B10002048006840F440401E4908601C480830E6
:100B200000681B49083108600846006840F400402E
:100B300008600846006840F4A05008601648091F85
:100B40000860081F006840F08070091F086000BF3F
:100B50000F48006800F000700028F9D040F20570DE
:100B60000E4908600A480830006820F00300084970
:100B7000083108600846006840F00200086000BFC5
:100B800003480830006800F00C000828F8D10CBDBC
:100B9000003802400070004008544007003C02400A
:100BA000042808D14FF0E021096941F004014FF019
:100BB000E022116107E04FF0E021096921F0040112
:100BC0004FF0E022116170477047000010B51548E2
:100BD000006840F47000134908601348006840F052
:100BE00001001149086000200F49083108600E48D3
:100BF00000680E4908400C4908600D48091D08604E
:100C0000081F006820F48020091F086000200649A2
:100C10000C310860FFF74EFF4FF00060014980394A
:100C2000086010BD88ED00E000380240FFFFF6FECE
:100C30001030002421B1028842F00102028004E059
:100C400002884FF6FE731A400280704782884FF682
:100C50008F731A40828082880A4382807047000026
:100C600000220288184B98420ED0184B98420BD0A5
:100C7000B0F1804F08D0164B984205D0154B9842E2
:100C800002D0154B984204D14FF68F731A404B880F
:100C90001A43124B984207D0114B984204D04FF69A
:100CA000FF431A400B891A4302804B68C3620B88CA
:100CB0000385054B984202D0044B984201D18B7AB0
:100CC0000386012383827047000001400004014035
:100CD0000004004000080040000C004000100040EC
:100CE000001400404FF0FF3141600021018001817C
:100CF000418081727047000010B540F225511D48B7
:100D000000F04AF810B31B4800F000F9C4B21A48CA
:100D1000008800F40040C8B91748008800F48040FB
:100D200060B10A2C03D000201349088020E012484B
:100D3000008840F400401049088019E00D2C06D1CD
:100D40000D48008840F480400B49088010E00A48B4
:100D50000088C0F30D0009490C5407480088401C66
:100D60000549088008460088C72801DD0020088062
:100D700010BD000000100140080800201C100020D9
:100D800021B1828942F40052828104E082894DF6C9
:100D9000FF731A408281704770B502460024002319
:100DA0000025002040F66A16B14200D100BFC1F311
:100DB000421501F01F03012606FA03F3012D02D1AB
:100DC0009689334006E0022D02D1168A334001E0B5
:100DD000968A33400C12012606FA04F41688344031
:100DE00013B10CB1012000E0002070BDF0B5034646
:100DF000002400260025002040F66A17B94200D1E1
:100E000000BF1846C1F3421401F01F06012707FA7C
:100E100006F5012C01D10C3004E0022C01D1103078
:100E200000E014301AB107682F43076002E007683A
:100E3000AF430760F0BD00002DE9FF4705460E46B1
:100E40000024A14600BFA046B08900B100BF2C8A93
:100E500024F44054F08804432C82AC8941F20C60A5
:100E60008443B08831890843718908430443AC81C5
:100E7000AC8A24F44074B0890443AC826846FFF71E
:100E8000A3FD2048854202D01F48854202D1DDF8EB
:100E90000C9001E0DDF80890A88900F4004040B112
:100EA00009EBC90000EB091031684900B0FBF1F70C
:100EB00007E009EBC90000EB091031688900B0FBBD
:100EC000F1F76420B7FBF0F004012009642101FB75
:100ED0001078A88900F4004040B1322000EBC8002F
:100EE000B0FBF1F000F00700044308E0322000EB13
:100EF00008106421B0FBF1F000F00F0004432C81D6
:100F0000BDE8FF87001001400014014001468888B9
:100F1000C0F30800704700BFFEE7014600BF7047FE
:100F200010B504466FF00400FFF73AFEE11704EB3A
:100F30005171C1F3C701074A11701046007800EBE8
:100F40004001C1EBC0104FF6FF7101EAC000024939
:100F5000088010BD000800200208002070B504467B
:100F60004FF4077094FBF0F0C6B24FF4077094FB97
:100F7000F0F100FB114085B205E04FF4077000F07E
:100F800009F8701EC6B2002EF7D115B1284600F040
:100F900001F870BD0146114A12884A434FF0E02320
:100FA0005A6100229A611A46126942F001021A61DE
:100FB00000BF4FF0E022106900F001021AB100F406
:100FC0008032002AF5D04FF0E022126922F00102AF
:100FD0004FF0E0231A6100229A6170470208002056
:100FE00000BF054A128802F04002002AF9D0C2B2BE
:100FF000014B9A807047000000100140A820FFF7C5
:101000008FFFFFF74FFC4FF4E13000F013F8FFF7CC
:101010003DFB06E003A0FFF74DF94FF47A70FFF7B0
:101020009DFFF7E7B3CCD0F2D5FDD4DAD4CBD0D046
:101030000D0A000010B588B0044601210846FFF7EC
:1010400093FC01211020FFF7AFFC07220921224861
:10105000FFF701FC07220A211F48FFF7FCFB4FF4B2
:10106000C060069002208DF81C008DF81D00002045
:101070008DF81E0001208DF81F0006A91648FFF705
:10108000A2FB02940020ADF80C00ADF80E00ADF804
:101090001000ADF814000C20ADF8120002A90F48A2
:1010A000FFF7CAFE01210D48FFF76AFE012240F258
:1010B00025510A48FFF79AFE25208DF804000320E9
:1010C0008DF805008DF8060001208DF8070001A8B5
:1010D000FFF70CFC08B010BD0000024000100140FA
:1010E0004FF04070E1EE100A704700000C1100084C
:1010F000000000201C080000C401000800190008BE
:101100001C0800202C0F00002802000800FF00002F
:10111000080C081908250832083E084B08580864CE
:101120000871087D088A089608A308AF08BC08C89B
:1011300008D508E108EE08FA080709130920092C68
:10114000093909450951095E096A09770983098F37
:10115000099C09A809B409C109CD09D909E509F112
:1011600009FE090A0A160A220A2E0A3A0A460A52F1
:101170000A5E0A6A0A760A820A8E0A9A0AA60AB2DF
:101180000ABE0ACA0AD50AE10AED0AF80A040B10D7
:101190000B1B0B270B320B3E0B490B550B600B6CDB
:1011A0000B770B820B8E0B990BA40BAF0BBA0BC6F4
:1011B0000BD10BDC0BE70BF20BFD0B070C120C1D1C
:1011C0000C280C330C3D0C480C520C5D0C680C7256
:1011D0000C7C0C870C910C9B0CA60CB00CBA0CC4AC
:1011E0000CCE0CD80CE20CEC0CF60C000D0A0D1316
:1011F0000D1D0D270D300D3A0D430D4D0D560D6093
:101200000D690D720D7B0D840D8E0D970D10EE9FE7
:101210000DA80DB10DBA0DC30DCC0DD40DDD0DE52E
:101220000DEE0DF60DFE0D070E0F0E170E1F0E27FD
:101230000E2F0E370E3F0E470E4F0E560E5E0E66E9
:101240000E6D0E750E7C0E830E8B0E920E990EA0F7
:101250000EA70EAE0EB50EBC0EC20EC90ED00ED627
:101260000EDD0EE30EEA0EF00EF60EFC0E020F0877
:101270000F0E0F140F1A0F200F250F2B0F310F36E3
:101280000F3B0F410F460F4B0F500F550F5A0F5F7B
:101290000F640F690F6D0F720F770F7B0F800F8434
:1012A0000F880F8C0F900F940F980F9C0FA00FA416
:1012B0000FA80FAB0FAF0FB20FB60FB90FBC0FBF18
:1012C0000FC20FC50FC80FCB0FCE0FD10FD30FD644
:1012D0000FD80FDB0FDD0FDF0FE10FE30FE50FE797
:1012E0000FE90FEB0FED0FEE0FF00FF10FF30FF40F
:1012F0000FF50FF70FF80FF90FFA0FFB021004FCB0
:101300000FFD0232FE02B2FF022114211C12FC0268
:1013100012FB2E12F9361004F70FF6401004F40FEA
:10132000F24C12EF5400FF00EC0FEA0FE80FE60F4B
:10133000E40FE20FE00FDE0FDC0FD90FD70FD40F51
:10134000D20FCF0FCC0FCA0FC70FC40FC10FBE0FE4
:10135000BA0FB70FB40FB00FAD0FA90FA60FA20FA2
:101360009E0F9A0F960F920F8E0F8A0F860F820F85
:101370007D0F790F740F700F6B0F660F620F5D0F8B
:10138000580F530F4E0F490F430F3E0F390F330FB6
:101390002E0F280F230F1D0F170F110F0B0F050F07
:1013A000FF0EF90EF30EED0EE60EE00EDA0ED30E82
:1013B000CC0EC60EBF0EB80EB10EAB0EA40E9C0E18
:1013C000950E8E0E870E800E780E710E690E620ECF
:1013D0005A0E530E4B0E430E3B0E330E2B0E230EA6
:1013E0001B0E130E0B0E030EFA0DF20DE90DE10D9F
:1013F000D80DD00DC70DBE0DB60DAD0DA40D9B0DB6
:10140000920D890D800D770D6E0D640D5B0D520DE3
:10141000480D3F0D350D2C0D220D180D0F0D050D2E
:10142000FB0CF10CE70C00FF00DD0CD30CC90CBF6A
:101430000CB50CAB0CA10C960C8C0C820C770C6DC3
:101440000C620C580C4D0C430C380C2D0C220C1853
:101450000C0D0C020CF70BEC0BE10BD60BCB0BC0FD
:101460000BB50BAA0B9F0B930B880B7D0B710B66B7
:101470000B5B0B4F0B440B380B2D0B210B160B0A80
:101480000BFE0AF30AE70ADB0ACF0AC40AB80AAC61
:101490000AA00A940A880A7C0A700A640A580A4C4C
:1014A0000A400A340A280A1C0A100A040AF809EB3E
:1014B00009DF09D309C709BA09AE09A20995098943
:1014C000097D097009640958094B093F0932092649
:1014D000091A090D090109F408E808DB08CF08C258
:1014E00008B608A9089D089008830877086A085E6E
:1014F000085108450838082C081F0812080608F982
:1015000007ED07E007D307C707BA07AE07A107959E
:101510000788077C076F076207560749073D0730B2
:1015200007240717070B0700FF00FE06F206E50673
:10153000D906CD06C006B406A7069B068F0682060E
:1015400076066A065D065106450638062C06200614
:1015500014060706FB05EF05E305D705CB05BF0518
:10156000B305A7059B058F05830577056B055F050B
:10157000530547053B053005240518050C050105F5
:10158000F504E904DE04D204C704BB04B004A404D7
:1015900099048E04820477046C04600455044A04A0
:1015A0003F04340429041E0413040804FD03F20359
:1015B000E703DD03D203C703BC03B203A7039D0304
:1015C000920388037D03730369035E0354034A0394
:1015D000400336032C03220318030E030403FA020C
:1015E000F002E702DD02D302CA02C002B702AD0276
:1015F000A4029B02910288027F0276026D026402BD
:101600005B0252024902410238022F0227021E02E7
:1016100016020D020502FC01F401EC01E401DC01FB
:10162000D401CC01C401BC0110C8B401AC01A501B6
:101630009D0196018E0187017F01780171016A0188
:1016400063015B0154014E0147014001390133013F
:101650002C0125011F01190112010C0106010001D5
:10166000FA00F400EE00E800E200DC00D700D10050
:10167000CC00C600C100BC00B600B100AC00A700A1
:10168000A2009D00990094008F008B0086008200CC
:101690007D007900750071006D00690065006100D2
:1016A0005D005900560052004F004B0048004500B5
:1016B00041003E003B0038003500330030002D0073
:1016C0002B0028002600230021001F001D001B0006
:1016D0001900170015001300110010000E000D0076
:1016E0000B000A00090008000700060005000400BE
:1016F0000302120202119BC20001211232011C12CC
:10170000032812042E12063612084010040B000C97
:101710004C120F5400FF0012001400160018001A9B
:10172000001C001E00200022002400270029002C9D
:10173000002E003100340037003A003D00400043E5
:1017400000460049004D005000540057005B005F08
:1017500000630067006B006F00730077007B007F01
:1017600000840088008D00920096009B00A000A5D8
:1017700000AA00AF00B400B900BE00C400C900CE8A
:1017800000D400DA00DF00E500EB00F100F700FD17
:1017900000030109010F0115011C01220129012F7C
:1017A0000136013D0143014A01510158015F0166C3
:1017B000016D0174017C0183018A0192019901A1EB
:1017C00001A901B001B801C001C801D001D801E0F0
:1017D00001E801F001F8010102090211021A0222D6
:1017E000022B0233023C0245024E0257026002689D
:1017F0000271027B0284028D0296029F02A902B24C
:1018000002BC02C502CF02D802E202EC02F502FFDE
:101810000209031303D8D91D03270331033B0345F2
:10182000034F03590364036E03780383038D039707
:1018300003A203AD03B703C203CC03D703E203ED56
:1018400003F80302040D04180423042E043904458C
:101850000450045B04660471047D04880493049FAF
:1018600004AA04B604C104CD04D804E404EF04FBC4
:1018700004070512051E052A05350541054D0559C4
:1018800005650571057D0589059505A105AD05B9B8
:1018900005C505D105DD05E905F50501060E061AA4
:1018A00006260632063E064B065706630670067C81
:1018B0000688069506A106AE06BA06C606D306DF5A
:1018C00006EC06F806050711071E072A0737074327
:1018D0000750075C076907750782078E079B07A7F4
:1018E00007B407C107CD07DA07E607F307FF0708C4
:1018F0002004020304040007000607080900000092
:040000050800018965
:00000001FF
