:020000040800F2
:10000000481F002031020008090C0008010C0008FC
:10001000050C00081D0800081B1400080000000063
:10002000000000000000000000000000250E000895
:10003000290B000800000000990C00083D0F000883
:100040004B0200084B0200084B0200084B0200085C
:100050004B0200084B0200084B0200084B0200084C
:100060004B0200084B0200084B0200084B0200083C
:100070004B0200084B0200084B0200084B0200082C
:100080004B0200084B0200084B0200084B0200081C
:100090004B0200084B0200084B0200084B0200080C
:1000A0004B0200084B0200084B0200084B020008FC
:1000B0004B0200084B0200084B0200084B020008EC
:1000C0004B0200084B0200084B0200084B020008DC
:1000D0004B020008FD1100084B0200084B0200080B
:1000E0004B0200084B0200084B0200084B020008BC
:1000F0004B0200084B0200084B0200084B020008AC
:100100004B0200084B0200084B0200084B0200089B
:100110004B0200084B0200084B0200084B0200088B
:10012000210800084B0200084B0200084B0200089F
:100130004B0200084B0200084B0200084B0200086B
:100140004B0200084B0200084B0200084B0200085B
:100150004B0200084B0200084B0200084B0200084B
:100160004B0200084B0200084B0200084B0200083B
:100170004B0200084B0200084B0200084B0200082B
:100180004B0200084B02000800F002F800F041F8B2
:100190000AA090E8000C82448344AAF10107DA45E2
:1001A00001D100F036F8AFF2090EBAE80F0013F0F3
:1001B000010F18BFFB1A43F0010318477014000029
:1001C00090140000103A24BF78C878C1FAD85207BA
:1001D00024BF30C830C144BF04680C6070470000C1
:1001E0000023002400250026103A28BF78C1FBD840
:1001F000520728BF30C148BF0B607047642900F028
:100200007980002070471FB501F00AFA1FBD10B5B4
:1002100010BD00F037F91146FFF7F5FF01F070F956
:1002200000F055F903B4FFF7F2FF03BC01F0F7F853
:100230000948804709480047FEE7FEE7FEE7FEE77A
:10024000FEE7FEE7FEE7FEE7FEE7FEE704480549B6
:10025000054A064B70470000410F0008890100085D
:1002600048190020481F0020481B0020481B002080
:10027000704700000FB4044910B503AA029800F0BB
:10028000D3F810BC5DF814FB040000202DE9F04108
:100290000E460446002020622046E168884730B3BD
:1002A000252805D0D4E901219047206A401CF2E7B7
:1002B000E168204600278847050018D0A5F14100D5
:1002C000192802D820354FF40067324629462046C7
:1002D0002760FFF793FF40B1012804D0F61D26F0F8
:1002E00007060836D8E7361DD6E72846DAE7206A3B
:1002F000BDE8F0812DE9F04106460024106875291B
:10030000314616A510D0AFF30080002802DA404233
:1003100013A507E031688A0701D512A502E0490755
:1003200004D511A5012401E0AFF3008000210A22C9
:1003300006F1240709E0B0FBF2FCB0FBF2F302FB8C
:100340001C00303078541846491C0028F3D123464D
:100350002A463046BDE8F04100F00CB8000000002D
:100360002D0000002B0000002000000070477047A7
:10037000704770472DE9F0470D469946924604466E
:1003800000F124080168880604D5E06921F0100115
:10039000216000E00120A84201DD471B00E00027AA
:1003A000A1697A1902EB0900081AA0612078C00639
:1003B00002D42046AFF30080002608E0D4E90121F2
:1003C0001AF806009047206A401C761C20624E45B1
:1003D000F4DB2078C0060AD52046AFF3008006E0A3
:1003E000D4E9012130209047206A401C2062381E49
:1003F000A7F10107F4DC07E0D4E9012118F80500B2
:100400009047206A401C2062281EA5F10105F3DCFC
:100410002046AFF300802078000602D50220BDE818
:10042000F0870120FBE70000074B70B50D467B44C9
:1004300000F011F80446284600F020F810B14FF003
:10044000FF3070BD204670BDB310000001694A1C2A
:1004500002610878704700B58FB0CDE90131002105
:10046000059105497944CDE9031011466846FFF727
:100470000DFF0FB000BD0000E5FFFFFF007B00F0A7
:1004800080007047754600F029F8AE4605006946C1
:10049000534620F00700854618B020B5FFF7D6FE7A
:1004A000BDE820404FF000064FF000074FF0000875
:1004B0004FF0000B21F00701AC46ACE8C009ACE8F6
:1004C000C009ACE8C009ACE8C0098D4670470446D5
:1004D000AFF300802046FFF7A5FE000000487047FC
:1004E000E418002021B1826842F00102826003E03A
:1004F000826822F001028260704700000021084AF1
:100500001168084A1140D0E900231A4383681A434E
:10051000C3681A431143044AC2F804137047000029
:1005200004230140E030FCFF0020014021B182683B
:1005300042F48072826003E0826822F480728260FA
:10054000704721B1826842F40072826003E08268E1
:1005500022F400728260704730B50246002000230A
:100560005068104C20400D790C6844EA0524204363
:10057000506090680C4C2040D1E903542C438D68A6
:100580002C434D7944EA450420439060D06A20F41E
:1005900070000C7D641EE4B2234340EA0350D06235
:1005A00030BD0000FFFEFFFCFDF7FFC0F0B50446C4
:1005B0000D4600200021092D11DDE068A5F10A0695
:1005C00006EB4607072606FA07F18843A5F10A0657
:1005D00006EB460603FA06F10843E0600CE02069EA
:1005E00005EB4507072606FA07F1884305EB4506A4
:1005F00003FA06F108432061072A0FDA606B561EE2
:1006000006EB86071F2606FA07F18843561E06EBFF
:10061000860605FA06F10843606322E00D2A0FDA28
:10062000206BD61F06EB86071F2606FA07F18843C4
:10063000D61F06EB860605FA06F10843206310E094
:10064000E06AA2F10D0606EB86071F2606FA07F1FF
:100650008843A2F10D0606EB860605FA06F108436B
:10066000E062F0BD816841F0804181607047000028
:1006700000B59FB00121084600F020FB012108468B
:1006800000F00CFB0121080200F038FB0121880575
:1006900000F004FB4FF0804000F092FC1AA800F03C
:1006A000A3FD42F20F701B900020ADF86800ADF87A
:1006B0007000ADF86A001AA94FF0804000F052FDBA
:1006C0002021480600F044FD0121880700F06CFC61
:1006D0004D4800F0DFF800200B904C480D904C483E
:1006E0000C9000200E904FF480600F90002010902E
:1006F0004FF48060119040001290800013904011E0
:1007000014904002159000201690012017900020B0
:10071000189019904FF400223E493B4800F071F9BF
:100720000121394800F062F90BA9374800F0D0F9EF
:100730000121354800F0A2F81021334800F084F878
:1007400001221021304800F0A5F901212E4800F0C7
:1007500095F820201D9003208DF8780000208DF85A
:100760007B001DA92C4800F0E0F94FF4A06000F0D8
:1007700089FA38208DF8280000208DF829008DF89E
:100780002A0001208DF82B000AA800F03FFA002073
:100790000090039002904FF4803001906846FFF77C
:1007A000ADFE002004908DF814008DF815004FF078
:1007B000C06007904FF08050069000200890012004
:1007C0008DF8240004A912484C38FFF7C5FE072312
:1007D000012205210E484C38FFF7E8FE01210C48A4
:1007E0004C38FFF7AEFE012109484C38FFF79EFE5A
:1007F000012107484C38FFF775FE05484C38FFF7D4
:1008000031FF1FB000BD0000106402401C0000203A
:100810004C2001401C0800200000024000BFFEE701
:1008200010B500240649074800F002F930B1044928
:10083000044800F009F8034800F0EFF810BD00008C
:1008400020800010106402400246094B9A4201D2F7
:10085000084801E00648103801F000531BB1064B70
:100860000B40C36002E0044B0B4083607047000004
:1008700010640240006002407D0F7D0F21B10268CC
:1008800042F00102026003E0026822F0010202600D
:1008900070470000016821F0010101600021016042
:1008A00041608160C1600161212141614A49884202
:1008B00004D13D21484A103A91608CE046491831F4
:1008C000884205D14FF47461434A103A916082E046
:1008D00041493031884205D14FF474113E4A103AF3
:1008E000916078E03C494831884205D14FF074610D
:1008F000394A103A91606EE037496031884204D13C
:100900003649354A103AD16065E03349783188423A
:1009100004D13349304A103AD1605CE02E4990311D
:10092000884204D12F492C4A103AD16053E02A4919
:10093000A831884205D14FF03D51274A103AD16085
:1009400049E02949884204D13D21274A083A1160EB
:1009500041E025491831884205D14FF47461224A9B
:10096000083A116037E020493031884205D14FF410
:1009700074111D4A083A11602DE01B494831884224
:1009800005D14FF07461184A083A116023E0164906
:100990006031884204D11149134A121F11601AE0D4
:1009A00011497831884204D10D490F4A121F116054
:1009B00011E00D499031884204D10A490A4A121FB8
:1009C000116008E00849A831884204D14FF03D5138
:1009D000054A121F11607047106002403D00002060
:1009E000400F002000003D201064024021B1026849
:1009F00042F48022026003E0026822F48022026056
:100A0000704722B1036843F40023036003E00368E6
:100A100023F40023036001617047014600200A6847
:100A200002F400220AB1012000E00020704700001B
:100A300070B50246002000240025124EB24201D2B9
:100A4000114B01E00F4B103B104E0E4036B11E26ED
:100A500006EAD124166806EA040502E0566906F0A3
:100A6000800501F000560EB15C6800E01C68084E7D
:100A7000344004EA010616B10DB1012000E0002067
:100A800070BD000010640240006002403C0F3C0F4B
:100A90007D0F7D0F10B501F080034BB122B143698A
:100AA00043F08003436103E0436923F08003436123
:100AB00080290BD02AB1036801F01E042343036090
:100AC00004E0036801F01E04A343036010BD0000AE
:100AD00010B500220268134B1A40CC680B68234300
:100AE0004C6923438C692343CC6923430C6A234319
:100AF0004C6A23438C6A23434C6B23438C6B234304
:100B00001A430260426922F00702D1E90B34234301
:100B10001A4342610B6943604B6883608B68C36012
:100B200010BD00003F801CF07047F0B50A46002160
:100B30000023002400BF3DE0012505FA01F31568FC
:100B400005EA03049C4234D105684F000326BE40E9
:100B5000B543056015794E00B5400668354305601C
:100B60001579012D02D01579022D16D185684F0017
:100B70000326BE40B543856055794E00B540866872
:100B800035438560456801268E40B543456045681C
:100B900096798E40B6B235434560C5684F0003264E
:100BA000BE40B543C560D5794E00B540C6683543F3
:100BB000C560491C1029BFD3F0BDF0B50023002447
:100BC0004D07ED0E02FA05F3CE1000F1200555F8A1
:100BD00026504E07F70E0F26BE40B543CF1000F14A
:100BE000200646F82750CE1000F1200555F8265073
:100BF00045EA0304CE1000F1200545F82640F0BD7B
:100C000000BFFEE700BFFEE77047000070B500219F
:100C100000230F22C4781CB3174C246804F4E0644A
:100C2000C4F5E064C4F30721C1F10404E3B20A414E
:100C300044789C40E1B28478144021430C07210E93
:100C40000E4C05786155047804F01F050124AC4072
:100C500005786D11AD0005F1E025C5F8004109E00A
:100C6000047804F01F050124AC40054D0678761188
:100C700045F8264070BD00000CED00E000E400E007
:100C800080E100E002490143024A11607047000020
:100C90000000FA050CED00E07047000029B1064A9B
:100CA00012680243044B1A6004E0034A126882434C
:100CB000014B1A60704700003038024029B1064AE3
:100CC00012680243044B1A6004E0034A126882432C
:100CD000014B1A60704700004038024029B1064AB3
:100CE00012680243044B1A6004E0034A126882430C
:100CF000014B1A60704700002038024029B1064AB3
:100D000012680243044B1A6004E0034A12688243EB
:100D1000014B1A60704700004438024029B1064A6E
:100D200012680243044B1A6004E0034A12688243CB
:100D3000014B1A607047000024380240F0B50021D2
:100D400000220024022500260223324F3F6807F0CC
:100D50000C0121B1042905D0082937D105E02E4F17
:100D6000076036E02D4F076033E02A4F3F1F3F6892
:100D7000C7F38056274F3F1F3F6807F03F036EB110
:100D8000264FB7FBF3F7DFF88CC0ACF1040CDCF8AE
:100D900000C0CCF3881C07FB0CF40CE01E4FB7FB23
:100DA000F3F7DFF870C0ACF1040CDCF800C0CCF352
:100DB000881C07FB0CF4174F3F1F3F68C7F3014720
:100DC0007F1C7D00B4FBF5F7076002E0124F07605F
:100DD00000BF00BF0F4F3F6807F0F0010909104F37
:100DE0007A5C0768D74047600A4F3F6807F4E051D4
:100DF000890A0B4F7A5C4768D7408760054F3F6888
:100E000007F46041490B064F7A5C4768D740C760DA
:100E1000F0BD0000083802400024F40000127A00FF
:100E20000A000020704700000CB5002001900090DF
:100E30003448006840F480303249086000BF3148CF
:100E4000006800F4003000900198401C0190009868
:100E500018B90198B0F5A04FF1D12A48006800F404
:100E6000003010B10120009001E0002000900098B7
:100E7000012846D123484030006840F08050214985
:100E8000403108602048006840F440401E49086036
:100E90001C48083000681B49083108600846006893
:100EA00040F4004008600846006840F4A050086024
:100EB0001648091F0860081F006840F08070091F6D
:100EC000086000BF0F48006800F000700028F9D0EB
:100ED00040F205700E4908600A480830006820F0AA
:100EE00003000849083108600846006840F0020025
:100EF000086000BF03480830006800F00C000828B4
:100F0000F8D10CBD00380240007000400854400782
:100F1000003C0240042808D14FF0E021096941F06B
:100F200004014FF0E022116107E04FF0E021096970
:100F300021F004014FF0E02211617047704700007A
:100F400010B51548006840F4700013490860134854
:100F5000006840F001001149086000200F49083185
:100F600008600E4800680E4908400C4908600D48AA
:100F7000091D0860081F006820F48020091F086010
:100F8000002006490C310860FFF74EFF4FF000606B
:100F900001498039086010BD88ED00E0003802404A
:100FA000FFFFF6FE1030002421B1028842F001025A
:100FB000028004E002884FF6FE731A4002807047F8
:100FC00010B504465548844208D101210846FFF770
:100FD000A5FE00210120FFF7A1FE9DE0B4F1804FA6
:100FE00008D101210846FFF779FE00210120FFF713
:100FF00075FE91E04A48844208D101210220FFF7A2
:101000006DFE00210220FFF769FE85E0454884421D
:1010100008D101210420FFF761FE00210420FFF721
:101020005DFE79E04048844208D101210820FFF7A5
:1010300055FE00210820FFF751FE6DE03B48844239
:1010400008D101211020FFF749FE00211020FFF7F1
:1010500045FE61E03648844208D101212020FFF797
:101060003DFE00212020FFF739FE55E03148844243
:1010700008D101210220FFF751FE00210220FFF7D5
:101080004DFE49E02C48844209D101210804FFF7B4
:1010900045FE00214FF48030FFF740FE3CE027483A
:1010A000844209D101214804FFF738FE00214FF4A2
:1010B0000030FFF733FE2FE02148844209D101219F
:1010C0008804FFF72BFE00214FF48020FFF726FE57
:1010D00022E01C48844208D101214020FFF7FEFD98
:1010E00000214020FFF7FAFD16E01748844208D19E
:1010F00001218020FFF7F2FD00218020FFF7EEFDA7
:101100000AE01248844207D101218015FFF7E6FD6D
:101110000021A015FFF7E2FD10BD00000000014016
:101120000004004000080040000C00400010004097
:101130000014004000040140004001400044014010
:101140000048014000180040001C00400020004002
:1011500082884FF68F731A40828082880A43828089
:101160007047000000220288184B98420ED0184B9E
:1011700098420BD0B0F1804F08D0164B984205D062
:10118000154B984202D0154B984204D14FF68F73FD
:101190001A404B881A43124B984207D0114B984281
:1011A00004D04FF6FF431A400B891A4302804B6864
:1011B000C3620B880385054B984202D0044B9842CA
:1011C00001D18B7A0386012383827047000001409E
:1011D000000401400004004000080040000C0040F2
:1011E00000100040001400404FF0FF31416000212A
:1011F00001800181418081727047000010B540F28A
:1012000025511D4800F04AF810B31B4800F000F9C2
:10121000C4B21A48008800F40040C8B917480088D2
:1012200000F4804060B10A2C03D0002013490880EC
:1012300020E01248008840F400401049088019E07E
:101240000D2C06D10D48008840F480400B490880E1
:1012500010E00A480088C0F30D0009490C54074803
:101260000088401C0549088008460088C72801DD21
:101270000020088010BD0000001001400800002080
:101280001C18002021B1828942F40052828104E0BE
:1012900082894DF6FF731A408281704770B502460D
:1012A000002400230025002040F66A16B14200D138
:1012B00000BFC1F3421501F01F03012606FA03F334
:1012C000012D02D19689334006E0022D02D1168A03
:1012D000334001E0968A33400C12012606FA04F4EA
:1012E0001688344013B10CB1012000E0002070BD1D
:1012F000F0B50346002400260025002040F66A17BA
:10130000B94200D100BF1846C1F3421401F01F06D4
:10131000012707FA06F5012C01D10C3004E0022C5C
:1013200001D1103000E014301AB107682F43076074
:1013300002E00768AF430760F0BD00002DE9FF47FA
:1013400005460E460024A14600BFA046B08900B164
:1013500000BF2C8A24F44054F08804432C82AC89CA
:1013600041F20C608443B088318908437189084395
:101370000443AC81AC8A24F44074B0890443AC8249
:101380006846FFF7DBFC2048854202D01F488542B3
:1013900002D1DDF80C9001E0DDF80890A88900F496
:1013A000004040B109EBC90000EB09103168490069
:1013B000B0FBF1F707E009EBC90000EB0910316859
:1013C0008900B0FBF1F76420B7FBF0F004012009BD
:1013D000642101FB1078A88900F4004040B132205C
:1013E00000EBC800B0FBF1F000F00700044308E098
:1013F000322000EB08106421B0FBF1F000F00F0088
:1014000004432C81BDE8FF87001001400014014017
:1014100001468888C0F30800704700BFFEE7014618
:1014200000BF704710B504466FF00400FFF772FD6F
:10143000E11704EB5171C1F3C701074A117010465F
:10144000007800EB4001C1EBC0104FF6FF7101EADC
:10145000C0000249088010BD0000002002000020EA
:1014600070B504464FF4077094FBF0F0C6B24FF429
:10147000077094FBF0F100FB114085B205E04FF4DA
:10148000077000F009F8701EC6B2002EF7D115B132
:10149000284600F001F870BD0146114A12884A43FF
:1014A0004FF0E0235A6100229A611A46126942F015
:1014B00001021A6100BF4FF0E022106900F0010242
:1014C0001AB100F48032002AF5D04FF0E022126900
:1014D00022F001024FF0E0231A6100229A61704766
:1014E0000200002000BF054A128802F04002002AD4
:1014F000F9D0C2B2014B9A80704700000010014041
:10150000A820FFF78FFF4FF4E13000F033F84FF4DD
:10151000A060FFF7B7FBFFF7ABF821E04FF47A705C
:10152000FFF79EFF002407E00E4830F814000E4934
:1015300021F81400601C84B2B4F5806FF4DB002441
:1015400007E0094830F8141008A0FEF793FE601C6D
:1015500084B2B4F5806FF4DB4FF47A70FFF780FF4C
:10156000DCE700001C0000201C10002025640D0A90
:101570000000000010B588B0044601210846FFF7BE
:101580008DFB01211020FFF7B9FB0722092122481A
:10159000FFF713FB07220A211F48FFF70EFB4FF44A
:1015A000C060069002208DF81C008DF81D00002000
:1015B0008DF81E0001208DF81F0006A91648FFF7C0
:1015C000B4FA02940020ADF80C00ADF80E00ADF8AE
:1015D0001000ADF814000C20ADF8120002A90F485D
:1015E000FFF7ACFE01210D48FFF74CFE012240F24F
:1015F00025510A48FFF77CFE25208DF804000320C2
:101600008DF805008DF8060001208DF8070001A86F
:10161000FFF7FCFA08B010BD0000024000100140C6
:101620004FF04070E1EE100A704700004C160008C1
:10163000000000201C000000C4010008681600081B
:101640001C0000202C1F0000E0010008000000002A
:10165000000000000000000000000102030401027D
:0816600003040607080900005D
:040000050800018965
:00000001FF
