:020000040800F2
:10000000008700209D01000839650008FB1D0008DD
:1000100035650008C5130008AB6D0008000000003E
:1000200000000000000000000000000075670008EC
:10003000C119000800000000C9650008CD6800086B
:10004000B7010008B7010008B7010008B7010008B0
:10005000B7010008B7010008B7010008B7010008A0
:10006000C5190008FD190008311A0008B701000879
:10007000B7010008B7010008B7010008B701000880
:10008000B7010008B7010008B7010008B701000870
:10009000B7010008B7010008B7010008B701000860
:1000A000B7010008B7010008B7010008B701000850
:1000B000B7010008B7010008B7010008B701000840
:1000C000B7010008B7010008B7010008B701000830
:1000D000B70100088D6B0008B7010008B7010008E0
:1000E000B7010008B7010008B7010008B701000810
:1000F000B7010008B7010008B7010008B701000800
:10010000B7010008B7010008B7010008B7010008EF
:10011000B7010008B7010008B7010008B7010008DF
:100120007D140008B7010008B7010008B7010008F6
:10013000B7010008B7010008B7010008B7010008BF
:10014000B7010008B7010008B7010008B7010008AF
:10015000B7010008B7010008B7010008B70100089F
:10016000B7010008B7010008B7010008B70100088F
:10017000B7010008B7010008B7010008B70100087F
:10018000B7010008B7010008DFF80CD000F03CFF11
:100190000048004775750008008700200648804722
:1001A00006480047FEE7FEE7FEE7FEE7FEE7FEE75C
:1001B000FEE7FEE7FEE7FEE7D168000889010008D8
:1001C0009FED3D0A5FEA920C57D000BFD0ED000AC8
:1001D00090ED011A0B1D60EEA00A083041EE010AF5
:1001E000F5EEC00AF1EE10FAA6BFB1EEE01A81ED0D
:1001F000001A81ED000AD0ED000A90ED011A191DD8
:1002000060EEA00A083041EE010AF5EEC00AF1EEF8
:1002100010FAA6BFB1EEE01A83ED001A83ED000AD2
:10022000D0ED000A90ED011A0B1D60EEA00A083017
:1002300041EE010AF5EEC00AF1EE10FAA6BFB1EEEA
:10024000E01A81ED001A81ED000A90ED001AD0ED60
:10025000010A191D21EE011A083000EEA01AB5EEB0
:10026000C01AF1EE10FAA6BFF1EEC10AC3ED000A02
:1002700083ED000ABCF1010CA8D112F0030208BF03
:10028000704700BFD0ED000A90ED011A0B4660EEFA
:10029000A00A091D083041EE010AF5EEC00AF1EE90
:1002A00010FAA6BFB1EEE01A83ED001A83ED000A42
:1002B000521EE7D170470000000000002DE9F04F0A
:1002C0008D082DED048B82B00026AC463446019596
:1002D00006EB0C0909EB0C0A0AEB0C0800EBC6074D
:1002E00000EBC90900EBCA0A00EBC80897ED003A19
:1002F000D9ED003ADAED006A98ED006A97ED010A4F
:10030000DAED014A33EE265A73EE860A99ED014A78
:10031000D8ED015A30EE241A4FEA440B02EBCB0E13
:1003200070EE644A74EE251A35EE200A9EED002A1E
:10033000DEED012A87ED000A31EE210A73EEC63A9E
:1003400034EE656A87ED010A35EE600A33EE663AEF
:1003500071EE610A02EBC40774EEE35A33EE064A0B
:1003600097ED005A73EEA41AD7ED014A33EE461A00
:1003700024EE056A0BEB040725EE855A02EBC7074E
:1003800060EE026A65EEA45A24EE244A97ED003A24
:10039000D7ED013A60EEA24A20EE822A21EE037ADE
:1003A00020EE220A61EEA30A21EE833A61EE231ABF
:1003B00076EEA42A32EE400A36EE251A75EE443A5D
:1003C000C9ED002A77EE200A89ED010A73EE611A61
:1003D0008AED001ACAED013AC8ED000AC8ED011A0B
:1003E0001C446D1E06F101067FF472AF4FF6FF74D8
:1003F00004EA830B019B0093042B7CD966464FEAE9
:100400009C0C4FF00008C146ACF1010E4FEA4803C6
:1004100003EB080402EBC30302EBC80593ED003ABB
:10042000D3ED014A02EBC40395ED005AD5ED015A14
:1004300093ED006A93ED014AD8444B4603EB0C045C
:1004400004EB0C0707EB0C0A00EBC30500EBC70736
:1004500000EBC40400EBCA0AD5ED003A97ED007A30
:10046000D4ED008A9AED008A95ED010AD4ED010AD7
:10047000D7ED017ADAED011A33EEC72A70EE676A1A
:1004800070EEE12A33EE877A78EE883A30EE270A6A
:1004900038EEC81A70EEA11A72EE227A32EE622A93
:1004A00077EE232A70EE618A36EEC18A30EE210A99
:1004B00077EE630A31EE261AC5ED002A85ED010AB2
:1004C00028EE050A67EE856A28EE258A20EE837AF3
:1004D00020EEA49A68EE831A62EE062A61EE063ACE
:1004E00062EE040A67EEA57A68EEA48A21EE041A89
:1004F00036EE882A00E027E077EE286A71EEC91A06
:1005000030EE670AC4ED006A32EE811AC4ED011ABA
:1005100073EEE00A87ED002A87ED010A8AED001AE2
:100520003344CAED010A8B4288D309F10109F14530
:100530007FF66CAF4FF6FF7303EA8B0B009B9B08B3
:100540000093042B3FF65AAFDDF8041090ED000A3B
:10055000D0ED042A90ED025A90ED031AD0ED064A30
:1005600090ED073A30EE222AD0ED011AD0ED050ABF
:1005700075EE243A31EE034A30EE620A71EEA02A9B
:1005800031EE431A32EE233A71EEE00A75EE641A48
:1005900072EE844A32EE632A72EEC43A80ED003A7B
:1005A00070EE012AC0ED014A30EEE14A80ED022AE8
:1005B00030EE410AC0ED033A71EEA00AC0ED042A04
:1005C00080ED054A80ED060AC0ED070A2030491E7D
:1005D000BCD102B0BDEC048BBDE8F08F2DE9F04F2B
:1005E0004FEA910A2DED048B82B00024D446A04638
:1005F000CDF804A004EB0C0505EB0C0606EB0C098A
:1006000000EBC40700EBC60600EBC50500EBC9090B
:10061000D7ED011AD6ED012A95ED006AD9ED006AF1
:10062000D7ED005A96ED007AD5ED010A99ED011A41
:1006300036EE262A71EEA23A35EE873A71EEE21ACC
:1006400030EE815A70EEC12A4FEA480B02EBCB0E16
:1006500073EE020A9EED004ADEED014AC7ED000A84
:1006600073EE850A36EE666A75EEC75AC7ED010A63
:1006700033EE422A02EBC80731EE861A33EEC53A52
:1006800071EEC61A97ED006A97ED015A75EEE20A0F
:100690000BEB080702EBC70775EEA22AD7ED005A4D
:1006A000D7ED013A60EE866A22EE047A62EEA57A10
:1006B00023EE044A21EE066A61EEA55A60EE850A31
:1006C00023EE243A22EE242A21EE051A61EEA31A23
:1006D00062EEA32A76EE203A37EE433A74EE020A2F
:1006E00036EEC11A85ED003A77EEE11AC5ED010A42
:1006F00035EEA22A86ED001AC6ED013AC9ED001AC0
:10070000641C89ED012A9844BAF1010A7FF472AFA2
:100710004FF6FF7404EA830B019B0093042B7CD9F2
:1007200066464FEA9C0C4FF00008C146ACF1010E42
:100730004FEA480303EB080402EBC30302EBC805CE
:10074000D3ED003A93ED017A02EBC403D5ED006AD4
:10075000D5ED015AD3ED004A93ED013AD8444B460A
:1007600003EB0C0404EB0C0707EB0C0A00EBC305CE
:1007700000EBC70700EBC40400EBCA0A95ED012AA1
:1007800097ED018A95ED001AD4ED008AD4ED017A37
:1007900097ED009ADAED001ADAED010A32EE485AC6
:1007A00071EE492A38EEE14A32EE082A37EEA08A85
:1007B00037EEE06A78EEA11A31EE091A75EE048A76
:1007C00072EEC67A72EE862A71EE610A31EE211A55
:1007D00035EE444A32EE489A85ED001A32EE081A98
:1007E00028EEA66A27EEA65A68EEA58A85ED011ABC
:1007F00020EEA31A69EE231A22EEA42A24EE248AFC
:1008000067EEA57A29EE079A60EE870A24EE034A7E
:1008100062EE832A35EE685A00E027E036EE276A5A
:1008200071EE497A31EEA01A72EE440AC4ED007AF4
:1008300084ED011A78EE221A87ED005A87ED016ADD
:10084000CAED000A3344CAED011A8B4288D309F17C
:100850000109F1457FF66CAF4FF6FF7303EA8B0B8E
:10086000009B9B080093042B3FF65AAFDDF8041061
:1008700090ED003AD0ED044AD0ED032A90ED071A2E
:1008800090ED024AD0ED061AD0ED013AD0ED050AFE
:1008900033EE242A72EE815A33EE643A34EE215A52
:1008A00073EEA04A73EEE03A32EEC11A74EE610ABA
:1008B00032EE454A72EE052A74EEA51A34EEE55A78
:1008C00073EE414A33EEA02A33EE011A33EEE03ADA
:1008D00062EE805A61EE800A64EE003A65EE002A0C
:1008E000C0ED005A64EE801AC0ED010A22EE002A23
:1008F000C0ED023A21EE004AC0ED032A23EE001AB1
:10090000C0ED041A80ED052A80ED064A80ED071A35
:100910002030491EACD102B0BDEC048BBDE8F08F95
:1009200070B504460D4680782188A3896268012845
:100930000ED02846FFF7C2FCE078012818BF70BD32
:10094000E28921882846A368BDE8704000F066B8B7
:1009500094ED040A2846FFF741FEEDE710B401804C
:10096000234C446082704FF0000CC370B1F5807F5F
:1009700020D004DC10292FD0402923D005E0B1F588
:10098000806F0FD0B1F5805F04D04FF0FF3C10BCFA
:100990006046704701218181C18116499FED160A89
:1009A000816016E004218181C18114499FED140A00
:1009B00081600EE010218181C18112499FED120AF0
:1009C000816006E040218181C18110499FED100ABC
:1009D000816080ED040ADAE74FF480718181C18182
:1009E0000C499FED0D0A816080ED040ACFE70000FD
:1009F000DC960008DC8E000800008039E28E0008DA
:100A00000000803AFA8E00080000803B5A8F0008F0
:100A10000000803CDA9000080000803D2DE9F001E4
:100A20004E0801244FF0000C04EB51076146A6F17B
:100A300002082CE061452AD200EBCC0500EBC10492
:100A4000D5ED000A94ED000AC4ED000A85ED000A18
:100A5000D5ED010A94ED010AC4ED010A85ED010A04
:100A6000CC1900EBC4050CEB070400EBC40495EDB6
:100A7000000AD4ED000AC5ED000A84ED000AD4EDA9
:100A8000010A95ED010AC5ED010A84ED010A00EBAA
:100A9000C104B44400EBCC0C94ED020ADCED000A76
:100AA000891CC4ED020A8CED000ADCED010A94ED0C
:100AB000030AC4ED030A8CED010AB3F800C089B241
:100AC00003EB42034145B5D9BDE8F00170472DE97C
:100AD000F0074D0801244FF0000C04EB510661466D
:100AE000A5F102082BE0614529D250F8314050F8B9
:100AF0003C7040F8317040F83C4000EBC10900EB1D
:100B0000CC04D9F80470D4F804A0C9F804A0676034
:100B10008C190CEB060750F8349050F837A040F8C9
:100B200034A040F8379000EBC40400EBC707D4F8BA
:100B30000490D7F804A0C4F804A0C7F8049000EB10
:100B4000C104AC44A76850F83C90C4F8089040F841
:100B50003C7000EBCC0CE768DCF80490C4F80C9017
:100B6000CCF80470B3F800C0891C03EB4203414584
:100B7000B9D9BDE8F00770472DE9F00F01244F08FF
:100B800004EB51084FF0000C7C0804BFBDE8F00FE7
:100B90007047014600EB8805002614E0BCEB460FC9
:100BA00011D950F82CA0D1F80090C1F800A040F85D
:100BB0002C900CEB0809D5F800A050F829B0C5F826
:100BC00000B040F829A0BC4451F8049F50F82CA074
:100BD00041F804AB40F82C90B3F800C003EB42039B
:100BE000641E05F1080506F10106D7D1BDE8F00F36
:100BF000704740EA01039B0703D009E008C9121FB0
:100C000008C0042AFAD203E011F8013B00F8013BC6
:100C1000521EF9D270472DE9FE4F81EA030404F019
:100C2000004421F0004100944FF0000B23F00043FA
:100C300050EA01045ED052EA03045BD0C3F30A54C5
:100C4000C1F30A552C44A4F2F3340194A0FB0254DE
:100C5000C1F3130141F48011C3F3130343F4801370
:100C600001FB024400FB034E840A970A44EA8154C4
:100C700047EA8357A4FB076802958D0A05FB0785A1
:100C80004FEA932C04FB0C542705029D4FEA0658AB
:100C900047EA1637B5EB08056EEB070C870E920E88
:100CA00047EA811742EA8312A7FB0201B6EB0B0168
:100CB00064EB00042B0D43EA0C335E1844EB1C502C
:100CC000DA465146E7FB0201C5F313044FEA0B3342
:100CD00043EA14534FEA0432019C43EA0603A4F1A9
:100CE0000C040294009CCDE900B400F03EF903B07E
:100CF000BDE8F08F00200146F9E72DE9F04D81EACB
:100D0000030404F0004B21F0004514464FF0000AA4
:100D100023F0004150EA050220D054EA01021DD020
:100D2000C5F30A570246C5F31303C1F31300C1F319
:100D30000A5640F4801543F48013A7EB0608101BF5
:100D4000D64608F2FD3873EB050002D308F101081E
:100D500001E092185B41B8F1000F03DA0020014670
:100D6000BDE8F08D00204FF48011064684460EE069
:100D7000171B73EB050705D3121B63EB0503064333
:100D80004CEA010C49084FEA300092185B4150EAE6
:100D90000107EDD152EA030012D082EA040083EA8F
:100DA0000501084305D0101BAB4106D201220023E8
:100DB00006E000224FF0004302E06FF00102531002
:100DC0001AEB06004CEB085110EB0A0041EB0B014B
:100DD000BDE8F04D00F0BAB80EB540F233410291D3
:100DE0000021CDE900110A460B4600F0BEF803B021
:100DF00000BDC1F30A5210B5C1F3130140F2FF3335
:100E000041F480119A4201DA002010BD40F23343D0
:100E10009A42A2F2334203DC524200F050F810BD75
:100E2000904010BD01F0004330B421F0004150EA81
:100E3000010206D00A0DA2F56072C1F31301002A67
:100E400002DC30BC00207047440F44EAC104C100FA
:100E5000E01830BC00EBC25000F041B82DE9F05F63
:100E60000546002092469B46884606468146402419
:100E70001BE0284641464746224600F020F85346EC
:100E80005A46C01A914110D311461846224600F026
:100E9000CDF82D1A67EB01084F46224601200021AC
:100EA00000F0C4F817EB00094E41201EA4F1010424
:100EB000DFDC484631462A464346BDE8F09F202AFB
:100EC00004DB203A21FA02F00021704721FA02F3F4
:100ED000D040C2F1200291400843194670470029D2
:100EE000A8BF7047401C490008BF20F001007047B0
:100EF00010B4B0FA80FC00FA0CF050EA010404BF10
:100F000010BC704749B1CCF1200421FA04F411FA65
:100F10000CF118BF012121430843A3EB0C01CB1DA9
:100F20004FEA00614FEA102042BF002010BC70471A
:100F300000EBC35010440029A4BF10BC7047401CF4
:100F4000490008BF20F0010010BC704710B5141E06
:100F500073F1000408DA401C41F1000192185B4172
:100F60001A4301D120F0010010BD2DE9F04D924649
:100F70009B4611B1B1FA81F202E0B0FA80F2203260
:100F8000904600F053F804460F4640EA0A0041EA52
:100F90000B0153465A46084313D0114653EA010049
:100FA00019D0C8F140025046FFF789FF05460E46AA
:100FB00050465946424600F039F8084305D0012012
:100FC00004E020463946BDE8F08D0020054346EA9E
:100FD000E0762C4337430A986305E40AA0EB080047
:100FE0000022FD0A44EA47540A3002D50020014697
:100FF000E9E7010510196941DDE908450019694172
:10100000BDE8F04DA2E70000064C074D06E0E068A1
:1010100040F0010394E8070098471034AC42F6D33F
:10102000FFF7B6F8DC160108FC160108202A04DBDD
:10103000203A00FA02F1002070479140C2F12003EB
:1010400020FA03F319439040704770B58C1810F8DC
:10105000015B15F0070301D110F8013B2A1106D1FD
:1010600010F8012B03E010F8016B01F8016B5B1E17
:10107000F9D12B0705D40023521E0DD401F8013BF2
:10108000FAE710F8013BCB1A921C03E013F8015B5E
:1010900001F8015B521EF9D5A142D8D3002070BDE2
:1010A00021B1826842F00102826003E0826822F08E
:1010B00001028260704700000021084A1168084A56
:1010C0001140D0E900231A4383681A43C3681A43C6
:1010D0001143044AC2F8041370470000042301407E
:1010E000E030FCFF0020014021B1826842F48072B0
:1010F000826003E0826822F480728260704721B1CE
:10110000826842F40072826003E0826822F4007216
:101110008260704730B50246002000235068104CB2
:1011200020400D790C6844EA052420435060906803
:101130000C4C2040D1E903542C438D682C434D794D
:1011400044EA450420439060D06A20F470000C7D8E
:10115000641EE4B2234340EA0350D06230BD000075
:10116000FFFEFFFCFDF7FFC0F0B504460D46002072
:101170000021092D11DDE068A5F10A0606EB4607FE
:10118000072606FA07F18843A5F10A0606EB46068C
:1011900003FA06F10843E0600CE0206905EB45071F
:1011A000072606FA07F1884305EB450603FA06F120
:1011B00008432061072A0FDA606B561E06EB86078C
:1011C0001F2606FA07F18843561E06EB860605FA27
:1011D00006F10843606322E00D2A0FDA206BD61F68
:1011E00006EB86071F2606FA07F18843D61F06EB93
:1011F000860605FA06F10843206310E0E06AA2F1D2
:101200000D0606EB86071F2606FA07F18843A2F1B2
:101210000D0606EB860605FA06F10843E062F0BD0E
:1012200000B59FB00121084605F0F0F901210846FC
:1012300005F0CCF90121080205F008FA0121880522
:1012400005F0C4F94FF0804005F082FB1AA805F0C4
:1012500093FC40F633001B900020ADF86800ADF819
:101260007000ADF86A001AA94FF0804005F042FC0A
:101270002021480605F034FC0121880705F05CFBBD
:101280004B4800F0C1F900200B904A480D904A48A5
:101290000C9000200E904FF480600F900020109072
:1012A0004FF4806011904000129080001390401124
:1012B00014904002159000201690012017900020F5
:1012C000189019904FF400223C49394800F053FA25
:1012D0000121374800F044FA0BA9354800F0B2FA72
:1012E0000121334800F084F91021314800F066F9FB
:1012F000012210212E4800F087FA01212C4800F02D
:1013000077F920201D9003208DF8780000208DF8BB
:101310007B001DA92A4800F0FCFC4FF4A06005F0FA
:1013200049F938208DF8280000208DF829008DF823
:101330002A0001208DF82B000AA805F0FFF80020F4
:101340000090039002904FF4803001906846FFF7C0
:10135000B3FE002004908DF814008DF815004FF0B6
:10136000C06007904FF08050069000200890012048
:101370008DF8240004A910484C38FFF7CBFE072352
:10138000012205210C484C38FFF7EEFE01210A48E6
:101390004C38FFF7B4FE012107484C38FFF7A4FE94
:1013A000012105484C38FFF77BFE1FB000BD00004F
:1013B00010640240280200204C200140280A00202E
:1013C0000000024000BFFEE739B1084A126801235D
:1013D00083401A43054B1A6006E0044A1268012351
:1013E00083409A43014B1A6070470000007400402C
:1013F00041B1094A12684FF4805383401A43064BA7
:101400001A6007E0044A12684FF4805383409A43FD
:10141000014B1A60704700000074004030B5002294
:1014200000230A4C226840F6FE748440A243D1E9AE
:1014300000452C438D682C43CD6844EA050303FA2C
:1014400000F42243014C226030BD000000740040D3
:1014500008B500220092054A009200F10802009BA4
:101460001A440092009A116008BD00000074004008
:101470000021016041608160C160704710B52DEDB1
:10148000048B00244149424800F08CF9002879D0AF
:101490003E493F4800F092F83D4800F078F9C0B36B
:1014A00000BF15E03B4931F81400FFF795FC41EC13
:1014B000190B9FED390B53EC102BFFF71EFC41EC81
:1014C000180BFFF7AFFC364941F82400601C84B2CA
:1014D000B4F5806FE6DB324A3249334805F06EFEE0
:1014E000304A3249304805F0C9FE00240DE02F484B
:1014F00000EB840090ED000ABCEEC00A10EE100A6A
:101500002B4921F81400601C84B2B4F5806FEEDB27
:1015100038E0FFE7002415E0264931F81400FFF712
:101520005BFC41EC190B9FED1C0B53EC102BFFF7F0
:10153000E4FB41EC180BFFF775FC194941F8240056
:10154000601C84B2B4F5806FE6DB154A1549164875
:1015500005F034FE134A1549134805F08FFE0024A8
:101560000DE0124800EB840090ED000ABCEEC00ACA
:1015700010EE100A104921F81400601C84B2B4F572
:10158000806FEEDBBDEC048B10BD000020800010EE
:101590001064024028020020000000000000F03F1C
:1015A00028620020283200202852002028720020C3
:1015B00028120020280A0020281A00200246094B81
:1015C0009A4201D2084801E00648103801F0005361
:1015D0001BB1064B0B40C36002E0044B0B40836021
:1015E0007047000010640240006002407D0F7D0FD4
:1015F00021B1026842F00102026003E0026822F0B9
:101600000102026070470000016821F001010160E1
:101610000021016041608160C1600161212141615F
:101620004A49884204D13D21484A103A91608CE0F1
:1016300046491831884205D14FF47461434A103A43
:10164000916082E041493031884205D14FF47411F4
:101650003E4A103A916078E03C494831884205D1D1
:101660004FF07461394A103A91606EE03749603149
:10167000884204D13649354A103AD16065E0334991
:101680007831884204D13349304A103AD1605CE065
:101690002E499031884204D12F492C4A103AD1600A
:1016A00053E02A49A831884205D14FF03D51274ADD
:1016B000103AD16049E02949884204D13D21274AA6
:1016C000083A116041E025491831884205D14FF4AC
:1016D0007461224A083A116037E02049303188426B
:1016E00005D14FF474111D4A083A11602DE01B49D1
:1016F0004831884205D14FF07461184A083A1160A8
:1017000023E016496031884204D11149134A121F5F
:1017100011601AE011497831884204D10D490F4A0D
:10172000121F116011E00D499031884204D10A491D
:101730000A4A121F116008E00849A831884204D102
:101740004FF03D51054A121F116070471060024072
:101750003D000020400F002000003D2010640240AA
:1017600021B1026842F48022026003E0026822F4A0
:1017700080220260704722B1036843F400230360B3
:1017800003E0036823F4002303600161704701460E
:1017900000200A6802F400220AB1012000E00020C3
:1017A0007047000070B50246002000240025124E4C
:1017B000B24201D2114B01E00F4B103B104E0E40D4
:1017C00036B11E2606EAD124166806EA040502E0B0
:1017D000566906F0800501F000560EB15C6800E025
:1017E0001C68084E344004EA010616B10DB1012010
:1017F00000E0002070BD0000106402400060024064
:101800003C0F3C0F7D0F7D0F10B501F080034BB1F5
:1018100022B1436943F08003436103E0436923F04D
:101820008003436180290BD02AB1036801F01E04B4
:101830002343036004E0036801F01E04A343036034
:1018400010BD000010B500220268134B1A40CC688E
:101850000B6823434C6923438C692343CC6923439E
:101860000C6A23434C6A23438C6A23434C6B234307
:101870008C6B23431A430260426922F00702D1E9CC
:101880000B3423431A4342610B6943604B68836006
:101890008B68C36010BD00003F801CF00021016018
:1018A00041608160C160016141618161C16101622A
:1018B00041628162C16201634163816370470000DC
:1018C00000B595B00121084604F080FE01214807CB
:1018D00004F09CFE0121480504F078FE10201390CE
:1018E00003208DF8500002208DF8530013A92F48D3
:1018F00000F00FFA0FA8FFF7BBFD24200F90002087
:101900001090022012900FA90020FFF787FD002100
:101910000846FFF79DFD01210020FFF755FD01213D
:101920000020FFF765FD6846FFF7B8FF2048FFF786
:101930006BFE4FF0606000901E4801901E480290C0
:101940004020039000010490002005904FF4806037
:10195000069040000790800008904FF440300A90B5
:1019600000200B9001200C9000200D900E904FF461
:1019700080700990C20211490D48FFF7FCFE012159
:101980000B48FFF7EDFE69460948FFF75BFF0121B1
:101990000748FFF72DFE01210020FFF715FD01216B
:1019A0000020FFF725FD15B000BD0000000002403B
:1019B000886002400874004028120020281A002085
:1019C0007047000010B50A2005F090FB042109487B
:1019D00000F00AFA48B90848008818B10020064902
:1019E000088002E0012004490880042000F0B4F8D7
:1019F00010BD0000001002400000002010B50A20B9
:101A000005F074FB0821084800F0EEF938B90748E2
:101A1000006808B9012000E000200449086008209F
:101A200000F09AF810BD000000100240A882424267
:101A300010B50A2005F05AFB10210D4800F0D4F92A
:101A400088B90C48006808B9012000E00020094965
:101A500008600948D0F8A80208B9012000E0002079
:101A60000449091D0860102000F076F810BD000040
:101A700000100240A4824242008042420EB500F0B3
:101A8000BFF90121880304F0E1FD0221042004F0E4
:101A900073FE0321042004F06FFE0421084604F0C5
:101AA0006BFE0021084604F067FE01200090002034
:101AB0008DF8040008208DF8050001208DF806003F
:101AC000684600F04FF81C20009000208DF80400BC
:101AD0000C208DF8050001208DF80600684600F006
:101AE00041F806208DF8080003208DF80900002039
:101AF0008DF80A0001208DF80B0002A804F01EFDED
:101B000008208DF8080003208DF8090001208DF8C9
:101B10000A008DF80B0002A804F010FD09208DF8D2
:101B2000080003208DF8090002208DF80A0001202A
:101B30008DF80B0002A804F001FD0A208DF80800C2
:101B400003208DF809008DF80A0001208DF80B00A4
:101B500002A804F0F3FC0EBD0149086070470000C4
:101B6000143C0140002123498279002A3AD00A46D8
:101B7000126803689A430B461A600A1D12680368CC
:101B80009A430B1D1A60027911440A6803681A43CC
:101B90000A60184A0832126803689A43154B0833E2
:101BA0001A601A1D126803689A43124B0C331A60AC
:101BB0004279102A0ED11A1F126803681A430D4B7E
:101BC00008331A601A1D126803681A43094B0C3354
:101BD0001A600DE00749427911440A6803681A4304
:101BE0000A6005E0027911440A6803689A430A60B2
:101BF00070470000003C014051B18200A2F1C04298
:101C0000126842F001038200A2F1C042136009E0B1
:101C10008200A2F1C0421268034B1A408300A3F174
:101C2000C0431A6070470000FEFF0F00D0E90112A8
:101C30001143C26811430269114342691143826929
:101C40001143C2691143026A1143426A1143826A15
:101C50001143C26A1143026B114302689200A2F160
:101C6000C0421160816808290BD101688900A1F187
:101C7000C041096841F0400201688900A1F1C041FA
:101C80000A60416B0968426B526841EA0211426B7B
:101C9000926841EA0221426B928941EA0241426B19
:101CA000128A41EA0251426B127D41EA0261426BA3
:101CB000926911430268521C9200A2F1C042116065
:101CC000C16AB1F5804F1BD1816B0968826B526884
:101CD00041EA0211826B926841EA0221826B128A08
:101CE00041EA0251826B127D41EA0261826B926984
:101CF000114302689200A2F1C042C2F8041107E049
:101D00006FF0704201688900A1F1C041C1F804215F
:101D10007047F0B50A4600210023002400BF3DE0D3
:101D2000012505FA01F3156805EA03049C4234D144
:101D300005684F000326BE40B543056015794E0087
:101D4000B5400668354305601579012D02D0157937
:101D5000022D16D185684F000326BE40B54385602D
:101D600055794E00B5408668354385604568012643
:101D70008E40B5434560456896798E40B6B235438E
:101D80004560C5684F000326BE40B543C560D579A0
:101D90004E00B540C6683543C560491C1029BFD305
:101DA000F0BDF0B5002300244D07ED0E02FA05F357
:101DB000CE1000F1200555F826504E07F70E0F26DD
:101DC000BE40B543CF1000F1200646F82750CE1094
:101DD00000F1200555F8265045EA0304CE1000F125
:101DE000200545F82640F0BD0246002013690B404F
:101DF0000BB1012000E00020704700BFFEE70000AB
:101E00001CB50121112004F0E1FB1C2000900020F2
:101E10008DF8040003208DF8050001208DF80700DF
:101E200069460648FFF775FF0120009002208DF8F3
:101E3000070069460248FFF76CFF1CBD0010024016
:101E40000000024010B5002000F00AF84FF6E070E4
:101E50000249088004F0E0FA10BD000002020020F0
:101E600070B5044600261748058840884543154844
:101E7000808846F60401884216D1124880790128EC
:101E800012D100200F4988712A2048812B20888197
:101E90000021084604F0BEF801200A4988712B2071
:101EA00048812A20888103E00021084604F0B2F826
:101EB00004F090FA002602E003480480761CAE424B
:101EC000FAD370BD288200208000006C10B5044653
:101ED000002C66D16C498871F02008804FF4A07006
:101EE00048800846808849F2413188420BD06648D4
:101EF000808846F60401884205D06348808845F210
:101F0000103188421AD12C205F4908812A2048814B
:101F10002B2088810846808846F60401884205D037
:101F20005948808845F21031884206D14FF4A0709C
:101F3000554908804FF4F0704880A1E052488088ED
:101F400045F21051884210D14FF430504E4908816B
:101F50004FF4285048814FF42C5088814FF4F07092
:101F600008804FF4487048808AE04748808841F6EE
:101F7000631188420DD12C20434908812B204881D0
:101F80002A2088814FF4F07008804FF44870488010
:101F900076E022203C490881202048812120888148
:101FA0006EE00120384988714FF4A0700880F0205D
:101FB00048800846808849F24131884205D032483D
:101FC000808845F21031884207D12C202E490881A3
:101FD0002A2048812B2088813FE02B48808846F6C4
:101FE0000401884207D12C20274908812B204881F1
:101FF0002A20888131E02448808845F210518842A7
:1020000010D14FF43050204908814FF428504881B6
:102010004FF42C5088814FF4487008804FF4F070D2
:1020200048801AE01848808841F6631188420DD133
:102030002C20154908812A2048812B2088814FF4C3
:10204000487008804FF4F070488006E022200E4966
:10205000088121204881202088810B48808846F60D
:102060000401884205D00848808845F21031884232
:1020700006D14FF4F070044908804FF4A0704880F6
:10208000002003F051FE10BD288200202DE9FF4FF3
:1020900084B081468A460020039002900698A0EB07
:1020A00009050798A0EB0A06CDF80490CDF800A02A
:1020B000002D01DD012705E00DB9002702E04FF0FA
:1020C000FF376D42002E02DD4FF0010806E016B921
:1020D0004FF0000802E04FF0FF387642B54201DDD4
:1020E0002C4600E034464FF0000B21E0009A91B2FC
:1020F000019A90B200F03CF80398284403900298AB
:10210000304402900398A04205DD0398001B039021
:102110000198384401900298A04205DD0298001B06
:1021200002900098404400900BF101001FFA80FBE0
:10213000601C8345DADD08B0BDE8F08F2DE9F0437F
:1021400004460D4616461F46DDF81C900748B0F8B9
:102150000080A0F800903B46324629462046FFF713
:1021600095FF0248A0F80080BDE8F083020200203D
:1021700030B504460D462946204603F04BFF04F0D7
:1021800029F9024800880249088030BD0202002077
:102190008000006C70B504460D4616465B4880888A
:1021A00049F24131884205D05848808845F21031C3
:1021B000884214D15549488904F000F9201204F0EE
:1021C000F1F8E0B204F0EEF85049888904F0F6F82E
:1021D000281204F0E7F8E8B204F0E4F88CE04B4889
:1021E000808845F21051884220D14849488904F03E
:1021F000E5F8201204F0D6F844494989491C88B210
:1022000004F0DCF8E0B204F0CDF84049888904F02D
:10221000D5F8281204F0C6F83C498989491C88B2CF
:1022200004F0CCF8E8B204F0BDF865E037488088E7
:1022300041F66311884228D13448807920B9334867
:102240000088401E001B84B23049488904F0B6F86B
:10225000201204F0A7F8E0B204F0A4F8201204F071
:10226000A1F8E0B204F09EF82849888904F0A6F8A5
:10227000281204F097F8E8B204F094F8281204F059
:1022800091F8E8B204F08EF836E02048808846F6EF
:10229000040188421DD11D488079012804D11B48C2
:1022A0000088401E001B84B21849488904F086F853
:1022B000201204F077F8E0B204F074F8134988892A
:1022C00004F07CF8281204F06DF8E8B204F06AF823
:1022D00012E00E488079012804D10C480088401E85
:1022E000001B84B209494889214604F07DF807495A
:1022F0008889294604F078F8044800890449088050
:102300004FF0D840A0F8806070BD00002882002007
:102310007E00006C00B5A1B00020209001217A2041
:1023200004F054F90121084604F060F94FF400402C
:102330001E9001208DF87C0000208DF87E00022088
:102340008DF87D0001208DF87F001EA9FE48FFF763
:10235000E0FC4CF233701E9002208DF87C000020CF
:102360008DF87E0003208DF87D0001208DF87F0020
:102370001EA9F648FFF7CDFC4FF680701E90022094
:102380008DF87C0000208DF87E0003208DF87D0004
:1023900001208DF87F001EA9ED48FFF7BAFC4FF42D
:1023A00080501E9002208DF87C0000208DF87E0069
:1023B00003208DF87D0001208DF87F001EA9E548DF
:1023C000FFF7A7FC4FF480501E9002208DF87C0090
:1023D00000208DF87E0003208DF87D0001208DF80F
:1023E0007F001EA9DC48FFF794FC0C220021D7488F
:1023F000FFF7D7FC0C220121D448FFF7D2FC0C22B6
:102400000421D248FFF7CDFC0C220521CF48FFF76D
:10241000C8FC0C220821CD48FFF7C3FC0C2209217F
:10242000CA48FFF7BEFC0C220A21C848FFF7B9FCD6
:102430000C220E21C548FFF7B4FC0C220F21C34823
:10244000FFF7AFFC0C220721C148FFF7AAFC0C22C2
:102450000821BF48FFF7A5FC0C220921BC48FFF763
:10246000A0FC0C220A21BA48FFF79BFC0C220B218E
:10247000B748FFF796FC0C221146B548FFF791FCD0
:102480000C220D21B248FFF78CFC0C220E21B04823
:10249000FFF787FC0C220F21AD48FFF782FC0C22CE
:1024A0001146AC48FFF77DFC0C221146AA48FFF705
:1024B00078FC0F200890002009903C200A90002012
:1024C0000B900C900D900E9009200190002002902E
:1024D00008200390002004900590069007900620A5
:1024E0000F90002010901190102012900020139057
:1024F00015901490169017904FF48050189000206B
:1025000019904FF480401A9000201B9008A81C904E
:1025100001A81D900FA8FFF789FB01210620FFF7F6
:102520006BFB322004F0E2FD0121002003F05CFF90
:10253000322004F0DBFD002003F0BAFB87498880DD
:1025400008468088FF280ADB084680884FF6FF711E
:10255000884204D081488088B0F5134F7ED1D320C3
:1025600003F02CFF03F09AFB7C49888003F096FB74
:102570007A49888003F092FB7849888008468088F1
:102580004FF6FF7101EA00207449888003F086FB52
:10259000724989880843714988800846808849F2D1
:1025A000413188425AD0BF2003F008FF03F076FB88
:1025B0006A49888003F072FB6849888003F06EFBEB
:1025C0006649888003F06AFB6449888008468088F1
:1025D0004FF6FF7101EA00206049888003F05EFB3E
:1025E0005E49898808435D4988800846808846F6A8
:1025F000040188427AD0D42003F0E0FE03F04EFBC1
:102600005649888003F04AFB5449888003F046FB12
:1026100052498880084680884FF6FF7101EA002001
:102620004E49888003F03AFB4C49898808434B495E
:1026300088800846808845F21031884256D04FF491
:102640005A4003F0BBFE03F029FB444988804FF455
:102650005B4003F0B3FE03F021FB00E046E03F499E
:102660008880084680884FF6FF7101EA00203B49C8
:1026700088804FF45C4003F0A1FE03F00FFB374964
:10268000898808433549888008468088B0F5004F1E
:1026900002D145F2105088803048808845F21051B0
:1026A000884223D0A12003F089FE03F0F7FA2B49DA
:1026B000888003F0F3FA29498880084680884FF61D
:1026C000FF7101EA00202549888003F0E7FA2349D9
:1026D00089880843214988800846808845F26171CD
:1026E000884203D141F663101C4988801B488088CA
:1026F00049F24131884211D01848808845F21031A2
:1027000088420BD01548808845F21051884205D088
:102710001248808841F6631188422DD11048006824
:1027200020F00F004FF02041C1F81C010846D0F8FE
:102730001C0120F47060C1F81C010846D0F81C018F
:1027400040F003000EE0000000040240000C0240D4
:1027500000100240001402400018024028820020AD
:102760001C0100A0C1F81C010846D0F81C0140F46F
:102770000070C1F81C0128E0FE48808846F604017C
:10278000884205D0FB4880884CF2055188421CD114
:10279000F948006820F00F004FF02041C1F81C01FB
:1027A0000846D0F81C0120F47060C1F81C010846EE
:1027B000D0F81C0140F00A00C1F81C010846D0F80E
:1027C0001C0140F44060C1F81C01EA488188EBA07C
:1027D00004F0EEFAE748808849F2413188427CD122
:1027E000CF2003F0EBFD002003F0DCFDC12003F05F
:1027F000D9FD302003F0D6FDED2003F0DFFD64208D
:1028000003F0D0FD032003F0CDFD122003F0CAFD3C
:10281000812003F0C7FDE82003F0D0FD852003F000
:10282000C1FD102003F0BEFD7A2003F0BBFDCB20DC
:1028300003F0C4FD392003F0B5FD2C2003F0B2FDF8
:10284000002003F0AFFD342003F0ACFD022003F0C4
:10285000A9FDF72003F0B2FD202003F0A3FDEA203C
:1028600003F0ACFD002003F09DFD002003F09AFD75
:10287000C02003F0A3FD1B2003F094FDC12003F052
:102880009DFD012003F08EFDC52003F097FD302053
:1028900003F088FD302003F085FDC72003F08EFD96
:1028A000B72003F07FFD362003F088FD482003F0B9
:1028B00079FD3A2003F082FD552003F073FDB1202D
:1028C00003F07CFD002003F06DFD1A2003F06AFD8B
:1028D000B62003F073FD0A2000E099E003F062FDEA
:1028E000A22003F05FFDF22003F068FD002003F05A
:1028F00059FD262003F062FD012003F053FDE02086
:1029000003F05CFD0F2003F04DFD2A2003F04AFD8B
:10291000282003F047FD082003F044FD0E2003F0BB
:1029200041FD082003F03EFD542003F03BFDA920AB
:1029300003F038FD432003F035FD0A2003F032FD9B
:102940000F2003F02FFD002003F02CFD002003F0EA
:1029500029FD002003F026FD002003F023FDE120E7
:1029600003F02CFD002003F01DFD152003F01AFDDF
:10297000172003F017FD072003F014FD112003F0CA
:1029800011FD062003F00EFD2B2003F00BFD562059
:1029900003F008FD3C2003F005FD052003F002FDD7
:1029A000102003F0FFFC0F2003F0FCFC3F2003F09D
:1029B000F9FC3F2003F0F6FC0F2003F0F3FC2B2082
:1029C00003F0FCFC002003F0EDFC002003F0EAFC27
:1029D000012003F0E7FC3F2003F0E4FC2A2003F091
:1029E000EDFC002003F0DEFC002003F0DBFC002007
:1029F00003F0D8FCEF2003F0D5FC112003F0DEFC3F
:102A0000782004F073FB292003F0D8FC03F02AB9E6
:102A10005848808846F6040188427CD1112003F092
:102A2000CDFC142004F062FBD02003F0C7FC07208B
:102A300003F0B8FC422003F0B5FC1D2003F0B2FC0B
:102A4000D12003F0BBFC002003F0ACFC1A2003F003
:102A5000A9FC092003F0A6FCD22003F0AFFC012062
:102A600003F0A0FC222003F09DFCC02003F0A6FC94
:102A7000102003F097FC3B2003F094FC002003F0AF
:102A800091FC022003F08EFC112003F08BFCC5208A
:102A900003F094FC032003F085FCC82003F08EFCB7
:102AA000002003F07FFC252003F07CFC212003F0B4
:102AB00079FC052003F076FC002003F073FC0A206B
:102AC00003F070FC652003F06DFC252003F06AFC28
:102AD000772003F067FC502003F064FC0F2003F024
:102AE00061FC002003F05EFCF82003F067FC01208D
:102AF00003F058FCFE2003F061FC002003F052FCC0
:102B0000022003F04FFC202003F058FC362003F095
:102B100055FC082000E039E003F044FC3A2003F0C3
:102B20004DFC552003F03EFC2B2003F047FC002019
:102B300003F038FC002003F035FC012003F032FCE8
:102B40003F2003F02FFC2A2003F038FC002003F084
:102B500029FC002003F026FC012003F023FCDF20E9
:102B600003F020FC782004F0C1FA292003F026FCB1
:102B70004CE70000288200201C0100A0204C4344A8
:102B80002049443A25780D0A00000000FE4880885C
:102B900045F21031884240F07C87ED2003F00EFCB6
:102BA000012003F0FFFBFE2003F0FCFBEE2003F00E
:102BB00005FCDE2003F0F6FB212003F0F3FBF120FF
:102BC00003F0FCFB012003F0EDFBDF2003F0F6FB3C
:102BD000102003F0E7FBC42003F0F0FB8F2003F08C
:102BE000E1FBC62003F0EAFB002003F0DBFBE22060
:102BF00003F0D8FBE22003F0D5FBE22003F0D2FB88
:102C0000BF2003F0DBFBAA2003F0CCFBB02003F0D5
:102C1000D5FB0D2003F0C6FB002003F0C3FB0D2005
:102C200003F0C0FB002003F0BDFB112003F0BAFB52
:102C3000002003F0B7FB192003F0B4FB002003F0E1
:102C4000B1FB212003F0AEFB002003F0ABFB2D20F5
:102C500003F0A8FB002003F0A5FB3D2003F0A2FB3E
:102C6000002003F09FFB5D2003F09CFB002003F09D
:102C700099FB5D2003F096FB002003F093FBB1204D
:102C800003F09CFB802003F08DFB002003F08AFB07
:102C90008B2003F087FB002003F084FB962003F0D9
:102CA00081FB002003F07EFBB22003F087FB0020B5
:102CB00003F078FB002003F075FB022003F072FBA9
:102CC000002003F06FFB032003F06CFB002003F0F7
:102CD00069FBB32003F072FB002003F063FB0020CC
:102CE00003F060FB002003F05DFB002003F05AFBC3
:102CF000002003F057FB002003F054FB002003F0FA
:102D000051FB002003F04EFB002003F04BFB0020A2
:102D100003F048FB002003F045FB002003F042FBDA
:102D2000002003F03FFB002003F03CFB002003F0F9
:102D300039FB002003F036FB002003F033FB0020BA
:102D400003F030FB002003F02DFB002003F02AFBF2
:102D5000002003F027FB002003F024FB002003F0F9
:102D600021FB002003F01EFBB42003F027FB8B2087
:102D700003F018FB002003F015FB962003F012FB74
:102D8000002003F00FFBA12003F00CFB002003F058
:102D900009FBB52003F012FB022003F003FB002027
:102DA00003F000FB032003F0FDFA002003F0FAFA21
:102DB000042003F0F7FA002003F0F4FAB62003F041
:102DC000FDFA002003F0EEFA002003F0EBFAB72042
:102DD00003F0F4FA002003F0E5FA002003F0E2FA31
:102DE0003F2003F0DFFA002003F0DCFA5E2003F05E
:102DF000D9FA002003F0D6FA642003F0D3FA0020B9
:102E000003F0D0FA8C2003F0CDFA002003F0CAFAC8
:102E1000AC2003F0C7FA002003F0C4FADC2003F072
:102E2000C1FA002003F0BEFA702003F0BBFA0020C4
:102E300003F0B8FA902003F0B5FA002003F0B2FADC
:102E4000EB2003F0AFFA002003F0ACFADC2003F033
:102E5000A9FA002003F0A6FAB82003F0AFFA002088
:102E600003F0A0FA002003F09DFA002003F09AFA84
:102E7000002003F097FA002003F094FA002003F0FA
:102E800091FA002003F08EFA002003F08BFABA20AA
:102E900003F094FA242003F085FA002003F082FA6C
:102EA000002003F07FFA002003F07CFAC12003F039
:102EB00085FA202003F076FA002003F073FA5420FC
:102EC00003F070FA002003F06DFAFF2003F06AFAB5
:102ED000002003F067FAC22003F070FA0A2003F022
:102EE00061FA002003F05EFA042003F05BFA002090
:102EF00003F058FAC32003F061FA3C2003F052FAC1
:102F0000002003F04FFA3A2003F04CFA002003F0BF
:102F100049FA392003F046FA002003F043FA37203B
:102F200003F040FA002003F03DFA3C2003F03AFAA7
:102F3000002003F037FA362003F034FA002003F0C3
:102F400031FA322003F02EFA002003F02BFA2F2062
:102F500003F028FA002003F025FA2C2003F022FACF
:102F6000002003F01FFA292003F01CFA002003F0D0
:102F700019FA262003F016FA002003F013FA242091
:102F800003F010FA002001E02882002003F00AFA82
:102F9000242003F007FA002003F004FA232003F0B2
:102FA00001FA002003F0FEF93C2003F0FBF90020B9
:102FB00003F0F8F9362003F0F5F9002003F0F2F9F8
:102FC000322003F0EFF9002003F0ECF92F2003F09A
:102FD000E9F9002003F0E6F92C2003F0E3F90020E2
:102FE00003F0E0F9292003F0DDF9002003F0DAF91D
:102FF000262003F0D7F9002003F0D4F9242003F0B1
:10300000D1F9002003F0CEF9242003F0CBF9002001
:1030100003F0C8F9232003F0C5F9002003F0C2F93A
:10302000C42003F0CBF9622003F0BCF9002003F0C8
:10303000B9F9052003F0B6F9002003F0B3F98420B4
:1030400003F0B0F9002003F0ADF9F02003F0AAF985
:10305000002003F0A7F9182003F0A4F9002003F0E2
:10306000A1F9A42003F09EF9002003F09BF9182099
:1030700003F098F9002003F095F9502003F092F93D
:10308000002003F08FF90C2003F08CF9002003F0EE
:1030900089F9172003F086F9002003F083F99520C1
:1030A00003F080F9002003F07DF9F32003F07AF9B2
:1030B000002003F077F9E62003F074F9002003F014
:1030C00071F9C52003F07AF9322003F06BF9002082
:1030D00003F068F9442003F065F9002003F062F979
:1030E000652003F05FF9002003F05CF9762003F01F
:1030F00059F9002003F056F9882003F053F9002015
:1031000003F050F9C62003F059F9202003F04AF9E2
:10311000002003F047F9172003F044F9002003F0E2
:1031200041F9012003F03EF9002003F03BF9C720EC
:1031300003F044F9002003F035F9002003F032F9E0
:10314000002003F02FF9002003F02CF9C82003F031
:1031500035F9002003F026F9002003F023F90020C0
:1031600003F020F9002003F01DF9C92003F026F92F
:10317000002003F017F9002003F014F9002003F0F9
:1031800011F9002003F00EF9002003F00BF90020E4
:1031900003F008F9002003F005F9002003F002F91C
:1031A000002003F0FFF8002003F0FCF8002003F0FB
:1031B000F9F8002003F0F6F8002003F0F3F80020FF
:1031C00003F0F0F8002003F0EDF8002003F0EAF837
:1031D000E02003F0F3F8162003F0E4F8002003F0F9
:1031E000E1F81C2003F0DEF8002003F0DBF82120DA
:1031F00003F0D8F8002003F0D5F8362003F0D2F819
:10320000002003F0CFF8462003F0CCF8002003F0B4
:10321000C9F8522003F0C6F8002003F0C3F8642078
:1032200003F0C0F8002003F0BDF87A2003F0BAF8EC
:10323000002003F0B7F88B2003F0B4F8002003F06F
:10324000B1F8992003F0AEF8002003F0ABF8A82005
:1032500003F0A8F8002003F0A5F8B92003F0A2F8C5
:10326000002003F09FF8C42003F09CF8002003F036
:1032700099F8CA2003F096F8002003F093F8D220C2
:1032800003F090F8002003F08DF8D92003F08AF8BD
:10329000002003F087F8E02003F084F8002003F01A
:1032A00081F8F32003F07EF8002003F07BF8E120A2
:1032B00003F084F8162003F075F8002003F072F88C
:1032C0001C2003F06FF8002003F06CF8222003F0BC
:1032D00069F8002003F066F8362003F063F8002058
:1032E00003F060F8452003F05DF8002003F05AF881
:1032F000522003F057F8002003F054F8642003F044
:1033000051F8002003F04EF87A2003F04BF800202B
:1033100003F048F88B2003F045F8002003F042F852
:10332000992003F03FF8002003F03CF8A82003F0B8
:1033300039F8002003F036F8B92003F033F8002004
:1033400003F030F8C42003F02DF8002003F02AF831
:10335000CA2003F027F8002003F024F8D22003F05D
:1033600021F8002003F01EF8D82003F01BF80020FD
:1033700003F018F8E02003F015F8002003F012F82D
:10338000F32003F00FF8002003F00CF8E22003F024
:1033900015F8052003F006F8002003F003F80B20D1
:1033A00003F000F8002002F0FDFF1B2002F0FAFFFE
:1033B000002002F0F7FF342002F0F4FF002002F0BA
:1033C000F1FF442002F0EEFF002002F0EBFF4F205F
:1033D00002F0E8FF002002F0E5FF612002F0E2FFCA
:1033E000002002F0DFFF792002F0DCFF002002F075
:1033F000D9FF882002F0D6FF002002F0D3FF9720EB
:1034000002F0D0FF002002F0CDFFA62002F0CAFF9C
:10341000002002F0C7FFB72002F0C4FF002002F036
:10342000C1FFC22002F0BEFF002002F0BBFFC72098
:1034300002F0B8FF002002F0B5FFD12002F0B2FF89
:10344000002002F0AFFFD62002F0ACFF002002F017
:10345000A9FFDD2002F0A6FF002002F0A3FFF32069
:1034600002F0A0FF002002F09DFFE32002F0A6FF83
:10347000052002F097FF002002F094FF0A2002F0DE
:1034800091FF002002F08EFF1C2002F08BFF002035
:1034900002F088FF332002F085FF002002F082FF57
:1034A000442002F07FFF002002F07CFF502002F059
:1034B00079FF002002F076FF622002F073FF002007
:1034C00002F070FF782002F06DFF002002F06AFF2A
:1034D000882002F067FF002002F064FF972002F0CE
:1034E00061FF002002F05EFFA62002F05BFF0020DB
:1034F00002F058FFB72002F055FF002002F052FF03
:10350000C22002F04FFF002002F04CFFC72002F063
:1035100049FF002002F046FFD12002F043FF0020C7
:1035200002F040FFD52002F03DFF002002F03AFFFC
:10353000DD2002F037FF002002F034FFF32002F01C
:1035400031FF002002F02EFFE42002F037FF0120BF
:1035500002F028FF002002F025FF012002F022FFE8
:10356000002002F01FFF022002F01CFF002002F0EA
:1035700019FF2A2002F016FF002002F013FF3C2062
:1035800002F010FF002002F00DFF4B2002F00AFFB6
:10359000002002F007FF5D2002F004FF002002F08F
:1035A00001FF742002F0FEFE002002F0FBFE8420EA
:1035B00002F0F8FE002002F0F5FE932002F0F2FE89
:1035C000002002F0EFFEA22002F0ECFE002002F04C
:1035D000E9FEB32002F0E6FE002002F0E3FEBE208A
:1035E00002F0E0FE002002F0DDFEC42002F0DAFE70
:1035F000002002F0D7FECD2002F0D4FE002002F021
:10360000D1FED32002F0CEFE002002F0CBFEDD2062
:1036100002F0C8FE002002F0C5FEF32002F0C2FE58
:10362000002002F0BFFEE52002F0C8FE002002F0FC
:10363000B9FE002002F0B6FE002002F0B3FE00202A
:1036400002F0B0FE022002F0ADFE002002F0AAFE61
:10365000292002F0A7FE002002F0A4FE3C2002F088
:10366000A1FE002002F09EFE4B2002F09BFE0020F7
:1036700002F098FE5D2002F095FE002002F092FE1E
:10368000742002F08FFE002002F08CFE842002F0F5
:1036900089FE002002F086FE932002F083FE0020C7
:1036A00002F080FEA22002F07DFE002002F07AFEF1
:1036B000B32002F077FE002002F074FEBE2002F07C
:1036C00071FE002002F06EFEC42002F06BFE0020AE
:1036D00002F068FECD2002F065FE002002F062FEDE
:1036E000D32002F05FFE002002F05CFEDC2002F03E
:1036F00059FE002002F056FEF32002F053FE002097
:1037000002F050FEE62002F059FE112002F04AFEBF
:10371000002002F047FE342002F044FE002002F0B8
:1037200041FE562002F03EFE002002F03BFE7620D5
:1037300002F038FE002002F035FE772002F032FE63
:10374000002002F02FFE662002F02CFE002002F086
:1037500029FE882002F026FE002002F023FE992098
:1037600002F020FE002002F01DFEBB2002F01AFE37
:10377000002002F017FE992002F014FE002002F053
:1037800011FE662002F00EFE002002F00BFE552016
:1037900002F008FE002002F005FE552002F002FEB5
:1037A000002002F0FFFD452002F0FCFD002002F0A9
:1037B000F9FD432002F0F6FD002002F0F3FD442065
:1037C00002F0F0FD002002F0EDFDE72002F0F6FD32
:1037D000322002F0E7FD002002F0E4FD552002F067
:1037E000E1FD002002F0DEFD762002F0DBFD00208E
:1037F00002F0D8FD662002F0D5FD002002F0D2FDD7
:10380000672002F0CFFD002002F0CCFD672002F01F
:10381000C9FD002002F0C6FD872002F0C3FD002094
:1038200002F0C0FD992002F0BDFD002002F0BAFDBB
:10383000BB2002F0B7FD002002F0B4FD992002F099
:10384000B1FD002002F0AEFD772002F0ABFD0020BC
:1038500002F0A8FD442002F0A5FD002002F0A2FD28
:10386000562002F09FFD002002F09CFD232002F074
:1038700099FD002002F096FD332002F093FD002018
:1038800002F090FD452002F08DFD002002F08AFD3F
:10389000E82002F093FD002002F084FD002002F0F9
:1038A00081FD992002F07EFD002002F07BFD872043
:1038B00002F078FD002002F075FD882002F072FD14
:1038C000002002F06FFD772002F06CFD002002F076
:1038D00069FD662002F066FD002002F063FD88208D
:1038E00002F060FD002002F05DFDAA2002F05AFD0A
:1038F000002002F057FDBB2002F054FD002002F032
:1039000051FD992002F04EFD002002F04BFD662093
:1039100002F048FD002002F045FD552002F042FD76
:10392000002002F03FFD552002F03CFD002002F097
:1039300039FD442002F036FD002002F033FD442022
:1039400002F030FD002002F02DFD552002F02AFD8E
:10395000002002F027FDE92002F030FDAA2002F04D
:1039600021FD002002F01EFD002002F01BFD0020C2
:1039700002F018FD002002F021FDAA2002F012FD45
:10398000CF2002F01BFD002002F00CFD002002F011
:1039900009FD002002F006FD002002F003FD0020DA
:1039A00002F000FD002002F0FDFC002002F0FAFC15
:1039B000002002F0F7FC002002F0F4FC002002F0EE
:1039C000F1FC002002F0EEFC002002F0EBFC0020F5
:1039D00002F0E8FC002002F0E5FC002002F0E2FC2E
:1039E000002002F0DFFC002002F0DCFCF02002F0FE
:1039F000E5FC002002F0D6FC502002F0D3FC0020B1
:103A000002F0D0FC002002F0CDFC002002F0CAFC45
:103A1000F32002F0D3FC002002F0C4FCF92002F0F5
:103A2000CDFC062002F0BEFC102002F0BBFC2920D9
:103A300002F0B8FC002002F0B5FC3A2002F0BEFC17
:103A4000552002F0AFFC112002F0B8FC642003F016
:103A50004DFB292002F0B2FC352002F0AFFC002023
:103A600002F0A0FC512002F0A9FCFF2002F09AFC19
:103A7000532002F0A3FC2C2002F094FC552002F00D
:103A80009DFC822002F08EFC2C2002F097FC02F0BC
:103A9000E9B8FE48808845F2105188427ED1552110
:103AA0004FF4704002F0A0FCAA214FF2010002F096
:103AB0009BFC52214FF2020002F096FC08214FF2CB
:103AC000030002F091FC01214FF2040002F08CFC93
:103AD0000D214FF4304002F087FC0D214BF2010024
:103AE00002F082FC0D214BF2020002F07DFC342139
:103AF0004FF4364002F078FC34214BF2016002F0C2
:103B000073FC34214BF2026002F06EFC0D214FF485
:103B1000314002F069FC0D214BF2011002F064FC0F
:103B20000D214BF2021002F05FFC34214FF43740BC
:103B300002F05AFC34214BF2017002F055FC3421A2
:103B40004BF2027002F050FC00214FF4324002F0C0
:103B50004BFC00214BF2012002F046FC00214BF20D
:103B6000022002F041FC24214FF4384002F03CFCDA
:103B700024214BF6010002F037FC24214BF6020011
:103B800002F032FC01214FF43F4002F02DFC0F21E6
:103B90004FF4334002F028FC0F2100E0FEE34BF22B
:103BA000013002F021FC0F214BF2023002F01CFC2C
:103BB00034214FF4394002F017FC34214BF6011048
:103BC00002F012FC34214BF6021002F00DFC082129
:103BD0004FF4354002F008FC08214BF2015002F08E
:103BE00003FC08214BF2025002F0FEFB03214FF4CC
:103BF000424002F0F9FB24214FF43A4002F0F4FB7A
:103C000024214BF6012002F0EFFB24214BF6022089
:103C100002F0EAFB00214FF43C4002F0E5FB782182
:103C20004BF6014002F0E0FB00214BF6024002F0AF
:103C3000DBFB00214FF43D4002F0D6FB78214BF630
:103C4000015002F0D1FB00214BF6025002F0CCFBF8
:103C500000214FF43E4002F0C7FB64214BF60160A7
:103C600002F0C2FB00214FF4514002F0BDFB3321B2
:103C70004DF2011002F0B8FB00214DF2021002F0EB
:103C8000B3FB34214DF2031002F0AEFB00214DF2E4
:103C9000041002F0A9FB3A214DF2051002F0A4FB3A
:103CA00000214DF2061002F09FFB4A214DF2071051
:103CB00002F09AFB00214DF2081002F095FB5C2106
:103CC0004DF2091002F090FB00214DF20A1002F0B3
:103CD0008BFB81214DF20B1002F086FB00214DF28F
:103CE0000C1002F081FBA6214DF20D1002F07CFBBE
:103CF00000214DF20E1002F077FBE5214DF20F107E
:103D000002F072FB01214DF2101002F06DFB132145
:103D10004DF2111002F068FB01214DF2121002F079
:103D200063FB54214DF2131002F05EFB01214DF2B2
:103D3000141002F059FB82214DF2151002F054FBD1
:103D400001214DF2161002F04FFBCA214DF217105F
:103D500002F04AFB02214DF2181002F045FB00214F
:103D60004DF2191002F040FB02214DF21A1002F040
:103D70003BFB01214DF21B1002F036FB02214DF2FC
:103D80001C1002F031FB34214DF21D1002F02CFB0F
:103D900002214DF21E1002F027FB67214DF21F1089
:103DA00002F022FB02214DF2201002F01DFB8421C3
:103DB0004DF2211002F018FB02214DF2221002F008
:103DC00013FBA4214DF2231002F00EFB02214DF251
:103DD000241002F009FBB7214DF2251002F004FB7C
:103DE00002214DF2261002F0FFFACF214DF22710EA
:103DF00002F0FAFA02214DF2281002F0F5FADE2163
:103E00004DF2291002F0F0FA02214DF22A1002F0D0
:103E1000EBFAF2214DF22B1002F0E6FA02214DF2FC
:103E20002C1002F0E1FAFE214DF22D1002F0DCFA26
:103E300003214DF22E1002F0D7FA10214DF22F106F
:103E400002F0D2FA03214DF2301002F0CDFA332104
:103E50004DF2311002F0C8FA03214DF2321002F097
:103E6000C3FA6D214DF2331002F0BEFA00214FF477
:103E7000524002F0B9FA33214DF2012002F0B4FAB7
:103E800000214DF2022002F0AFFA01E0288200206A
:103E900034214DF2032002F0A7FA00214DF2042054
:103EA00002F0A2FA3A214DF2052002F09DFA00211B
:103EB0004DF2062002F098FA4A214DF2072002F056
:103EC00093FA00214DF2082002F08EFA5C214DF2A7
:103ED000092002F089FA00214DF20A2002F084FA4A
:103EE00081214DF20B2002F07FFA00214DF20C20CF
:103EF00002F07AFAA6214DF20D2002F075FA0021A7
:103F00004DF20E2002F070FAE5214DF20F2002F082
:103F10006BFA01214DF2102002F066FA13214DF2E6
:103F2000112002F061FA01214DF2122002F05CFA38
:103F300054214DF2132002F057FA01214DF21420C2
:103F400002F052FA82214DF2152002F04DFA0121C1
:103F50004DF2162002F048FACA214DF2172002F065
:103F600043FA02214DF2182002F03EFA00214DF2F0
:103F7000192002F039FA02214DF21A2002F034FA27
:103F800001214DF21B2002F02FFA02214DF21C20DC
:103F900002F02AFA34214DF21D2002F025FA022106
:103FA0004DF21E2002F020FA67214DF21F2002F090
:103FB0001BFA02214DF2202002F016FA84214DF264
:103FC000212002F011FA02214DF2222002F00CFA17
:103FD000A4214DF2232002F007FA02214DF2242001
:103FE00002F002FAB7214DF2252002F0FDF902217C
:103FF0004DF2262002F0F8F9CF214DF2272002F0F1
:10400000F3F902214DF2282002F0EEF9DE214DF203
:10401000292002F0E9F902214DF22A2002F0E4F908
:10402000F2214DF22B2002F0DFF902214DF22C207B
:1040300002F0DAF9FE214DF22D2002F0D5F903212C
:104040004DF22E2002F0D0F910214DF22F2002F077
:10405000CBF903214DF2302002F0C6F933214DF2A5
:10406000312002F0C1F903214DF2322002F0BCF9F7
:104070006D214DF2332002F0B7F900214FF4534087
:1040800002F0B2F933214DF2013002F0ADF9002116
:104090004DF2023002F0A8F934214DF2033002F063
:1040A000A3F900214DF2043002F09EF93A214DF2BD
:1040B000053002F099F900214DF2063002F094F932
:1040C0004A214DF2073002F08FF900214DF20830FD
:1040D00002F08AF95C214DF2093002F085F90021E5
:1040E0004DF20A3002F080F981214DF20B3002F0DE
:1040F0007BF900214DF20C3002F076F9A6214DF249
:104100000D3002F071F900214DF20E3002F06CF921
:10411000E5214DF20F3002F067F901214DF2103028
:1041200002F062F913214DF2113002F05DF9012124
:104130004DF2123002F058F954214DF2133002F0D2
:1041400053F901214DF2143002F04EF982214DF263
:10415000153002F049F901214DF2163002F044F910
:10416000CA214DF2173002F03FF902214DF218300A
:1041700002F03AF900214DF2193002F035F902212E
:104180004DF21A3002F030F901214DF21B3002F0ED
:104190002BF902214DF21C3002F026F934214DF2A8
:1041A0001D3002F021F902214DF21E3002F01CF9FF
:1041B00067214DF21F3002F017F902214DF2203035
:1041C00002F012F984214DF2213002F00DF90221A2
:1041D0004DF2223002F008F9A4214DF2233002F012
:1041E00003F902214DF2243002F0FEF8B7214DF21E
:1041F000253002F0F9F802214DF2263002F0F4F8F1
:10420000CF214DF2273002F0EFF802214DF2283095
:1042100002F0EAF8DE214DF2293002F0E5F8022141
:104220004DF22A3002F0E0F8F2214DF22B3002F08C
:10423000DBF802214DF22C3002F0D6F8FE214DF2CF
:104240002D3002F0D1F803214DF22E3002F0CCF8DF
:1042500010214DF22F3002F0C7F803214DF230301B
:1042600002F0C2F833214DF2313002F0BDF80321E3
:104270004DF2323002F0B8F86D214DF2333002F0D9
:10428000B3F800214FF4544002F0AEF833214DF260
:10429000014002F0A9F800214DF2024002F0A4F81A
:1042A00034214DF2034002F09FF800214DF204400A
:1042B00002F09AF83A214DF2054002F095F80021FB
:1042C0004DF2064002F090F84A214DF2074002F00C
:1042D0008BF800214DF2084002F086F85C214DF287
:1042E000094002F081F800214DF20A4002F07CF80A
:1042F00081214DF20B4002F077F800214DF20C4085
:1043000002F072F8A6214DF20D4002F06DF8002186
:104310004DF20E4002F068F8E5214DF20F4002F038
:1043200063F801214DF2104002F05EF813214DF2C6
:10433000114002F059F801214DF2124002F054F8F8
:1043400054214DF2134002F04FF801214DF2144078
:1043500002F04AF882214DF2154002F045F80121A1
:104360004DF2164002F040F8CA214DF2174002F01B
:104370003BF802214DF2184002F036F800214DF2D0
:10438000194002F031F802214DF21A4002F02CF8E7
:1043900001214DF21B4002F027F800E004E3022166
:1043A0004DF21C4002F020F834214DF21D4002F085
:1043B0001BF802214DF21E4002F016F867214DF263
:1043C0001F4002F011F802214DF2204002F00CF8DB
:1043D00084214DF2214002F007F802214DF22240E3
:1043E00002F002F8A4214DF2234001F0FDFF02216A
:1043F0004DF2244001F0F8FFB7214DF2254001F0C5
:10440000F3FF02214DF2264001F0EEFFCF214DF2E5
:10441000274001F0E9FF02214DF2284001F0E4FFBE
:10442000DE214DF2294001F0DFFF02214DF22A404A
:1044300001F0DAFFF2214DF22B4001F0D5FF02210D
:104440004DF22C4001F0D0FFFE214DF22D4001F045
:10445000CBFF03214DF22E4001F0C6FF10214DF29B
:104460002F4001F0C1FF03214DF2304001F0BCFFAD
:1044700033214DF2314001F0B7FF03214DF23240BC
:1044800001F0B2FF6D214DF2334001F0ADFF00218C
:104490004FF4554001F0A8FF33214DF2015001F0D7
:1044A000A3FF00214DF2025001F09EFF34214DF296
:1044B000035001F099FF00214DF2045001F094FFE8
:1044C0003A214DF2055001F08FFF00214DF20650C8
:1044D00001F08AFF4A214DF2075001F085FF0021CB
:1044E0004DF2085001F080FF5C214DF2095001F0BF
:1044F0007BFF00214DF20A5001F076FF81214DF241
:104500000B5001F071FF00214DF20C5001F06CFFD7
:10451000A6214DF20D5001F067FF00214DF20E5023
:1045200001F062FFE5214DF20F5001F05DFF012126
:104530004DF2105001F058FF13214DF2115001F0CF
:1045400053FF01214DF2125001F04EFF54214DF264
:10455000135001F049FF01214DF2145001F044FFC6
:1045600082214DF2155001F03FFF01214DF216500E
:1045700001F03AFFCA214DF2175001F035FF022138
:104580004DF2185001F030FF00214DF2195001F0AA
:104590002BFF02214DF21A5001F026FF01214DF2AE
:1045A0001B5001F021FF02214DF21C5001F01CFFB5
:1045B00034214DF21D5001F017FF02214DF21E5023
:1045C00001F012FF67214DF21F5001F00DFF022193
:1045D0004DF2205001F008FF84214DF2215001F0EE
:1045E00003FF02214DF2225001F0FEFEA4214DF204
:1045F000235001F0F9FE02214DF2245001F0F4FEA7
:10460000B7214DF2255001F0EFFE02214DF2265068
:1046100001F0EAFECF214DF2275001F0E5FE022124
:104620004DF2285001F0E0FEDE214DF2295001F05C
:10463000DBFE02214DF22A5001F0D6FEF2214DF2AE
:104640002B5001F0D1FE02214DF22C5001F0CCFE96
:10465000FE214DF22D5001F0C7FE03214DF22E50E8
:1046600001F0C2FE10214DF22F5001F0BDFE0321DA
:104670004DF2305001F0B8FE33214DF2315001F0CF
:10468000B3FE03214DF2325001F0AEFE6D214DF22A
:10469000335001F0A9FE00214FF4564001F0A4FE72
:1046A00033214DF2016001F09FFE00214DF20260C6
:1046B00001F09AFE34214DF2036001F095FE0021D5
:1046C0004DF2046001F090FE3A214DF2056001F0D8
:1046D0008BFE00214DF2066001F086FE4A214DF26C
:1046E000076001F081FE00214DF2086001F07CFEC0
:1046F0005C214DF2096001F077FE00214DF20A6065
:1047000001F072FE81214DF20B6001F06DFE00217F
:104710004DF20C6001F068FEA6214DF20D6001F033
:1047200063FE00214DF20E6001F05EFEE5214DF2C8
:104730000F6001F059FE01214DF2106001F054FEAE
:1047400013214DF2116001F04FFE01214DF2126074
:1047500001F04AFE54214DF2136001F045FE0121A3
:104760004DF2146001F040FE82214DF2156001F01F
:104770003BFE01214DF2166001F036FECA214DF2DA
:10478000176001F031FE02214DF2186001F02CFE9D
:1047900000214DF2196001F027FE02214DF21A604E
:1047A00001F022FE01214DF21B6001F01DFE0221ED
:1047B0004DF21C6001F018FE34214DF21D6001F035
:1047C00013FE02214DF21E6001F00EFE67214DF234
:1047D0001F6001F009FE02214DF2206001F004FE8D
:1047E00084214DF2216001F0FFFD02214DF2226093
:1047F00001F0FAFDA4214DF2236001F0F5FD022144
:104800004DF2246001F0F0FDB7214DF2256001F07A
:10481000EBFD02214DF2266001F0E6FDCF214DF2C5
:10482000276001F0E1FD02214DF2286001F0DCFD7E
:10483000DE214DF2296001F0D7FD02214DF22A6000
:1048400001F0D2FDF2214DF22B6001F0CDFD0221ED
:104850004DF22C6001F0C8FDFE214DF22D6001F0FB
:10486000C3FD03214DF22E6001F0BEFD10214DF27B
:104870002F6001F0B9FD03214DF2306001F0B4FD6D
:1048800033214DF2316001F0AFFD03214DF2326072
:1048900001F0AAFD6D214DF2336001F0A5FD552117
:1048A0004FF4704001F0A0FDAA214FF2010001F089
:1048B0009BFD52214FF2020001F096FD08214FF2BC
:1048C000030001F091FD00214FF2040001F08CFD86
:1048D000CC214FF4314001F087FD00214BF2011053
:1048E00001F082FD05214FF4364001F07DFD70217D
:1048F0004FF4374001F078FD70214BF2017001F068
:1049000073FD01214FF4384001F06EFD03214BF699
:10491000010001F069FD03214BF6020001F064FD86
:1049200003214BF6030001F05FFD02214FF43C40F0
:1049300001F05AFD00214BF6014001F055FD002128
:104940004BF6024001F050FDD0214FF4494001F0F8
:104950004BFD02214CF6011001F046FD50214CF6B2
:10496000021001F041FD50214CF6031001F03CFD16
:1049700050214CF6041001F037FD00214FF4545043
:1049800001F032FD55214FF4685001F02DFD4FF438
:10499000885001F013FD782002F0C4FB4FF424503E
:1049A00001F00CFD01F05EB9FE48808849F2253126
:1049B00088427DD147F6F001E52001F015FD4FF466
:1049C0008071012001F010FD4FF4E061022001F040
:1049D0000BFD41F23001032001F006FD002104200F
:1049E00001F002FD40F20221082001F0FDFC00214F
:1049F000092001F0F9FC00210A2001F0F5FC00215A
:104A00000C2001F0F1FC00210D2001F0EDFC002153
:104A10000F2001F0E9FC0021102001F0E5FC072146
:104A2000112001F0E1FC0021122001F0DDFC002149
:104A3000132001F0D9FC0021072001F0D5FC41F240
:104A40009061102001F0D0FC40F22721112001F0EC
:104A5000CBFC9D21122001F0C7FC4FF4C85113205C
:104A600001F0C2FC2521292001F0BEFC0D212B20E4
:104A700001F0BAFC0721302001F0B6FC40F203310E
:104A8000312001F0B1FC0321322001F0ADFC40F2F5
:104A90000621352001F0A8FC0821362001F0A4FCF5
:104AA00040F20641372001F09FFC4FF4417100E0D5
:104AB00058E0382001F098FC0721392001F094FCDF
:104AC00040F202613C2001F08FFC08213D2001F002
:104AD0008BFC0021502001F087FCEF21512001F0D8
:104AE00083FC0021522001F07FFC40F23F11532053
:104AF00001F07AFC4FF42741602001F075FC0121A0
:104B0000612001F071FC00216A2001F06DFC0021A0
:104B1000802001F069FC0021812001F065FC00216A
:104B2000822001F061FC0021832001F05DFC002166
:104B3000842001F059FC0021852001F055FC102152
:104B4000902001F051FC4FF4C061922001F04CFC28
:104B500040F23311072001F047FC2221002001F030
:104B600043FC1FE78F48808849F2283188427DD175
:104B700041F28F01EC2001F037FC41F23421EF20AB
:104B800001F032FC4FF48071012001F02DFC4FF454
:104B9000E061022001F028FC41F23001032001F025
:104BA00023FC0021042001F01FFC40F20221082018
:104BB00001F01AFC0021092001F016FC00210A2056
:104BC00001F012FC01210C2001F00EFC00210D204F
:104BD00001F00AFC00210F2001F006FC002110204A
:104BE00001F002FC0721112001F0FEFB0021122040
:104BF00001F0FAFB0021132001F0F6FB0121072050
:104C000001F0F2FB322002F071FA41F290411020E3
:104C100001F0EAFB40F22721112001F0E5FB3220F0
:104C200002F064FA8A21122001F0DEFB322002F049
:104C30005DFA4FF4D051132001F0D6FB0621292054
:104C400001F0D2FB0D212B2001F0CEFB322002F02F
:104C50004DFA0021202001F0C7FB0021212001F0A6
:104C6000C3FB322002F042FA002100E075E0302060
:104C700001F0BAFB40F20461312001F0B5FB40F2D3
:104C80000531322001F0B0FB0021352001F0ACFBF2
:104C900040F60941362001F0A7FB4FF4017137209F
:104CA00001F0A2FB40F20131382001F09DFB40F2FF
:104CB0000771392001F098FB00213C2001F094FBA2
:104CC00040F60A213D2001F08FFB322002F00EFA5F
:104CD0000021502001F088FBEF21512001F084FBDE
:104CE0000021522001F080FB40F23F11532001F0DF
:104CF0007BFB4FF42741602001F076FB012161200E
:104D000001F072FB00216A2001F06EFB002180207F
:104D100001F06AFB0021812001F066FB0021822066
:104D200001F062FB0021832001F05EFB0021842062
:104D300001F05AFB0021852001F056FB1021902044
:104D400001F052FB4FF4C061922001F04DFB40F2A4
:104D50003311072001F048FB24E61248808849F20D
:104D6000203188427ED10021084601F03DFB4FF4FE
:104D70008071012001F038FB4FF4E061022001F066
:104D800033FB41F23001032001F02EFB002104200F
:104D900001F02AFB40F20221082001F025FB00214E
:104DA000092001E02882002001F01EFB00210A20DA
:104DB00001F01AFB01210C2001F016FB00210D204F
:104DC00001F012FB00210F2001F00EFB322002F057
:104DD0008DF940F20111072001F006FB322002F0AC
:104DE00085F94FF48651102001F0FEFA07211120B9
:104DF00001F0FAFA4FF48871122001F0F5FA4FF43D
:104E00003061132001F0F0FA0021292001F0ECFAC2
:104E100044F210012B2001F0E7FA0021502001F0AC
:104E2000E3FAEF21512001F0DFFA0021522001F0D6
:104E3000DBFA40F23F11532001F0D6FA4FF41C5137
:104E4000602001F0D1FA0121612001F0CDFA0021AA
:104E50006A2001F0C9FA0021802001F0C5FA002182
:104E6000812000E030E001F0BFFA0021822001F053
:104E7000BBFA0021832001F0B7FA0021842001F061
:104E8000B3FA0021852001F0AFFA1021902001F043
:104E9000ABFA0021922001F0A7FA0121932001F042
:104EA000A3FA4FF48871952001F09EFA0021972013
:104EB00001F09AFA0021982001F096FA40F273115D
:104EC000072001F091FA6DE5FE48808849F2313102
:104ED00088427DD141F21401E72001F085FA4FF4B8
:104EE0008071012001F080FA4FF40071022001F07E
:104EF0007BFA41F23801032001F076FA40F20221F8
:104F0000082001F071FA0021092001F06DFA00215A
:104F10000A2001F069FA00210C2001F065FA002155
:104F20000D2001F061FA00210F2001F05DFA00214F
:104F3000102001F059FA0721112001F055FA002143
:104F4000122001F051FA0021132001F04DFAC8207F
:104F500002F0CCF841F29061102001F045FA40F2E5
:104F60002721112001F040FA322002F0BFF80C2175
:104F7000122001F039FA322002F0B8F84FF4006143
:104F8000132001F031FA1121292001F02DFA0B2113
:104F90002B2001F029FA322002F0A8F8002120206D
:104FA00001F022FA40F23F11212001F01DFA002108
:104FB000302001F019FA4FF48371312001F014FA16
:104FC0000021322001F010FA4FF40171352000E089
:104FD00064E001F009FA41F20A61362001F004FAB6
:104FE00040F20771372001F0FFF94FF48371382048
:104FF00001F0FAF940F20771392001F0F5F940F2B9
:1050000002413C2001F0F0F940F60F413D2001F053
:10501000EBF90021502001F0E7F9EF21512001F0D8
:10502000E3F90021522001F0DFF940F23F11532053
:1050300001F0DAF94FF41C51602001F0D5F901219B
:10504000612001F0D1F900216A2001F0CDF90021A1
:10505000802001F0C9F90021812001F0C5F900216B
:10506000822001F0C1F90021832001F0BDF9002167
:10507000842001F0B9F90021852001F0B5F9102153
:10508000902001F0B1F94FF4C061922001F0ACF929
:1050900040F23311072001F0A7F983E489488088A2
:1050A00045F2084188427DD14FF48071012001F022
:1050B0009BF94FF4E061022001F096F941F23001D2
:1050C000032001F091F90021042001F08DF940F254
:1050D0000721082001F088F90021092001F084F956
:1050E00000210A2001F080F900210C2001F07CF958
:1050F00000210D2001F078F900210F2001F074F952
:10510000142001F0F3FF41F2B061102001F06CF9BE
:105110000121112001F068F90121172001F064F943
:105120004FF49C71122001F05FF94FF400611320DD
:1051300001F05AF90921292001F056F909212A2004
:1051400001F052F90021A42001F04EF90021502075
:1051500001F04AF9EF21512001F046F900215220D7
:1051600001F042F940F23F11532001F03DF94FF4B4
:105170001C51602001F038F90121612001F034F95F
:1051800000216A2001F030F90021802001F02CF983
:105190000021812001F028F90021822001F024F96A
:1051A000002100E024E0832001F01EF9002184208A
:1051B00001F01AF90021852001F016F91321902041
:1051C00001F012F90021922001F00EF90321932041
:1051D00001F00AF94FF48871952001F005F940F2C9
:1051E0007311072001F000F9322001F07FFFB8E4CD
:1051F0003448808841F2055188427DD10021072042
:1052000001F0F2F8322001F071FF4FF48E7112209C
:1052100001F0EAF80121A42001F0E6F80F210820AE
:1052200001F0E2F808210A2001F0DEF808210D2043
:1052300001F0DAF840F20771302001F0D5F80721CB
:10524000312001F0D1F840F20361322001F0CCF8B6
:105250004FF4E061332001F0C7F840F2022134201E
:1052600001F0C2F80221352001F0BEF841F60F71BD
:10527000362001F0B9F840F20771372001F0B4F898
:105280000021382001F0B0F80021392001F0ACF8FD
:1052900040F207713A2001F0A7F800213B2001F00D
:1052A000A3F807213C2001F09FF800213D2001F0E8
:1052B0009BF8322001F01AFF0121072001F094F839
:1052C000012101E028820020172001F08DF8322012
:1052D00001F00CFF4FF4BD51102001F085F840F2B1
:1052E0001721112001F080F84FF48F71122001F086
:1052F0007BF84FF4706100E098E0132001F074F83F
:1053000000212A2001F070F80A21292001F06CF810
:105310004FF49F71122001F067F80021502001F036
:1053200063F8EF21512001F05FF80021522001F0D5
:105330005BF840F23F11532001F056F84FF41C5136
:10534000602001F051F80121612001F04DF80021A9
:105350006A2001F049F80021802001F045F8002181
:10536000812001F041F80021822001F03DF8002168
:10537000832001F039F80021842001F035F8002164
:10538000852001F031F81321902001F02DF84FF421
:105390004071922001F028F80521932001F024F8B3
:1053A0000021952001F020F80021972001F01CF841
:1053B0000021982001F018F84FF48071012001F0CD
:1053C00013F84FF4E061022001F00EF841F23801C9
:1053D000032001F009F80021042001F005F8002164
:1053E0000C2001F001F800210F2000F0FDFF00214A
:1053F000202000F0F9FF0021212000F0F5FF2121FD
:10540000072000F0F1FF142001F070FE6121072059
:1054100000F0EAFF142001F069FE40F2731107204A
:1054200000F0E2FF142001F061FE95E4FE48808860
:105430004BF2055188427CD10021084600F0D4FF90
:105440000021084600F0D0FF0021084600F0CCFF04
:105450000021084600F0C8FF0121A42000F0C4FF8D
:10546000142001F043FE4FF41C51602000F0BCFFFB
:1054700040F20221082000F0B7FF4FF40571302000
:1054800000F0B2FF43F21571312000F0ADFF40F2A1
:105490000461322000F0A8FF40F61661332000F0CE
:1054A000A3FF42F21121342000F09EFF4FF4A851D7
:1054B000352000F099FF48F20751362000F094FFA4
:1054C00041F20741372000F08FFF41F203413820BD
:1054D00000F08AFF2021392000F086FF1A21902059
:1054E00000F082FF0021102000F07EFF0721112034
:1054F00000F07AFF0021122000F076FF0021132037
:1055000000F072FF142001F0F1FD4FF4E66110206D
:1055100000F06AFF40F23711112000F065FF1420FF
:1055200001F0E4FD4FF4DC71122000F05DFF142067
:1055300000E085E001F0DAFD4FF47061132000F027
:1055400053FF80212A2000F04FFF4821292000F03E
:105550004BFF142001F0CAFD4FF48071012000F0D0
:1055600043FF4FF4E061022000F03EFF41F23801BA
:10557000032000F039FF40F20221082000F034FF40
:1055800000210A2000F030FF00210C2000F02CFF49
:1055900000210D2000F028FF30210E2000F024FF14
:1055A0000021502000F020FFEF21512000F01CFFCF
:1055B0000021522000F018FF40F23F11532000F06C
:1055C00013FF4FF41C51602000F00EFF01216120F9
:1055D00000F00AFF00216A2000F006FF1121902050
:1055E00000F002FF4FF4C061922000F0FDFE40F297
:1055F0000241932000F0F8FE0221942000F0F4FE16
:10560000142001F073FD0121072000F0EDFE1420AD
:1056100001F06CFD6121072000F0E6FE40F27311FD
:10562000072000F0E1FE0021202000F0DDFE002137
:10563000212000F0D9FE2221002000F0D5FE11E348
:10564000794880884CF2055188427CD10021084677
:1056500000F0CAFE0021084600F0C6FE142001F04A
:1056600045FD0021084600F0BFFE0021084600F07D
:10567000BBFE0021084600F0B7FE0021084600F0FE
:10568000B3FE0121A42000F0AFFE142001F02EFD96
:105690004FF41C51602000F0A7FE40F606010820E0
:1056A00000F0A2FE40F20371302000F09DFE0121C7
:1056B000312000F099FE0421322000F095FE4FF4D5
:1056C0008171332000F090FE4FF44071342000F0DF
:1056D0008BFE40F20311352000F086FE1F2136209C
:1056E00000F082FE40F20371372000F07DFE0121C0
:1056F000382000F079FE0421392000F075FE1521D4
:10570000902000F071FE4FF48261102000F06CFEDA
:1057100040F24721112000F067FE4FF4DE711220A5
:1057200000F062FE4FF46061132000F05DFE78200F
:1057300001F0DCFC4FF48071012000F055FE4FF4C5
:105740000071022000E052E000F04EFE41F2300114
:10575000032000F049FE08210A2000F045FE002148
:105760000C2000F041FE20210E2000F03DFE002123
:105770000F2000F039FE0021202000F035FE00212E
:10578000212000F031FE3D212A2000F02DFE1420C2
:1057900001F0ACFC2D21292000F026FE0021502034
:1057A00000F022FE4DF2EF01512000F01DFE00211D
:1057B000522000F019FE40F23F11532000F014FE79
:1057C0000021612000F010FE00216A2000F00CFE94
:1057D0004FF44071922000F007FE0521932000F065
:1057E00003FE4FF48071072000F0FEFD3AE20E4800
:1057F000808844F2315188427ED10121002000F09E
:10580000F3FD0A2001F072FC41F22861102000F043
:10581000EBFD0E21122000F0E7FD40F639211320A8
:1058200000F0E2FD0A2001E02882002001F05EFC89
:105830004021112000F0D8FD5021152000F0D4FDAA
:105840000A2001F053FC1E21122000F0CDFD0A2099
:1058500001F04CFC4FF4B151102000F0C5FD42F6B0
:105860003921132000F0C0FD0A2001F03FFC4FF465
:105870008071012000F0B8FD4FF44071022000F06B
:10588000B3FD41F23801032000F0AEFD40F20221E9
:10589000082000F0A9FD08210A2000F0A5FD002144
:1058A000302000F0A1FD40F20241312000F09CFDCB
:1058B0004FF48371322000F097FD40F20351332002
:1058C00000F092FD4FF48271342000F08DFD40F223
:1058D0000131352000F088FD40F20771362000F0DC
:1058E00083FD40F20531372000F07EFD4FF4027158
:1058F000382000F079FD00E03EE040F60B713920E1
:1059000000F072FD0221412000F06EFD4FF41C51A9
:10591000602000F069FD0121612000F065FD4FF479
:105920000471902000F060FD4FF48571922000F02A
:105930005BFD0421932000F057FD4FF48071A020FF
:1059400000F052FD0121072000F04EFD212107202B
:1059500000F04AFD2321072000F046FD33210720F7
:1059600000F042FD40F23311072000F03DFD002120
:10597000A02000F039FD75E1C048808844F235511F
:1059800088427CD13021152000F02EFD10219A2074
:1059900000F02AFD2021112000F026FD43F22841CD
:1059A000102000F021FD0221122000F01DFD41F227
:1059B0003801132000F018FD282001F097FB122178
:1059C000084600F011FD282001F090FB43F2204131
:1059D000102000F009FD43F23801132000F004FD0F
:1059E000462001F083FB0021302000F0FDFC40F256
:1059F0000241312000F0F8FC40F20731322000F083
:105A0000F3FC4FF44171332000F0EEFC042134200C
:105A100000F0EAFC40F20141352000F0E5FC40F2E4
:105A20000771362000F0E0FC40F20531372000F02D
:105A3000DBFC4FF4C261382000F0D6FC4FF4C261A9
:105A4000392000F0D1FC4FF48071012000F0CCFC33
:105A50004FF44071022000F0C7FC41F230010320F6
:105A600000F0C2FC40F60801082000F0BDFC08214F
:105A70000A2000F0B9FC4FF41C51602000E033E034
:105A800000F0B2FC0121612000F0AEFC4FF49F71E8
:105A9000902000F0A9FC4FF48071922000F0A4FC4B
:105AA0004FF48071932000F09FFC4FF44051A020F0
:105AB00000F09AFC1021A32000F096FC01210720A1
:105AC00000F092FC2121072000F08EFC232107200A
:105AD00000F08AFC3321072000F086FC40F23311ED
