:020000040800F2
:10000000008700209D010008B9610008FB1D000861
:10001000B5610008C51300082B6A00080000000045
:10002000000000000000000000000000F563000870
:10003000C119000800000000496200084D65000871
:10004000B7010008B7010008B7010008B7010008B0
:10005000B7010008B7010008B7010008B7010008A0
:10006000C5190008FD190008311A0008B701000879
:10007000B7010008B7010008B7010008B701000880
:10008000B7010008B7010008B7010008B701000870
:10009000B7010008B7010008B7010008B701000860
:1000A000B7010008B7010008B7010008B701000850
:1000B000B7010008B7010008B7010008B701000840
:1000C000B7010008B7010008B7010008B701000830
:1000D000B70100080D680008B7010008B701000863
:1000E000B7010008B7010008B7010008B701000810
:1000F000B7010008B7010008B7010008B701000800
:10010000B7010008B7010008B7010008B7010008EF
:10011000B7010008B7010008B7010008B7010008DF
:100120007D140008B7010008B7010008B7010008F6
:10013000B7010008B7010008B7010008B7010008BF
:10014000B7010008B7010008B7010008B7010008AF
:10015000B7010008B7010008B7010008B70100089F
:10016000B7010008B7010008B7010008B70100088F
:10017000B7010008B7010008B7010008B70100087F
:10018000B7010008B7010008DFF80CD000F03CFF11
:1001900000480047E57100080087002006488047B6
:1001A00006480047FEE7FEE7FEE7FEE7FEE7FEE75C
:1001B000FEE7FEE7FEE7FEE751650008890100085B
:1001C0009FED3D0A5FEA920C57D000BFD0ED000AC8
:1001D00090ED011A0B1D60EEA00A083041EE010AF5
:1001E000F5EEC00AF1EE10FAA6BFB1EEE01A81ED0D
:1001F000001A81ED000AD0ED000A90ED011A191DD8
:1002000060EEA00A083041EE010AF5EEC00AF1EEF8
:1002100010FAA6BFB1EEE01A83ED001A83ED000AD2
:10022000D0ED000A90ED011A0B1D60EEA00A083017
:1002300041EE010AF5EEC00AF1EE10FAA6BFB1EEEA
:10024000E01A81ED001A81ED000A90ED001AD0ED60
:10025000010A191D21EE011A083000EEA01AB5EEB0
:10026000C01AF1EE10FAA6BFF1EEC10AC3ED000A02
:1002700083ED000ABCF1010CA8D112F0030208BF03
:10028000704700BFD0ED000A90ED011A0B4660EEFA
:10029000A00A091D083041EE010AF5EEC00AF1EE90
:1002A00010FAA6BFB1EEE01A83ED001A83ED000A42
:1002B000521EE7D170470000000000002DE9F04F0A
:1002C0008D082DED048B82B00026AC463446019596
:1002D00006EB0C0909EB0C0A0AEB0C0800EBC6074D
:1002E00000EBC90900EBCA0A00EBC80897ED003A19
:1002F000D9ED003ADAED006A98ED006A97ED010A4F
:10030000DAED014A33EE265A73EE860A99ED014A78
:10031000D8ED015A30EE241A4FEA440B02EBCB0E13
:1003200070EE644A74EE251A35EE200A9EED002A1E
:10033000DEED012A87ED000A31EE210A73EEC63A9E
:1003400034EE656A87ED010A35EE600A33EE663AEF
:1003500071EE610A02EBC40774EEE35A33EE064A0B
:1003600097ED005A73EEA41AD7ED014A33EE461A00
:1003700024EE056A0BEB040725EE855A02EBC7074E
:1003800060EE026A65EEA45A24EE244A97ED003A24
:10039000D7ED013A60EEA24A20EE822A21EE037ADE
:1003A00020EE220A61EEA30A21EE833A61EE231ABF
:1003B00076EEA42A32EE400A36EE251A75EE443A5D
:1003C000C9ED002A77EE200A89ED010A73EE611A61
:1003D0008AED001ACAED013AC8ED000AC8ED011A0B
:1003E0001C446D1E06F101067FF472AF4FF6FF74D8
:1003F00004EA830B019B0093042B7CD966464FEAE9
:100400009C0C4FF00008C146ACF1010E4FEA4803C6
:1004100003EB080402EBC30302EBC80593ED003ABB
:10042000D3ED014A02EBC40395ED005AD5ED015A14
:1004300093ED006A93ED014AD8444B4603EB0C045C
:1004400004EB0C0707EB0C0A00EBC30500EBC70736
:1004500000EBC40400EBCA0AD5ED003A97ED007A30
:10046000D4ED008A9AED008A95ED010AD4ED010AD7
:10047000D7ED017ADAED011A33EEC72A70EE676A1A
:1004800070EEE12A33EE877A78EE883A30EE270A6A
:1004900038EEC81A70EEA11A72EE227A32EE622A93
:1004A00077EE232A70EE618A36EEC18A30EE210A99
:1004B00077EE630A31EE261AC5ED002A85ED010AB2
:1004C00028EE050A67EE856A28EE258A20EE837AF3
:1004D00020EEA49A68EE831A62EE062A61EE063ACE
:1004E00062EE040A67EEA57A68EEA48A21EE041A89
:1004F00036EE882A00E027E077EE286A71EEC91A06
:1005000030EE670AC4ED006A32EE811AC4ED011ABA
:1005100073EEE00A87ED002A87ED010A8AED001AE2
:100520003344CAED010A8B4288D309F10109F14530
:100530007FF66CAF4FF6FF7303EA8B0B009B9B08B3
:100540000093042B3FF65AAFDDF8041090ED000A3B
:10055000D0ED042A90ED025A90ED031AD0ED064A30
:1005600090ED073A30EE222AD0ED011AD0ED050ABF
:1005700075EE243A31EE034A30EE620A71EEA02A9B
:1005800031EE431A32EE233A71EEE00A75EE641A48
:1005900072EE844A32EE632A72EEC43A80ED003A7B
:1005A00070EE012AC0ED014A30EEE14A80ED022AE8
:1005B00030EE410AC0ED033A71EEA00AC0ED042A04
:1005C00080ED054A80ED060AC0ED070A2030491E7D
:1005D000BCD102B0BDEC048BBDE8F08F2DE9F04F2B
:1005E0004FEA910A2DED048B82B00024D446A04638
:1005F000CDF804A004EB0C0505EB0C0606EB0C098A
:1006000000EBC40700EBC60600EBC50500EBC9090B
:10061000D7ED011AD6ED012A95ED006AD9ED006AF1
:10062000D7ED005A96ED007AD5ED010A99ED011A41
:1006300036EE262A71EEA23A35EE873A71EEE21ACC
:1006400030EE815A70EEC12A4FEA480B02EBCB0E16
:1006500073EE020A9EED004ADEED014AC7ED000A84
:1006600073EE850A36EE666A75EEC75AC7ED010A63
:1006700033EE422A02EBC80731EE861A33EEC53A52
:1006800071EEC61A97ED006A97ED015A75EEE20A0F
:100690000BEB080702EBC70775EEA22AD7ED005A4D
:1006A000D7ED013A60EE866A22EE047A62EEA57A10
:1006B00023EE044A21EE066A61EEA55A60EE850A31
:1006C00023EE243A22EE242A21EE051A61EEA31A23
:1006D00062EEA32A76EE203A37EE433A74EE020A2F
:1006E00036EEC11A85ED003A77EEE11AC5ED010A42
:1006F00035EEA22A86ED001AC6ED013AC9ED001AC0
:10070000641C89ED012A9844BAF1010A7FF472AFA2
:100710004FF6FF7404EA830B019B0093042B7CD9F2
:1007200066464FEA9C0C4FF00008C146ACF1010E42
:100730004FEA480303EB080402EBC30302EBC805CE
:10074000D3ED003A93ED017A02EBC403D5ED006AD4
:10075000D5ED015AD3ED004A93ED013AD8444B460A
:1007600003EB0C0404EB0C0707EB0C0A00EBC305CE
:1007700000EBC70700EBC40400EBCA0A95ED012AA1
:1007800097ED018A95ED001AD4ED008AD4ED017A37
:1007900097ED009ADAED001ADAED010A32EE485AC6
:1007A00071EE492A38EEE14A32EE082A37EEA08A85
:1007B00037EEE06A78EEA11A31EE091A75EE048A76
:1007C00072EEC67A72EE862A71EE610A31EE211A55
:1007D00035EE444A32EE489A85ED001A32EE081A98
:1007E00028EEA66A27EEA65A68EEA58A85ED011ABC
:1007F00020EEA31A69EE231A22EEA42A24EE248AFC
:1008000067EEA57A29EE079A60EE870A24EE034A7E
:1008100062EE832A35EE685A00E027E036EE276A5A
:1008200071EE497A31EEA01A72EE440AC4ED007AF4
:1008300084ED011A78EE221A87ED005A87ED016ADD
:10084000CAED000A3344CAED011A8B4288D309F17C
:100850000109F1457FF66CAF4FF6FF7303EA8B0B8E
:10086000009B9B080093042B3FF65AAFDDF8041061
:1008700090ED003AD0ED044AD0ED032A90ED071A2E
:1008800090ED024AD0ED061AD0ED013AD0ED050AFE
:1008900033EE242A72EE815A33EE643A34EE215A52
:1008A00073EEA04A73EEE03A32EEC11A74EE610ABA
:1008B00032EE454A72EE052A74EEA51A34EEE55A78
:1008C00073EE414A33EEA02A33EE011A33EEE03ADA
:1008D00062EE805A61EE800A64EE003A65EE002A0C
:1008E000C0ED005A64EE801AC0ED010A22EE002A23
:1008F000C0ED023A21EE004AC0ED032A23EE001AB1
:10090000C0ED041A80ED052A80ED064A80ED071A35
:100910002030491EACD102B0BDEC048BBDE8F08F95
:1009200070B504460D4680782188A3896268012845
:100930000ED02846FFF7C2FCE078012818BF70BD32
:10094000E28921882846A368BDE8704000F066B8B7
:1009500094ED040A2846FFF741FEEDE710B401804C
:10096000234C446082704FF0000CC370B1F5807F5F
:1009700020D004DC10292FD0402923D005E0B1F588
:10098000806F0FD0B1F5805F04D04FF0FF3C10BCFA
:100990006046704701218181C18116499FED160A89
:1009A000816016E004218181C18114499FED140A00
:1009B00081600EE010218181C18112499FED120AF0
:1009C000816006E040218181C18110499FED100ABC
:1009D000816080ED040ADAE74FF480718181C18182
:1009E0000C499FED0D0A816080ED040ACFE70000FD
:1009F000387B000838730008000080393E73000817
:100A00000000803A567300080000803BB67300086F
:100A10000000803C367500080000803D2DE9F001A3
:100A20004E0801244FF0000C04EB51076146A6F17B
:100A300002082CE061452AD200EBCC0500EBC10492
:100A4000D5ED000A94ED000AC4ED000A85ED000A18
:100A5000D5ED010A94ED010AC4ED010A85ED010A04
:100A6000CC1900EBC4050CEB070400EBC40495EDB6
:100A7000000AD4ED000AC5ED000A84ED000AD4EDA9
:100A8000010A95ED010AC5ED010A84ED010A00EBAA
:100A9000C104B44400EBCC0C94ED020ADCED000A76
:100AA000891CC4ED020A8CED000ADCED010A94ED0C
:100AB000030AC4ED030A8CED010AB3F800C089B241
:100AC00003EB42034145B5D9BDE8F00170472DE97C
:100AD000F0074D0801244FF0000C04EB510661466D
:100AE000A5F102082BE0614529D250F8314050F8B9
:100AF0003C7040F8317040F83C4000EBC10900EB1D
:100B0000CC04D9F80470D4F804A0C9F804A0676034
:100B10008C190CEB060750F8349050F837A040F8C9
:100B200034A040F8379000EBC40400EBC707D4F8BA
:100B30000490D7F804A0C4F804A0C7F8049000EB10
:100B4000C104AC44A76850F83C90C4F8089040F841
:100B50003C7000EBCC0CE768DCF80490C4F80C9017
:100B6000CCF80470B3F800C0891C03EB4203414584
:100B7000B9D9BDE8F00770472DE9F00F01244F08FF
:100B800004EB51084FF0000C7C0804BFBDE8F00FE7
:100B90007047014600EB8805002614E0BCEB460FC9
:100BA00011D950F82CA0D1F80090C1F800A040F85D
:100BB0002C900CEB0809D5F800A050F829B0C5F826
:100BC00000B040F829A0BC4451F8049F50F82CA074
:100BD00041F804AB40F82C90B3F800C003EB42039B
:100BE000641E05F1080506F10106D7D1BDE8F00F36
:100BF000704740EA01039B0703D009E008C9121FB0
:100C000008C0042AFAD203E011F8013B00F8013BC6
:100C1000521EF9D270472DE9FE4F81EA030404F019
:100C2000004421F0004100944FF0000B23F00043FA
:100C300050EA01045ED052EA03045BD0C3F30A54C5
:100C4000C1F30A552C44A4F2F3340194A0FB0254DE
:100C5000C1F3130141F48011C3F3130343F4801370
:100C600001FB024400FB034E840A970A44EA8154C4
:100C700047EA8357A4FB076802958D0A05FB0785A1
:100C80004FEA932C04FB0C542705029D4FEA0658AB
:100C900047EA1637B5EB08056EEB070C870E920E88
:100CA00047EA811742EA8312A7FB0201B6EB0B0168
:100CB00064EB00042B0D43EA0C335E1844EB1C502C
:100CC000DA465146E7FB0201C5F313044FEA0B3342
:100CD00043EA14534FEA0432019C43EA0603A4F1A9
:100CE0000C040294009CCDE900B400F03EF903B07E
:100CF000BDE8F08F00200146F9E72DE9F04D81EACB
:100D0000030404F0004B21F0004514464FF0000AA4
:100D100023F0004150EA050220D054EA01021DD020
:100D2000C5F30A570246C5F31303C1F31300C1F319
:100D30000A5640F4801543F48013A7EB0608101BF5
:100D4000D64608F2FD3873EB050002D308F101081E
:100D500001E092185B41B8F1000F03DA0020014670
:100D6000BDE8F08D00204FF48011064684460EE069
:100D7000171B73EB050705D3121B63EB0503064333
:100D80004CEA010C49084FEA300092185B4150EAE6
:100D90000107EDD152EA030012D082EA040083EA8F
:100DA0000501084305D0101BAB4106D201220023E8
:100DB00006E000224FF0004302E06FF00102531002
:100DC0001AEB06004CEB085110EB0A0041EB0B014B
:100DD000BDE8F04D00F0BAB80EB540F233410291D3
:100DE0000021CDE900110A460B4600F0BEF803B021
:100DF00000BDC1F30A5210B5C1F3130140F2FF3335
:100E000041F480119A4201DA002010BD40F23343D0
:100E10009A42A2F2334203DC524200F050F810BD75
:100E2000904010BD01F0004330B421F0004150EA81
:100E3000010206D00A0DA2F56072C1F31301002A67
:100E400002DC30BC00207047440F44EAC104C100FA
:100E5000E01830BC00EBC25000F041B82DE9F05F63
:100E60000546002092469B46884606468146402419
:100E70001BE0284641464746224600F020F85346EC
:100E80005A46C01A914110D311461846224600F026
:100E9000CDF82D1A67EB01084F46224601200021AC
:100EA00000F0C4F817EB00094E41201EA4F1010424
:100EB000DFDC484631462A464346BDE8F09F202AFB
:100EC00004DB203A21FA02F00021704721FA02F3F4
:100ED000D040C2F1200291400843194670470029D2
:100EE000A8BF7047401C490008BF20F001007047B0
:100EF00010B4B0FA80FC00FA0CF050EA010404BF10
:100F000010BC704749B1CCF1200421FA04F411FA65
:100F10000CF118BF012121430843A3EB0C01CB1DA9
:100F20004FEA00614FEA102042BF002010BC70471A
:100F300000EBC35010440029A4BF10BC7047401CF4
:100F4000490008BF20F0010010BC704710B5141E06
:100F500073F1000408DA401C41F1000192185B4172
:100F60001A4301D120F0010010BD2DE9F04D924649
:100F70009B4611B1B1FA81F202E0B0FA80F2203260
:100F8000904600F053F804460F4640EA0A0041EA52
:100F90000B0153465A46084313D0114653EA010049
:100FA00019D0C8F140025046FFF789FF05460E46AA
:100FB00050465946424600F039F8084305D0012012
:100FC00004E020463946BDE8F08D0020054346EA9E
:100FD000E0762C4337430A986305E40AA0EB080047
:100FE0000022FD0A44EA47540A3002D50020014697
:100FF000E9E7010510196941DDE908450019694172
:10100000BDE8F04DA2E70000064C074D06E0E068A1
:1010100040F0010394E8070098471034AC42F6D33F
:10102000FFF7B6F838FB000858FB0008202A04DB5D
:10103000203A00FA02F1002070479140C2F12003EB
:1010400020FA03F319439040704770B58C1810F8DC
:10105000015B15F0070301D110F8013B2A1106D1FD
:1010600010F8012B03E010F8016B01F8016B5B1E17
:10107000F9D12B0705D40023521E0DD401F8013BF2
:10108000FAE710F8013BCB1A921C03E013F8015B5E
:1010900001F8015B521EF9D5A142D8D3002070BDE2
:1010A00021B1826842F00102826003E0826822F08E
:1010B00001028260704700000021084A1168084A56
:1010C0001140D0E900231A4383681A43C3681A43C6
:1010D0001143044AC2F8041370470000042301407E
:1010E000E030FCFF0020014021B1826842F48072B0
:1010F000826003E0826822F480728260704721B1CE
:10110000826842F40072826003E0826822F4007216
:101110008260704730B50246002000235068104CB2
:1011200020400D790C6844EA052420435060906803
:101130000C4C2040D1E903542C438D682C434D794D
:1011400044EA450420439060D06A20F470000C7D8E
:10115000641EE4B2234340EA0350D06230BD000075
:10116000FFFEFFFCFDF7FFC0F0B504460D46002072
:101170000021092D11DDE068A5F10A0606EB4607FE
:10118000072606FA07F18843A5F10A0606EB46068C
:1011900003FA06F10843E0600CE0206905EB45071F
:1011A000072606FA07F1884305EB450603FA06F120
:1011B00008432061072A0FDA606B561E06EB86078C
:1011C0001F2606FA07F18843561E06EB860605FA27
:1011D00006F10843606322E00D2A0FDA206BD61F68
:1011E00006EB86071F2606FA07F18843D61F06EB93
:1011F000860605FA06F10843206310E0E06AA2F1D2
:101200000D0606EB86071F2606FA07F18843A2F1B2
:101210000D0606EB860605FA06F10843E062F0BD0E
:1012200000B59FB00121084605F030F801210846BD
:1012300005F00CF80121080205F048F801218805A5
:1012400005F004F84FF0804005F0C2F91AA805F047
:10125000D3FA40F633001B900020ADF86800ADF8DB
:101260007000ADF86A001AA94FF0804005F082FACC
:101270002021480605F074FA0121880705F09CF941
:101280004B4800F0C1F900200B904A480D904A48A5
:101290000C9000200E904FF480600F900020109072
:1012A0004FF4806011904000129080001390401124
:1012B00014904002159000201690012017900020F5
:1012C000189019904FF400223C49394800F053FA25
:1012D0000121374800F044FA0BA9354800F0B2FA72
:1012E0000121334800F084F91021314800F066F9FB
:1012F000012210212E4800F087FA01212C4800F02D
:1013000077F920201D9003208DF8780000208DF8BB
:101310007B001DA92A4800F0FCFC4FF4A06004F0FB
:1013200089FF38208DF8280000208DF829008DF8DD
:101330002A0001208DF82B000AA804F03FFF0020AE
:101340000090039002904FF4803001906846FFF7C0
:10135000B3FE002004908DF814008DF815004FF0B6
:10136000C06007904FF08050069000200890012048
:101370008DF8240004A910484C38FFF7CBFE072352
:10138000012205210C484C38FFF7EEFE01210A48E6
:101390004C38FFF7B4FE012107484C38FFF7A4FE94
:1013A000012105484C38FFF77BFE1FB000BD00004F
:1013B00010640240240200204C200140240A002036
:1013C0000000024000BFFEE739B1084A126801235D
:1013D00083401A43054B1A6006E0044A1268012351
:1013E00083409A43014B1A6070470000007400402C
:1013F00041B1094A12684FF4805383401A43064BA7
:101400001A6007E0044A12684FF4805383409A43FD
:10141000014B1A60704700000074004030B5002294
:1014200000230A4C226840F6FE748440A243D1E9AE
:1014300000452C438D682C43CD6844EA050303FA2C
:1014400000F42243014C226030BD000000740040D3
:1014500008B500220092054A009200F10802009BA4
:101460001A440092009A116008BD00000074004008
:101470000021016041608160C160704710B52DEDB1
:10148000048B00244149424800F08CF9002879D0AF
:101490003E493F4800F092F83D4800F078F9C0B36B
:1014A00000BF15E03B4931F81400FFF795FC41EC13
:1014B000190B9FED390B53EC102BFFF71EFC41EC81
:1014C000180BFFF7AFFC364941F82400601C84B2CA
:1014D000B4F5806FE6DB324A3249334805F0AEFCA2
:1014E000304A3249304805F009FD00240DE02F480C
:1014F00000EB840090ED000ABCEEC00A10EE100A6A
:101500002B4921F81400601C84B2B4F5806FEEDB27
:1015100038E0FFE7002415E0264931F81400FFF712
:101520005BFC41EC190B9FED1C0B53EC102BFFF7F0
:10153000E4FB41EC180BFFF775FC194941F8240056
:10154000601C84B2B4F5806FE6DB154A1549164875
:1015500005F074FC134A1549134805F0CFFC00242C
:101560000DE0124800EB840090ED000ABCEEC00ACA
:1015700010EE100A104921F81400601C84B2B4F572
:10158000806FEEDBBDEC048B10BD000020800010EE
:101590001064024024020020000000000000F03F20
:1015A00024620020243200202452002024720020D3
:1015B00024120020240A0020241A00200246094B8D
:1015C0009A4201D2084801E00648103801F0005361
:1015D0001BB1064B0B40C36002E0044B0B40836021
:1015E0007047000010640240006002407D0F7D0FD4
:1015F00021B1026842F00102026003E0026822F0B9
:101600000102026070470000016821F001010160E1
:101610000021016041608160C1600161212141615F
:101620004A49884204D13D21484A103A91608CE0F1
:1016300046491831884205D14FF47461434A103A43
:10164000916082E041493031884205D14FF47411F4
:101650003E4A103A916078E03C494831884205D1D1
:101660004FF07461394A103A91606EE03749603149
:10167000884204D13649354A103AD16065E0334991
:101680007831884204D13349304A103AD1605CE065
:101690002E499031884204D12F492C4A103AD1600A
:1016A00053E02A49A831884205D14FF03D51274ADD
:1016B000103AD16049E02949884204D13D21274AA6
:1016C000083A116041E025491831884205D14FF4AC
:1016D0007461224A083A116037E02049303188426B
:1016E00005D14FF474111D4A083A11602DE01B49D1
:1016F0004831884205D14FF07461184A083A1160A8
:1017000023E016496031884204D11149134A121F5F
:1017100011601AE011497831884204D10D490F4A0D
:10172000121F116011E00D499031884204D10A491D
:101730000A4A121F116008E00849A831884204D102
:101740004FF03D51054A121F116070471060024072
:101750003D000020400F002000003D2010640240AA
:1017600021B1026842F48022026003E0026822F4A0
:1017700080220260704722B1036843F400230360B3
:1017800003E0036823F4002303600161704701460E
:1017900000200A6802F400220AB1012000E00020C3
:1017A0007047000070B50246002000240025124E4C
:1017B000B24201D2114B01E00F4B103B104E0E40D4
:1017C00036B11E2606EAD124166806EA040502E0B0
:1017D000566906F0800501F000560EB15C6800E025
:1017E0001C68084E344004EA010616B10DB1012010
:1017F00000E0002070BD0000106402400060024064
:101800003C0F3C0F7D0F7D0F10B501F080034BB1F5
:1018100022B1436943F08003436103E0436923F04D
:101820008003436180290BD02AB1036801F01E04B4
:101830002343036004E0036801F01E04A343036034
:1018400010BD000010B500220268134B1A40CC688E
:101850000B6823434C6923438C692343CC6923439E
:101860000C6A23434C6A23438C6A23434C6B234307
:101870008C6B23431A430260426922F00702D1E9CC
:101880000B3423431A4342610B6943604B68836006
:101890008B68C36010BD00003F801CF00021016018
:1018A00041608160C160016141618161C16101622A
:1018B00041628162C16201634163816370470000DC
:1018C00000B595B00121084604F0C0FC012148078D
:1018D00004F0DCFC0121480504F0B8FC1020139052
:1018E00003208DF8500002208DF8530013A92F48D3
:1018F00000F00FFA0FA8FFF7BBFD24200F90002087
:101900001090022012900FA90020FFF787FD002100
:101910000846FFF79DFD01210020FFF755FD01213D
:101920000020FFF765FD6846FFF7B8FF2048FFF786
:101930006BFE4FF0606000901E4801901E480290C0
:101940004020039000010490002005904FF4806037
:10195000069040000790800008904FF440300A90B5
:1019600000200B9001200C9000200D900E904FF461
:1019700080700990C20211490D48FFF7FCFE012159
:101980000B48FFF7EDFE69460948FFF75BFF0121B1
:101990000748FFF72DFE01210020FFF715FD01216B
:1019A0000020FFF725FD15B000BD0000000002403B
:1019B000886002400874004024120020241A00208D
:1019C0007047000010B50A2005F0D0F9042109483D
:1019D00000F00AFA48B90848008818B10020064902
:1019E000088002E0012004490880042000F0B4F8D7
:1019F00010BD0000001002400000002010B50A20B9
:101A000005F0B4F90821084800F0EEF938B90748A4
:101A1000006808B9012000E000200449086008209F
:101A200000F09AF810BD000000100240A882424267
:101A300010B50A2005F09AF910210D4800F0D4F9EC
:101A400088B90C48006808B9012000E00020094965
:101A500008600948D0F8A80208B9012000E0002079
:101A60000449091D0860102000F076F810BD000040
:101A700000100240A4824242008042420EB500F0B3
:101A8000BFF90121880304F021FC0221042004F0A5
:101A9000B3FC0321042004F0AFFC0421084604F049
:101AA000ABFC0021084604F0A7FC012000900020B8
:101AB0008DF8040008208DF8050001208DF806003F
:101AC000684600F04FF81C20009000208DF80400BC
:101AD0000C208DF8050001208DF80600684600F006
:101AE00041F806208DF8080003208DF80900002039
:101AF0008DF80A0001208DF80B0002A804F05EFBAF
:101B000008208DF8080003208DF8090001208DF8C9
:101B10000A008DF80B0002A804F050FB09208DF894
:101B2000080003208DF8090002208DF80A0001202A
:101B30008DF80B0002A804F041FB0A208DF8080084
:101B400003208DF809008DF80A0001208DF80B00A4
:101B500002A804F033FB0EBD014908607047000085
:101B6000143C0140002123498279002A3AD00A46D8
:101B7000126803689A430B461A600A1D12680368CC
:101B80009A430B1D1A60027911440A6803681A43CC
:101B90000A60184A0832126803689A43154B0833E2
:101BA0001A601A1D126803689A43124B0C331A60AC
:101BB0004279102A0ED11A1F126803681A430D4B7E
:101BC00008331A601A1D126803681A43094B0C3354
:101BD0001A600DE00749427911440A6803681A4304
:101BE0000A6005E0027911440A6803689A430A60B2
:101BF00070470000003C014051B18200A2F1C04298
:101C0000126842F001038200A2F1C042136009E0B1
:101C10008200A2F1C0421268034B1A408300A3F174
:101C2000C0431A6070470000FEFF0F00D0E90112A8
:101C30001143C26811430269114342691143826929
:101C40001143C2691143026A1143426A1143826A15
:101C50001143C26A1143026B114302689200A2F160
:101C6000C0421160816808290BD101688900A1F187
:101C7000C041096841F0400201688900A1F1C041FA
:101C80000A60416B0968426B526841EA0211426B7B
:101C9000926841EA0221426B928941EA0241426B19
:101CA000128A41EA0251426B127D41EA0261426BA3
:101CB000926911430268521C9200A2F1C042116065
:101CC000C16AB1F5804F1BD1816B0968826B526884
:101CD00041EA0211826B926841EA0221826B128A08
:101CE00041EA0251826B127D41EA0261826B926984
:101CF000114302689200A2F1C042C2F8041107E049
:101D00006FF0704201688900A1F1C041C1F804215F
:101D10007047F0B50A4600210023002400BF3DE0D3
:101D2000012505FA01F3156805EA03049C4234D144
:101D300005684F000326BE40B543056015794E0087
:101D4000B5400668354305601579012D02D0157937
:101D5000022D16D185684F000326BE40B54385602D
:101D600055794E00B5408668354385604568012643
:101D70008E40B5434560456896798E40B6B235438E
:101D80004560C5684F000326BE40B543C560D579A0
:101D90004E00B540C6683543C560491C1029BFD305
:101DA000F0BDF0B5002300244D07ED0E02FA05F357
:101DB000CE1000F1200555F826504E07F70E0F26DD
:101DC000BE40B543CF1000F1200646F82750CE1094
:101DD00000F1200555F8265045EA0304CE1000F125
:101DE000200545F82640F0BD0246002013690B404F
:101DF0000BB1012000E00020704700BFFEE70000AB
:101E00001CB50121112004F021FA1C2000900020B3
:101E10008DF8040003208DF8050001208DF80700DF
:101E200069460648FFF775FF0120009002208DF8F3
:101E3000070069460248FFF76CFF1CBD0010024016
:101E40000000024010B5002000F00AF84FF6E070E4
:101E50000249088004F020F910BD000002020020B1
:101E600070B5044600261748058840884543154844
:101E7000808846F60401884216D1124880790128EC
:101E800012D100200F4988712A2048812B20888197
:101E90000021084603F0F2FF01200A4988712B2037
:101EA00048812A20888103E00021084603F0E6FFEC
:101EB00004F0D0F8002602E003480480761CAE420D
:101EC000FAD370BD248200208000006C10B5044657
:101ED000002C66D16C498871F02008804FF4A07006
:101EE00048800846808849F2413188420BD06648D4
:101EF000808846F60401884205D06348808845F210
:101F0000103188421AD12C205F4908812A2048814B
:101F10002B2088810846808846F60401884205D037
:101F20005948808845F21031884206D14FF4A0709C
:101F3000554908804FF4F0704880A1E052488088ED
:101F400045F21051884210D14FF430504E4908816B
:101F50004FF4285048814FF42C5088814FF4F07092
:101F600008804FF4487048808AE04748808841F6EE
:101F7000631188420DD12C20434908812B204881D0
:101F80002A2088814FF4F07008804FF44870488010
:101F900076E022203C490881202048812120888148
:101FA0006EE00120384988714FF4A0700880F0205D
:101FB00048800846808849F24131884205D032483D
:101FC000808845F21031884207D12C202E490881A3
:101FD0002A2048812B2088813FE02B48808846F6C4
:101FE0000401884207D12C20274908812B204881F1
:101FF0002A20888131E02448808845F210518842A7
:1020000010D14FF43050204908814FF428504881B6
:102010004FF42C5088814FF4487008804FF4F070D2
:1020200048801AE01848808841F6631188420DD133
:102030002C20154908812A2048812B2088814FF4C3
:10204000487008804FF4F070488006E022200E4966
:10205000088121204881202088810B48808846F60D
:102060000401884205D00848808845F21031884232
:1020700006D14FF4F070044908804FF4A0704880F6
:10208000002003F085FD10BD248200202DE9FF4FC4
:1020900084B081468A460020039002900698A0EB07
:1020A00009050798A0EB0A06CDF80490CDF800A02A
:1020B000002D01DD012705E00DB9002702E04FF0FA
:1020C000FF376D42002E02DD4FF0010806E016B921
:1020D0004FF0000802E04FF0FF387642B54201DDD4
:1020E0002C4600E034464FF0000B21E0009A91B2FC
:1020F000019A90B200F03CF80398284403900298AB
:10210000304402900398A04205DD0398001B039021
:102110000198384401900298A04205DD0298001B06
:1021200002900098404400900BF101001FFA80FBE0
:10213000601C8345DADD08B0BDE8F08F2DE9F0437F
:1021400004460D4616461F46DDF81C900748B0F8B9
:102150000080A0F800903B46324629462046FFF713
:1021600095FF0248A0F80080BDE8F083020200203D
:1021700030B504460D462946204603F07FFE03F0A5
:1021800069FF024800880249088030BD0202002031
:102190008000006C00B5A1B00020209001217A20C1
:1021A00004F054F80121084604F060F84FF40040B0
:1021B0001E9001208DF87C0000208DF87E0002200A
:1021C0008DF87D0001208DF87F001EA9FE48FFF7E5
:1021D000A0FD4CF233701E9002208DF87C00002090
:1021E0008DF87E0003208DF87D0001208DF87F00A2
:1021F0001EA9F648FFF78DFD4FF680701E90022055
:102200008DF87C0000208DF87E0003208DF87D0085
:1022100001208DF87F001EA9ED48FFF77AFD4FF4ED
:1022200080501E9002208DF87C0000208DF87E00EA
:1022300003208DF87D0001208DF87F001EA9E54860
:10224000FFF767FD4FF480501E9002208DF87C0050
:1022500000208DF87E0003208DF87D0001208DF890
:102260007F001EA9DC48FFF754FD0C220021D7484F
:10227000FFF797FD0C220121D448FFF792FD0C22B5
:102280000421D248FFF78DFD0C220521CF48FFF72E
:1022900088FD0C220821CD48FFF783FD0C2209217F
:1022A000CA48FFF77EFD0C220A21C848FFF779FDD6
:1022B0000C220E21C548FFF774FD0C220F21C348E4
:1022C000FFF76FFD0C220721C148FFF76AFD0C22C2
:1022D0000821BF48FFF765FD0C220921BC48FFF724
:1022E00060FD0C220A21BA48FFF75BFD0C220B218E
:1022F000B748FFF756FD0C221146B548FFF751FDD0
:102300000C220D21B248FFF74CFD0C220E21B048E3
:10231000FFF747FD0C220F21AD48FFF742FD0C22CD
:102320001146AC48FFF73DFD0C221146AA48FFF7C5
:1023300038FD0F200890002009903C200A900020D2
:102340000B900C900D900E900920019000200290AF
:102350000820039000200490059006900790062026
:102360000F900020109011901020129000201390D8
:1023700015901490169017904FF4805018900020EC
:1023800019904FF480401A9000201B9008A81C90D0
:1023900001A81D900FA8FFF749FC01210620FFF7B7
:1023A0002BFC322004F0E2FC0121002003F05CFE53
:1023B000322004F0DBFC002003F0AEFB874988806C
:1023C00008468088FF280ADB084680884FF6FF71A0
:1023D000884204D081488088B0F5134F7ED1D32045
:1023E00003F02CFE03F08EFB7C49888003F08AFB0F
:1023F0007A49888003F086FB78498880084680887F
:102400004FF6FF7101EA00207449888003F07AFBDF
:10241000724989880843714988800846808849F252
:10242000413188425AD0BF2003F008FE03F06AFB16
:102430006A49888003F066FB6849888003F062FB84
:102440006649888003F05EFB64498880084680887E
:102450004FF6FF7101EA00206049888003F052FBCB
:102460005E49898808435D4988800846808846F629
:10247000040188427AD0D42003F0E0FD03F042FB4F
:102480005649888003F03EFB5449888003F03AFBAC
:1024900052498880084680884FF6FF7101EA002083
:1024A0004E49888003F02EFB4C49898808434B49EC
:1024B00088800846808845F21031884256D04FF413
:1024C0005A4003F0BBFD03F01DFB444988804FF4E4
:1024D0005B4003F0B3FD03F015FB00E046E03F492D
:1024E0008880084680884FF6FF7101EA00203B494A
:1024F00088804FF45C4003F0A1FD03F003FB3749F3
:10250000898808433549888008468088B0F5004F9F
:1025100002D145F2105088803048808845F2105131
:10252000884223D0A12003F089FD03F0EBFA2B4968
:10253000888003F0E7FA29498880084680884FF6AA
:10254000FF7101EA00202549888003F0DBFA234966
:1025500089880843214988800846808845F261714E
:10256000884203D141F663101C4988801B4880884B
:1025700049F24131884211D01848808845F2103123
:1025800088420BD01548808845F21051884205D00A
:102590001248808841F6631188422DD110480068A6
:1025A00020F00F004FF02041C1F81C010846D0F880
:1025B0001C0120F47060C1F81C010846D0F81C0111
:1025C00040F003000EE0000000040240000C024056
:1025D0000010024000140240001802402482002033
:1025E0001C0100A0C1F81C010846D0F81C0140F4F1
:1025F0000070C1F81C0128E0FE48808846F60401FE
:10260000884205D0FB4880884CF2055188421CD195
:10261000F948006820F00F004FF02041C1F81C017C
:102620000846D0F81C0120F47060C1F81C0108466F
:10263000D0F81C0140F00A00C1F81C010846D0F88F
:102640001C0140F44060C1F81C01EA488188EBA0FD
:1026500004F0EEF9E748808849F2413188427CD1A4
:10266000CF2003F0EBFC002003F0DCFCC12003F0E2
:10267000D9FC302003F0D6FCED2003F0DFFC642011
:1026800003F0D0FC032003F0CDFC122003F0CAFCC1
:10269000812003F0C7FCE82003F0D0FC852003F084
:1026A000C1FC102003F0BEFC7A2003F0BBFCCB2061
:1026B00003F0C4FC392003F0B5FC2C2003F0B2FC7D
:1026C000002003F0AFFC342003F0ACFC022003F048
:1026D000A9FCF72003F0B2FC202003F0A3FCEA20C1
:1026E00003F0ACFC002003F09DFC002003F09AFCFA
:1026F000C02003F0A3FC1B2003F094FCC12003F0D6
:102700009DFC012003F08EFCC52003F097FC3020D7
:1027100003F088FC302003F085FCC72003F08EFC1A
:10272000B72003F07FFC362003F088FC482003F03C
:1027300079FC3A2003F082FC552003F073FCB120B1
:1027400003F07CFC002003F06DFC1A2003F06AFC0F
:10275000B62003F073FC0A2000E099E003F062FC6D
:10276000A22003F05FFCF22003F068FC002003F0DD
:1027700059FC262003F062FC012003F053FCE0200A
:1027800003F05CFC0F2003F04DFC2A2003F04AFC10
:10279000282003F047FC082003F044FC0E2003F03F
:1027A00041FC082003F03EFC542003F03BFCA92030
:1027B00003F038FC432003F035FC0A2003F032FC20
:1027C0000F2003F02FFC002003F02CFC002003F06E
:1027D00029FC002003F026FC002003F023FCE1206C
:1027E00003F02CFC002003F01DFC152003F01AFC64
:1027F000172003F017FC072003F014FC112003F04E
:1028000011FC062003F00EFC2B2003F00BFC5620DD
:1028100003F008FC3C2003F005FC052003F002FC5B
:10282000102003F0FFFB0F2003F0FCFB3F2003F020
:10283000F9FB3F2003F0F6FB0F2003F0F3FB2B2006
:1028400003F0FCFB002003F0EDFB002003F0EAFBAB
:10285000012003F0E7FB3F2003F0E4FB2A2003F014
:10286000EDFB002003F0DEFB002003F0DBFB00208B
:1028700003F0D8FBEF2003F0D5FB112003F0DEFBC3
:10288000782004F073FA292003F0D8FB03F02AB96A
:102890005848808846F6040188427CD1112003F014
:1028A000CDFB142004F062FAD02003F0C7FB072010
:1028B00003F0B8FB422003F0B5FB1D2003F0B2FB90
:1028C000D12003F0BBFB002003F0ACFB1A2003F087
:1028D000A9FB092003F0A6FBD22003F0AFFB0120E7
:1028E00003F0A0FB222003F09DFBC02003F0A6FB19
:1028F000102003F097FB3B2003F094FB002003F033
:1029000091FB022003F08EFB112003F08BFBC5200E
:1029100003F094FB032003F085FBC82003F08EFB3B
:10292000002003F07FFB252003F07CFB212003F037
:1029300079FB052003F076FB002003F073FB0A20EF
:1029400003F070FB652003F06DFB252003F06AFBAC
:10295000772003F067FB502003F064FB0F2003F0A7
:1029600061FB002003F05EFBF82003F067FB012011
:1029700003F058FBFE2003F061FB002003F052FB44
:10298000022003F04FFB202003F058FB362003F019
:1029900055FB082000E039E003F044FB3A2003F047
:1029A0004DFB552003F03EFB2B2003F047FB00209E
:1029B00003F038FB002003F035FB012003F032FB6D
:1029C0003F2003F02FFB2A2003F038FB002003F008
:1029D00029FB002003F026FB012003F023FBDF206E
:1029E00003F020FB782004F0C1F9292003F026FB36
:1029F0004CE70000248200201C0100A0204C43442E
:102A00002049443A25780D0A00000000FE488088DD
:102A100045F21031884240F07C87ED2003F00EFB38
:102A2000012003F0FFFAFE2003F0FCFAEE2003F091
:102A300005FBDE2003F0F6FA212003F0F3FAF12083
:102A400003F0FCFA012003F0EDFADF2003F0F6FAC0
:102A5000102003F0E7FAC42003F0F0FA8F2003F00F
:102A6000E1FAC62003F0EAFA002003F0DBFAE220E4
:102A700003F0D8FAE22003F0D5FAE22003F0D2FA0C
:102A8000BF2003F0DBFAAA2003F0CCFAB02003F059
:102A9000D5FA0D2003F0C6FA002003F0C3FA0D208A
:102AA00003F0C0FA002003F0BDFA112003F0BAFAD7
:102AB000002003F0B7FA192003F0B4FA002003F065
:102AC000B1FA212003F0AEFA002003F0ABFA2D207A
:102AD00003F0A8FA002003F0A5FA3D2003F0A2FAC3
:102AE000002003F09FFA5D2003F09CFA002003F021
:102AF00099FA5D2003F096FA002003F093FAB120D2
:102B000003F09CFA802003F08DFA002003F08AFA8B
:102B10008B2003F087FA002003F084FA962003F05C
:102B200081FA002003F07EFAB22003F087FA002039
:102B300003F078FA002003F075FA022003F072FA2D
:102B4000002003F06FFA032003F06CFA002003F07A
:102B500069FAB32003F072FA002003F063FA002050
:102B600003F060FA002003F05DFA002003F05AFA47
:102B7000002003F057FA002003F054FA002003F07D
:102B800051FA002003F04EFA002003F04BFA002027
:102B900003F048FA002003F045FA002003F042FA5F
:102BA000002003F03FFA002003F03CFA002003F07D
:102BB00039FA002003F036FA002003F033FA00203F
:102BC00003F030FA002003F02DFA002003F02AFA77
:102BD000002003F027FA002003F024FA002003F07D
:102BE00021FA002003F01EFAB42003F027FA8B200C
:102BF00003F018FA002003F015FA962003F012FAF9
:102C0000002003F00FFAA12003F00CFA002003F0DB
:102C100009FAB52003F012FA022003F003FA0020AB
:102C200003F000FA032003F0FDF9002003F0FAF9A5
:102C3000042003F0F7F9002003F0F4F9B62003F0C4
:102C4000FDF9002003F0EEF9002003F0EBF9B720C6
:102C500003F0F4F9002003F0E5F9002003F0E2F9B5
:102C60003F2003F0DFF9002003F0DCF95E2003F0E1
:102C7000D9F9002003F0D6F9642003F0D3F900203D
:102C800003F0D0F98C2003F0CDF9002003F0CAF94D
:102C9000AC2003F0C7F9002003F0C4F9DC2003F0F6
:102CA000C1F9002003F0BEF9702003F0BBF9002049
:102CB00003F0B8F9902003F0B5F9002003F0B2F961
:102CC000EB2003F0AFF9002003F0ACF9DC2003F0B7
:102CD000A9F9002003F0A6F9B82003F0AFF900200D
:102CE00003F0A0F9002003F09DF9002003F09AF909
:102CF000002003F097F9002003F094F9002003F07E
:102D000091F9002003F08EF9002003F08BF9BA202E
:102D100003F094F9242003F085F9002003F082F9F0
:102D2000002003F07FF9002003F07CF9C12003F0BC
:102D300085F9202003F076F9002003F073F9542080
:102D400003F070F9002003F06DF9FF2003F06AF939
:102D5000002003F067F9C22003F070F90A2003F0A5
:102D600061F9002003F05EF9042003F05BF9002014
:102D700003F058F9C32003F061F93C2003F052F945
:102D8000002003F04FF93A2003F04CF9002003F043
:102D900049F9392003F046F9002003F043F93720C0
:102DA00003F040F9002003F03DF93C2003F03AF92C
:102DB000002003F037F9362003F034F9002003F047
:102DC00031F9322003F02EF9002003F02BF92F20E7
:102DD00003F028F9002003F025F92C2003F022F954
:102DE000002003F01FF9292003F01CF9002003F054
:102DF00019F9262003F016F9002003F013F9242016
:102E000003F010F9002001E02482002003F00AF909
:102E1000242003F007F9002003F004F9232003F035
:102E200001F9002003F0FEF83C2003F0FBF800203D
:102E300003F0F8F8362003F0F5F8002003F0F2F87C
:102E4000322003F0EFF8002003F0ECF82F2003F01D
:102E5000E9F8002003F0E6F82C2003F0E3F8002066
:102E600003F0E0F8292003F0DDF8002003F0DAF8A1
:102E7000262003F0D7F8002003F0D4F8242003F034
:102E8000D1F8002003F0CEF8242003F0CBF8002086
:102E900003F0C8F8232003F0C5F8002003F0C2F8BF
:102EA000C42003F0CBF8622003F0BCF8002003F04C
:102EB000B9F8052003F0B6F8002003F0B3F8842039
:102EC00003F0B0F8002003F0ADF8F02003F0AAF80A
:102ED000002003F0A7F8182003F0A4F8002003F066
:102EE000A1F8A42003F09EF8002003F09BF818201E
:102EF00003F098F8002003F095F8502003F092F8C2
:102F0000002003F08FF80C2003F08CF8002003F071
:102F100089F8172003F086F8002003F083F8952045
:102F200003F080F8002003F07DF8F32003F07AF836
:102F3000002003F077F8E62003F074F8002003F097
:102F400071F8C52003F07AF8322003F06BF8002006
:102F500003F068F8442003F065F8002003F062F8FD
:102F6000652003F05FF8002003F05CF8762003F0A2
:102F700059F8002003F056F8882003F053F8002099
:102F800003F050F8C62003F059F8202003F04AF867
:102F9000002003F047F8172003F044F8002003F066
:102FA00041F8012003F03EF8002003F03BF8C72071
:102FB00003F044F8002003F035F8002003F032F865
:102FC000002003F02FF8002003F02CF8C82003F0B5
:102FD00035F8002003F026F8002003F023F8002045
:102FE00003F020F8002003F01DF8C92003F026F8B4
:102FF000002003F017F8002003F014F8002003F07D
:1030000011F8002003F00EF8002003F00BF8002068
:1030100003F008F8002003F005F8002003F002F8A0
:10302000002002F0FFFF002002F0FCFF002002F071
:10303000F9FF002002F0F6FF002002F0F3FF00206D
:1030400002F0F0FF002002F0EDFF002002F0EAFFA6
:10305000E02002F0F3FF162002F0E4FF002002F06F
:10306000E1FF1C2002F0DEFF002002F0DBFF212048
:1030700002F0D8FF002002F0D5FF362002F0D2FF88
:10308000002002F0CFFF462002F0CCFF002002F02B
:10309000C9FF522002F0C6FF002002F0C3FF6420E7
:1030A00002F0C0FF002002F0BDFF7A2002F0BAFF5C
:1030B000002002F0B7FF8B2002F0B4FF002002F0E6
:1030C000B1FF992002F0AEFF002002F0ABFFA82074
:1030D00002F0A8FF002002F0A5FFB92002F0A2FF35
:1030E000002002F09FFFC42002F09CFF002002F0AD
:1030F00099FFCA2002F096FF002002F093FFD22031
:1031000002F090FF002002F08DFFD92002F08AFF2C
:10311000002002F087FFE02002F084FF002002F090
:1031200081FFF32002F07EFF002002F07BFFE12010
:1031300002F084FF162002F075FF002002F072FFFB
:103140001C2002F06FFF002002F06CFF222002F032
:1031500069FF002002F066FF362002F063FF0020C6
:1031600002F060FF452002F05DFF002002F05AFFF0
:10317000522002F057FF002002F054FF642002F0BA
:1031800051FF002002F04EFF7A2002F04BFF00209A
:1031900002F048FF8B2002F045FF002002F042FFC2
:1031A000992002F03FFF002002F03CFFA82002F02F
:1031B00039FF002002F036FFB92002F033FF002073
:1031C00002F030FFC42002F02DFF002002F02AFFA1
:1031D000CA2002F027FF002002F024FFD22002F0D4
:1031E00021FF002002F01EFFD82002F01BFF00206C
:1031F00002F018FFE02002F015FF002002F012FF9D
:10320000F32002F00FFF002002F00CFFE22002F09A
:1032100015FF052002F006FF002002F003FF0B203F
:1032200002F000FF002002F0FDFE1B2002F0FAFE7B
:10323000002002F0F7FE342002F0F4FE002002F03D
:10324000F1FE442002F0EEFE002002F0EBFE4F20E3
:1032500002F0E8FE002002F0E5FE612002F0E2FE4E
:10326000002002F0DFFE792002F0DCFE002002F0F8
:10327000D9FE882002F0D6FE002002F0D3FE97206F
:1032800002F0D0FE002002F0CDFEA62002F0CAFE21
:10329000002002F0C7FEB72002F0C4FE002002F0BA
:1032A000C1FEC22002F0BEFE002002F0BBFEC7201D
:1032B00002F0B8FE002002F0B5FED12002F0B2FE0E
:1032C000002002F0AFFED62002F0ACFE002002F09B
:1032D000A9FEDD2002F0A6FE002002F0A3FEF320EE
:1032E00002F0A0FE002002F09DFEE32002F0A6FE08
:1032F000052002F097FE002002F094FE0A2002F062
:1033000091FE002002F08EFE1C2002F08BFE0020B9
:1033100002F088FE332002F085FE002002F082FEDB
:10332000442002F07FFE002002F07CFE502002F0DC
:1033300079FE002002F076FE622002F073FE00208B
:1033400002F070FE782002F06DFE002002F06AFEAE
:10335000882002F067FE002002F064FE972002F051
:1033600061FE002002F05EFEA62002F05BFE00205F
:1033700002F058FEB72002F055FE002002F052FE87
:10338000C22002F04FFE002002F04CFEC72002F0E7
:1033900049FE002002F046FED12002F043FE00204C
:1033A00002F040FED52002F03DFE002002F03AFE81
:1033B000DD2002F037FE002002F034FEF32002F0A0
:1033C00031FE002002F02EFEE42002F037FE012044
:1033D00002F028FE002002F025FE012002F022FE6D
:1033E000002002F01FFE022002F01CFE002002F06E
:1033F00019FE2A2002F016FE002002F013FE3C20E7
:1034000002F010FE002002F00DFE4B2002F00AFE3A
:10341000002002F007FE5D2002F004FE002002F012
:1034200001FE742002F0FEFD002002F0FBFD84206E
:1034300002F0F8FD002002F0F5FD932002F0F2FD0D
:10344000002002F0EFFDA22002F0ECFD002002F0CF
:10345000E9FDB32002F0E6FD002002F0E3FDBE200E
:1034600002F0E0FD002002F0DDFDC42002F0DAFDF4
:10347000002002F0D7FDCD2002F0D4FD002002F0A4
:10348000D1FDD32002F0CEFD002002F0CBFDDD20E7
:1034900002F0C8FD002002F0C5FDF32002F0C2FDDD
:1034A000002002F0BFFDE52002F0C8FD002002F080
:1034B000B9FD002002F0B6FD002002F0B3FD0020AF
:1034C00002F0B0FD022002F0ADFD002002F0AAFDE6
:1034D000292002F0A7FD002002F0A4FD3C2002F00C
:1034E000A1FD002002F09EFD4B2002F09BFD00207C
:1034F00002F098FD5D2002F095FD002002F092FDA3
:10350000742002F08FFD002002F08CFD842002F078
:1035100089FD002002F086FD932002F083FD00204B
:1035200002F080FDA22002F07DFD002002F07AFD75
:10353000B32002F077FD002002F074FDBE2002F0FF
:1035400071FD002002F06EFDC42002F06BFD002032
:1035500002F068FDCD2002F065FD002002F062FD62
:10356000D32002F05FFD002002F05CFDDC2002F0C1
:1035700059FD002002F056FDF32002F053FD00201B
:1035800002F050FDE62002F059FD112002F04AFD44
:10359000002002F047FD342002F044FD002002F03C
:1035A00041FD562002F03EFD002002F03BFD76205A
:1035B00002F038FD002002F035FD772002F032FDE8
:1035C000002002F02FFD662002F02CFD002002F00A
:1035D00029FD882002F026FD002002F023FD99201D
:1035E00002F020FD002002F01DFDBB2002F01AFDBC
:1035F000002002F017FD992002F014FD002002F0D7
:1036000011FD662002F00EFD002002F00BFD55209A
:1036100002F008FD002002F005FD552002F002FD39
:10362000002002F0FFFC452002F0FCFC002002F02C
:10363000F9FC432002F0F6FC002002F0F3FC4420E9
:1036400002F0F0FC002002F0EDFCE72002F0F6FCB6
:10365000322002F0E7FC002002F0E4FC552002F0EA
:10366000E1FC002002F0DEFC762002F0DBFC002012
:1036700002F0D8FC662002F0D5FC002002F0D2FC5B
:10368000672002F0CFFC002002F0CCFC672002F0A3
:10369000C9FC002002F0C6FC872002F0C3FC002019
:1036A00002F0C0FC992002F0BDFC002002F0BAFC40
:1036B000BB2002F0B7FC002002F0B4FC992002F01D
:1036C000B1FC002002F0AEFC772002F0ABFC002041
:1036D00002F0A8FC442002F0A5FC002002F0A2FCAD
:1036E000562002F09FFC002002F09CFC232002F0F8
:1036F00099FC002002F096FC332002F093FC00209D
:1037000002F090FC452002F08DFC002002F08AFCC3
:10371000E82002F093FC002002F084FC002002F07C
:1037200081FC992002F07EFC002002F07BFC8720C7
:1037300002F078FC002002F075FC882002F072FC98
:10374000002002F06FFC772002F06CFC002002F0F9
:1037500069FC662002F066FC002002F063FC882011
:1037600002F060FC002002F05DFCAA2002F05AFC8E
:10377000002002F057FCBB2002F054FC002002F0B5
:1037800051FC992002F04EFC002002F04BFC662018
:1037900002F048FC002002F045FC552002F042FCFB
:1037A000002002F03FFC552002F03CFC002002F01B
:1037B00039FC442002F036FC002002F033FC4420A7
:1037C00002F030FC002002F02DFC552002F02AFC13
:1037D000002002F027FCE92002F030FCAA2002F0D1
:1037E00021FC002002F01EFC002002F01BFC002047
:1037F00002F018FC002002F021FCAA2002F012FCCA
:10380000CF2002F01BFC002002F00CFC002002F094
:1038100009FC002002F006FC002002F003FC00205E
:1038200002F000FC002002F0FDFB002002F0FAFB99
:10383000002002F0F7FB002002F0F4FB002002F071
:10384000F1FB002002F0EEFB002002F0EBFB002079
:1038500002F0E8FB002002F0E5FB002002F0E2FBB2
:10386000002002F0DFFB002002F0DCFBF02002F081
:10387000E5FB002002F0D6FB502002F0D3FB002035
:1038800002F0D0FB002002F0CDFB002002F0CAFBCA
:10389000F32002F0D3FB002002F0C4FBF92002F079
:1038A000CDFB062002F0BEFB102002F0BBFB29205E
:1038B00002F0B8FB002002F0B5FB3A2002F0BEFB9C
:1038C000552002F0AFFB112002F0B8FB642003F09A
:1038D0004DFA292002F0B2FB352002F0AFFB0020A8
:1038E00002F0A0FB512002F0A9FBFF2002F09AFB9E
:1038F000532002F0A3FB2C2002F094FB552002F091
:103900009DFB822002F08EFB2C2002F097FB02F040
:10391000E9B8FE48808845F2105188427ED1552191
:103920004FF4704002F0A0FBAA214FF2010002F018
:103930009BFB52214FF2020002F096FB08214FF24E
:10394000030002F091FB01214FF2040002F08CFB16
:103950000D214FF4304002F087FB0D214BF20100A6
:1039600002F082FB0D214BF2020002F07DFB3421BC
:103970004FF4364002F078FB34214BF2016002F044
:1039800073FB34214BF2026002F06EFB0D214FF409
:10399000314002F069FB0D214BF2011002F064FB93
:1039A0000D214BF2021002F05FFB34214FF437403F
:1039B00002F05AFB34214BF2017002F055FB342126
:1039C0004BF2027002F050FB00214FF4324002F043
:1039D0004BFB00214BF2012002F046FB00214BF291
:1039E000022002F041FB24214FF4384002F03CFB5E
:1039F00024214BF6010002F037FB24214BF6020094
:103A000002F032FB01214FF43F4002F02DFB0F2169
:103A10004FF4334002F028FB0F2100E0FEE34BF2AD
:103A2000013002F021FB0F214BF2023002F01CFBAF
:103A300034214FF4394002F017FB34214BF60110CA
:103A400002F012FB34214BF6021002F00DFB0821AC
:103A50004FF4354002F008FB08214BF2015002F010
:103A600003FB08214BF2025002F0FEFA03214FF44F
:103A7000424002F0F9FA24214FF43A4002F0F4FAFD
:103A800024214BF6012002F0EFFA24214BF602200C
:103A900002F0EAFA00214FF43C4002F0E5FA782106
:103AA0004BF6014002F0E0FA00214BF6024002F032
:103AB000DBFA00214FF43D4002F0D6FA78214BF6B4
:103AC000015002F0D1FA00214BF6025002F0CCFA7C
:103AD00000214FF43E4002F0C7FA64214BF601602A
:103AE00002F0C2FA00214FF4514002F0BDFA332136
:103AF0004DF2011002F0B8FA00214DF2021002F06E
:103B0000B3FA34214DF2031002F0AEFA00214DF267
:103B1000041002F0A9FA3A214DF2051002F0A4FABD
:103B200000214DF2061002F09FFA4A214DF20710D3
:103B300002F09AFA00214DF2081002F095FA5C2189
:103B40004DF2091002F090FA00214DF20A1002F035
:103B50008BFA81214DF20B1002F086FA00214DF212
:103B60000C1002F081FAA6214DF20D1002F07CFA41
:103B700000214DF20E1002F077FAE5214DF20F1000
:103B800002F072FA01214DF2101002F06DFA1321C9
:103B90004DF2111002F068FA01214DF2121002F0FC
:103BA00063FA54214DF2131002F05EFA01214DF236
:103BB000141002F059FA82214DF2151002F054FA55
:103BC00001214DF2161002F04FFACA214DF21710E2
:103BD00002F04AFA02214DF2181002F045FA0021D3
:103BE0004DF2191002F040FA02214DF21A1002F0C3
:103BF0003BFA01214DF21B1002F036FA02214DF280
:103C00001C1002F031FA34214DF21D1002F02CFA92
:103C100002214DF21E1002F027FA67214DF21F100B
:103C200002F022FA02214DF2201002F01DFA842146
:103C30004DF2211002F018FA02214DF2221002F08A
:103C400013FAA4214DF2231002F00EFA02214DF2D4
:103C5000241002F009FAB7214DF2251002F004FAFF
:103C600002214DF2261002F0FFF9CF214DF227106C
:103C700002F0FAF902214DF2281002F0F5F9DE21E6
:103C80004DF2291002F0F0F902214DF22A1002F053
:103C9000EBF9F2214DF22B1002F0E6F902214DF280
:103CA0002C1002F0E1F9FE214DF22D1002F0DCF9AA
:103CB00003214DF22E1002F0D7F910214DF22F10F2
:103CC00002F0D2F903214DF2301002F0CDF9332188
:103CD0004DF2311002F0C8F903214DF2321002F01A
:103CE000C3F96D214DF2331002F0BEF900214FF4FB
:103CF000524002F0B9F933214DF2012002F0B4F93B
:103D000000214DF2022002F0AFF901E024820020F0
:103D100034214DF2032002F0A7F900214DF20420D6
:103D200002F0A2F93A214DF2052002F09DF900219E
:103D30004DF2062002F098F94A214DF2072002F0D8
:103D400093F900214DF2082002F08EF95C214DF22A
:103D5000092002F089F900214DF20A2002F084F9CD
:103D600081214DF20B2002F07FF900214DF20C2051
:103D700002F07AF9A6214DF20D2002F075F900212A
:103D80004DF20E2002F070F9E5214DF20F2002F005
:103D90006BF901214DF2102002F066F913214DF26A
:103DA000112002F061F901214DF2122002F05CF9BC
:103DB00054214DF2132002F057F901214DF2142045
:103DC00002F052F982214DF2152002F04DF9012145
:103DD0004DF2162002F048F9CA214DF2172002F0E8
:103DE00043F902214DF2182002F03EF900214DF274
:103DF000192002F039F902214DF21A2002F034F9AB
:103E000001214DF21B2002F02FF902214DF21C205E
:103E100002F02AF934214DF21D2002F025F9022189
:103E20004DF21E2002F020F967214DF21F2002F012
:103E30001BF902214DF2202002F016F984214DF2E7
:103E4000212002F011F902214DF2222002F00CF99A
:103E5000A4214DF2232002F007F902214DF2242083
:103E600002F002F9B7214DF2252002F0FDF80221FF
:103E70004DF2262002F0F8F8CF214DF2272002F073
:103E8000F3F802214DF2282002F0EEF8DE214DF287
:103E9000292002F0E9F802214DF22A2002F0E4F88C
:103EA000F2214DF22B2002F0DFF802214DF22C20FE
:103EB00002F0DAF8FE214DF22D2002F0D5F80321B0
:103EC0004DF22E2002F0D0F810214DF22F2002F0FA
:103ED000CBF803214DF2302002F0C6F833214DF229
:103EE000312002F0C1F803214DF2322002F0BCF87B
:103EF0006D214DF2332002F0B7F800214FF453400A
:103F000002F0B2F833214DF2013002F0ADF8002199
:103F10004DF2023002F0A8F834214DF2033002F0E5
:103F2000A3F800214DF2043002F09EF83A214DF240
:103F3000053002F099F800214DF2063002F094F8B5
:103F40004A214DF2073002F08FF800214DF208307F
:103F500002F08AF85C214DF2093002F085F8002168
:103F60004DF20A3002F080F881214DF20B3002F060
:103F70007BF800214DF20C3002F076F8A6214DF2CC
:103F80000D3002F071F800214DF20E3002F06CF8A5
:103F9000E5214DF20F3002F067F801214DF21030AB
:103FA00002F062F813214DF2113002F05DF80121A8
:103FB0004DF2123002F058F854214DF2133002F055
:103FC00053F801214DF2143002F04EF882214DF2E7
:103FD000153002F049F801214DF2163002F044F894
:103FE000CA214DF2173002F03FF802214DF218308D
:103FF00002F03AF800214DF2193002F035F80221B2
:104000004DF21A3002F030F801214DF21B3002F06F
:104010002BF802214DF21C3002F026F834214DF22B
:104020001D3002F021F802214DF21E3002F01CF882
:1040300067214DF21F3002F017F802214DF22030B7
:1040400002F012F884214DF2213002F00DF8022125
:104050004DF2223002F008F8A4214DF2233002F094
:1040600003F802214DF2243001F0FEFFB7214DF29A
:10407000253001F0F9FF02214DF2263001F0F4FF66
:10408000CF214DF2273001F0EFFF02214DF2283011
:1040900001F0EAFFDE214DF2293001F0E5FF0221B7
:1040A0004DF22A3001F0E0FFF2214DF22B3001F009
:1040B000DBFF02214DF22C3001F0D6FFFE214DF244
:1040C0002D3001F0D1FF03214DF22E3001F0CCFF55
:1040D00010214DF22F3001F0C7FF03214DF2303097
:1040E00001F0C2FF33214DF2313001F0BDFF032159
:1040F0004DF2323001F0B8FF6D214DF2333001F056
:10410000B3FF00214FF4544001F0AEFF33214DF2D4
:10411000014001F0A9FF00214DF2024001F0A4FF8F
:1041200034214DF2034001F09FFF00214DF2044085
:1041300001F09AFF3A214DF2054001F095FF002170
:104140004DF2064001F090FF4A214DF2074001F088
:104150008BFF00214DF2084001F086FF5C214DF2FB
:10416000094001F081FF00214DF20A4001F07CFF7F
:1041700081214DF20B4001F077FF00214DF20C4000
:1041800001F072FFA6214DF20D4001F06DFF0021FC
:104190004DF20E4001F068FFE5214DF20F4001F0B5
:1041A00063FF01214DF2104001F05EFF13214DF23B
:1041B000114001F059FF01214DF2124001F054FF6E
:1041C00054214DF2134001F04FFF01214DF21440F4
:1041D00001F04AFF82214DF2154001F045FF012117
:1041E0004DF2164001F040FFCA214DF2174001F098
:1041F0003BFF02214DF2184001F036FF00214DF245
:10420000194001F031FF02214DF21A4001F02CFF5C
:1042100001214DF21B4001F027FF00E004E30221E1
:104220004DF21C4001F020FF34214DF21D4001F001
:104230001BFF02214DF21E4001F016FF67214DF2D7
:104240001F4001F011FF02214DF2204001F00CFF50
:1042500084214DF2214001F007FF02214DF222405E
:1042600001F002FFA4214DF2234001F0FDFE0221E6
:104270004DF2244001F0F8FEB7214DF2254001F047
:10428000F3FE02214DF2264001F0EEFECF214DF269
:10429000274001F0E9FE02214DF2284001F0E4FE42
:1042A000DE214DF2294001F0DFFE02214DF22A40CD
:1042B00001F0DAFEF2214DF22B4001F0D5FE022191
:1042C0004DF22C4001F0D0FEFE214DF22D4001F0C8
:1042D000CBFE03214DF22E4001F0C6FE10214DF21F
:1042E0002F4001F0C1FE03214DF2304001F0BCFE31
:1042F00033214DF2314001F0B7FE03214DF232403F
:1043000001F0B2FE6D214DF2334001F0ADFE00210F
:104310004FF4554001F0A8FE33214DF2015001F059
:10432000A3FE00214DF2025001F09EFE34214DF219
:10433000035001F099FE00214DF2045001F094FE6B
:104340003A214DF2055001F08FFE00214DF206504A
:1043500001F08AFE4A214DF2075001F085FE00214E
:104360004DF2085001F080FE5C214DF2095001F041
:104370007BFE00214DF20A5001F076FE81214DF2C4
:104380000B5001F071FE00214DF20C5001F06CFE5B
:10439000A6214DF20D5001F067FE00214DF20E50A6
:1043A00001F062FEE5214DF20F5001F05DFE0121AA
:1043B0004DF2105001F058FE13214DF2115001F052
:1043C00053FE01214DF2125001F04EFE54214DF2E8
:1043D000135001F049FE01214DF2145001F044FE4A
:1043E00082214DF2155001F03FFE01214DF2165091
:1043F00001F03AFECA214DF2175001F035FE0221BC
:104400004DF2185001F030FE00214DF2195001F02C
:104410002BFE02214DF21A5001F026FE01214DF231
:104420001B5001F021FE02214DF21C5001F01CFE38
:1044300034214DF21D5001F017FE02214DF21E50A5
:1044400001F012FE67214DF21F5001F00DFE022116
:104450004DF2205001F008FE84214DF2215001F070
:1044600003FE02214DF2225001F0FEFDA4214DF287
:10447000235001F0F9FD02214DF2245001F0F4FD2A
:10448000B7214DF2255001F0EFFD02214DF22650EB
:1044900001F0EAFDCF214DF2275001F0E5FD0221A8
:1044A0004DF2285001F0E0FDDE214DF2295001F0DF
:1044B000DBFD02214DF22A5001F0D6FDF2214DF232
:1044C0002B5001F0D1FD02214DF22C5001F0CCFD1A
:1044D000FE214DF22D5001F0C7FD03214DF22E506B
:1044E00001F0C2FD10214DF22F5001F0BDFD03215E
:1044F0004DF2305001F0B8FD33214DF2315001F052
:10450000B3FD03214DF2325001F0AEFD6D214DF2AD
:10451000335001F0A9FD00214FF4564001F0A4FDF5
:1045200033214DF2016001F09FFD00214DF2026048
:1045300001F09AFD34214DF2036001F095FD002158
:104540004DF2046001F090FD3A214DF2056001F05A
:104550008BFD00214DF2066001F086FD4A214DF2EF
:10456000076001F081FD00214DF2086001F07CFD43
:104570005C214DF2096001F077FD00214DF20A60E7
:1045800001F072FD81214DF20B6001F06DFD002103
:104590004DF20C6001F068FDA6214DF20D6001F0B6
:1045A00063FD00214DF20E6001F05EFDE5214DF24C
:1045B0000F6001F059FD01214DF2106001F054FD32
:1045C00013214DF2116001F04FFD01214DF21260F7
:1045D00001F04AFD54214DF2136001F045FD012127
:1045E0004DF2146001F040FD82214DF2156001F0A2
:1045F0003BFD01214DF2166001F036FDCA214DF25E
:10460000176001F031FD02214DF2186001F02CFD20
:1046100000214DF2196001F027FD02214DF21A60D0
:1046200001F022FD01214DF21B6001F01DFD022170
:104630004DF21C6001F018FD34214DF21D6001F0B7
:1046400013FD02214DF21E6001F00EFD67214DF2B7
:104650001F6001F009FD02214DF2206001F004FD10
:1046600084214DF2216001F0FFFC02214DF2226015
:1046700001F0FAFCA4214DF2236001F0F5FC0221C7
:104680004DF2246001F0F0FCB7214DF2256001F0FD
:10469000EBFC02214DF2266001F0E6FCCF214DF249
:1046A000276001F0E1FC02214DF2286001F0DCFC02
:1046B000DE214DF2296001F0D7FC02214DF22A6083
:1046C00001F0D2FCF2214DF22B6001F0CDFC022171
:1046D0004DF22C6001F0C8FCFE214DF22D6001F07E
:1046E000C3FC03214DF22E6001F0BEFC10214DF2FF
:1046F0002F6001F0B9FC03214DF2306001F0B4FCF1
:1047000033214DF2316001F0AFFC03214DF23260F4
:1047100001F0AAFC6D214DF2336001F0A5FC55219A
:104720004FF4704001F0A0FCAA214FF2010001F00B
:104730009BFC52214FF2020001F096FC08214FF23F
:10474000030001F091FC00214FF2040001F08CFC09
:10475000CC214FF4314001F087FC00214BF20110D5
:1047600001F082FC05214FF4364001F07DFC702100
:104770004FF4374001F078FC70214BF2017001F0EA
:1047800073FC01214FF4384001F06EFC03214BF61D
:10479000010001F069FC03214BF6020001F064FC0A
:1047A00003214BF6030001F05FFC02214FF43C4073
:1047B00001F05AFC00214BF6014001F055FC0021AC
:1047C0004BF6024001F050FCD0214FF4494001F07B
:1047D0004BFC02214CF6011001F046FC50214CF636
:1047E000021001F041FC50214CF6031001F03CFC9A
:1047F00050214CF6041001F037FC00214FF45450C6
:1048000001F032FC55214FF4685001F02DFC4FF4BB
:10481000885001F013FC782002F0C4FA4FF42450C1
:1048200001F00CFC01F05EB9FE48808849F22531A8
:1048300088427DD147F6F001E52001F015FC4FF4E8
:104840008071012001F010FC4FF4E061022001F0C2
:104850000BFC41F23001032001F006FC0021042092
:1048600001F002FC40F20221082001F0FDFB0021D2
:10487000092001F0F9FB00210A2001F0F5FB0021DD
:104880000C2001F0F1FB00210D2001F0EDFB0021D7
:104890000F2001F0E9FB0021102001F0E5FB0721CA
:1048A000112001F0E1FB0021122001F0DDFB0021CD
:1048B000132001F0D9FB0021072001F0D5FB41F2C4
:1048C0009061102001F0D0FB40F22721112001F06F
:1048D000CBFB9D21122001F0C7FB4FF4C8511320E0
:1048E00001F0C2FB2521292001F0BEFB0D212B2068
:1048F00001F0BAFB0721302001F0B6FB40F2033192
:10490000312001F0B1FB0321322001F0ADFB40F278
:104910000621352001F0A8FB0821362001F0A4FB78
:1049200040F20641372001F09FFB4FF4417100E057
:1049300058E0382001F098FB0721392001F094FB62
:1049400040F202613C2001F08FFB08213D2001F084
:104950008BFB0021502001F087FBEF21512001F05B
:1049600083FB0021522001F07FFB40F23F115320D6
:1049700001F07AFB4FF42741602001F075FB012123
:10498000612001F071FB00216A2001F06DFB002124
:10499000802001F069FB0021812001F065FB0021EE
:1049A000822001F061FB0021832001F05DFB0021EA
:1049B000842001F059FB0021852001F055FB1021D6
:1049C000902001F051FB4FF4C061922001F04CFBAC
:1049D00040F23311072001F047FB2221002001F0B3
:1049E00043FB1FE78F48808849F2283188427DD1F8
:1049F00041F28F01EC2001F037FB41F23421EF202E
:104A000001F032FB4FF48071012001F02DFB4FF4D7
:104A1000E061022001F028FB41F23001032001F0A7
:104A200023FB0021042001F01FFB40F2022108209B
:104A300001F01AFB0021092001F016FB00210A20D9
:104A400001F012FB01210C2001F00EFB00210D20D2
:104A500001F00AFB00210F2001F006FB00211020CD
:104A600001F002FB0721112001F0FEFA00211220C3
:104A700001F0FAFA0021132001F0F6FA01210720D3
:104A800001F0F2FA322002F071F941F29041102067
:104A900001F0EAFA40F22721112001F0E5FA322074
:104AA00002F064F98A21122001F0DEFA322002F0CD
:104AB0005DF94FF4D051132001F0D6FA06212920D8
:104AC00001F0D2FA0D212B2001F0CEFA322002F0B3
:104AD0004DF90021202001F0C7FA0021212001F02A
:104AE000C3FA322002F042F9002100E075E03020E4
:104AF00001F0BAFA40F20461312001F0B5FA40F257
:104B00000531322001F0B0FA0021352001F0ACFA75
:104B100040F60941362001F0A7FA4FF40171372021
:104B200001F0A2FA40F20131382001F09DFA40F282
:104B30000771392001F098FA00213C2001F094FA25
:104B400040F60A213D2001F08FFA322002F00EF9E2
:104B50000021502001F088FAEF21512001F084FA61
:104B60000021522001F080FA40F23F11532001F061
:104B70007BFA4FF42741602001F076FA0121612091
:104B800001F072FA00216A2001F06EFA0021802003
:104B900001F06AFA0021812001F066FA00218220EA
:104BA00001F062FA0021832001F05EFA00218420E6
:104BB00001F05AFA0021852001F056FA10219020C8
:104BC00001F052FA4FF4C061922001F04DFA40F228
:104BD0003311072001F048FA24E61248808849F290
:104BE000203188427ED10021084601F03DFA4FF481
:104BF0008071012001F038FA4FF4E061022001F0E9
:104C000033FA41F23001032001F02EFA0021042092
:104C100001F02AFA40F20221082001F025FA0021D1
:104C2000092001E02482002001F01EFA00210A2060
:104C300001F01AFA01210C2001F016FA00210D20D2
:104C400001F012FA00210F2001F00EFA322002F0DA
:104C50008DF840F20111072001F006FA322002F02F
:104C600085F84FF48651102001F0FEF9072111203C
:104C700001F0FAF94FF48871122001F0F5F94FF4C0
:104C80003061132001F0F0F90021292001F0ECF946
:104C900044F210012B2001F0E7F90021502001F02F
:104CA000E3F9EF21512001F0DFF90021522001F05A
:104CB000DBF940F23F11532001F0D6F94FF41C51BB
:104CC000602001F0D1F90121612001F0CDF900212E
:104CD0006A2001F0C9F90021802001F0C5F9002106
:104CE000812000E030E001F0BFF90021822001F0D6
:104CF000BBF90021832001F0B7F90021842001F0E5
:104D0000B3F90021852001F0AFF91021902001F0C6
:104D1000ABF90021922001F0A7F90121932001F0C5
:104D2000A3F94FF48871952001F09EF90021972096
:104D300001F09AF90021982001F096F940F27311E0
:104D4000072001F091F96DE5FE48808849F2313184
:104D500088427DD141F21401E72001F085F94FF43A
:104D60008071012001F080F94FF40071022001F000
:104D70007BF941F23801032001F076F940F202217B
:104D8000082001F071F90021092001F06DF90021DE
:104D90000A2001F069F900210C2001F065F90021D9
:104DA0000D2001F061F900210F2001F05DF90021D3
:104DB000102001F059F90721112001F055F90021C7
:104DC000122001F051F90021132001F04DF9C82003
:104DD00001F0CCFF41F29061102001F045F940F262
:104DE0002721112001F040F9322001F0BFFF0C21F2
:104DF000122001F039F9322001F0B8FF4FF40061C0
:104E0000132001F031F91121292001F02DF90B2196
:104E10002B2001F029F9322001F0A8FF00212020E9
:104E200001F022F940F23F11212001F01DF900218B
:104E3000302001F019F94FF48371312001F014F999
:104E40000021322001F010F94FF40171352000E00B
:104E500064E001F009F941F20A61362001F004F939
:104E600040F20771372001F0FFF84FF483713820CA
:104E700001F0FAF840F20771392001F0F5F840F23C
:104E800002413C2001F0F0F840F60F413D2001F0D6
:104E9000EBF80021502001F0E7F8EF21512001F05C
:104EA000E3F80021522001F0DFF840F23F115320D7
:104EB00001F0DAF84FF41C51602001F0D5F801211F
:104EC000612001F0D1F800216A2001F0CDF8002125
:104ED000802001F0C9F80021812001F0C5F80021EF
:104EE000822001F0C1F80021832001F0BDF80021EB
:104EF000842001F0B9F80021852001F0B5F81021D7
:104F0000902001F0B1F84FF4C061922001F0ACF8AC
:104F100040F23311072001F0A7F883E48948808824
:104F200045F2084188427DD14FF48071012001F0A3
:104F30009BF84FF4E061022001F096F841F2300155
:104F4000032001F091F80021042001F08DF840F2D7
:104F50000721082001F088F80021092001F084F8D9
:104F600000210A2001F080F800210C2001F07CF8DB
:104F700000210D2001F078F800210F2001F074F8D5
:104F8000142001F0F3FE41F2B061102001F06CF842
:104F90000121112001F068F80121172001F064F8C7
:104FA0004FF49C71122001F05FF84FF40061132060
:104FB00001F05AF80921292001F056F809212A2088
:104FC00001F052F80021A42001F04EF800215020F9
:104FD00001F04AF8EF21512001F046F8002152205B
:104FE00001F042F840F23F11532001F03DF84FF438
:104FF0001C51602001F038F80121612001F034F8E3
:1050000000216A2001F030F80021802001F02CF806
:105010000021812001F028F80021822001F024F8ED
:10502000002100E024E0832001F01EF8002184200C
:1050300001F01AF80021852001F016F813219020C4
:1050400001F012F80021922001F00EF803219320C4
:1050500001F00AF84FF48871952001F005F840F24C
:105060007311072001F000F8322001F07FFEB8E450
:105070003448808841F2055188427DD100210720C3
:1050800000F0F2FF322001F071FE4FF48E71122019
:1050900000F0EAFF0121A42000F0E6FF0F21082024
:1050A00000F0E2FF08210A2000F0DEFF08210D20B9
:1050B00000F0DAFF40F20771302000F0D5FF072141
:1050C000312000F0D1FF40F20361322000F0CCFF2C
:1050D0004FF4E061332000F0C7FF40F2022134209A
:1050E00000F0C2FF0221352000F0BEFF41F60F7133
:1050F000362000F0B9FF40F20771372000F0B4FF0E
:105100000021382000F0B0FF0021392000F0ACFF72
:1051100040F207713A2000F0A7FF00213B2000F089
:10512000A3FF07213C2000F09FFF00213D2000F05D
:105130009BFF322001F01AFE0121072000F094FFAE
:10514000012101E024820020172000F08DFF322091
:1051500001F00CFE4FF4BD51102000F085FF40F22D
:105160001721112000F080FF4FF48F71122000F002
:105170007BFF4FF4706100E098E0132000F074FFB3
:1051800000212A2000F070FF0A21292000F06CFF86
:105190004FF49F71122000F067FF0021502000F0B3
:1051A00063FFEF21512000F05FFF0021522000F04B
:1051B0005BFF40F23F11532000F056FF4FF41C51AB
:1051C000602000F051FF0121612000F04DFF00211F
:1051D0006A2000F049FF0021802000F045FF0021F7
:1051E000812000F041FF0021822000F03DFF0021DE
:1051F000832000F039FF0021842000F035FF0021DA
:10520000852000F031FF1321902000F02DFF4FF496
:105210004071922000F028FF0521932000F024FF28
:105220000021952000F020FF0021972000F01CFFB6
:105230000021982000F018FF4FF48071012000F049
:1052400013FF4FF4E061022000F00EFF41F238013D
:10525000032000F009FF0021042000F005FF0021D9
:105260000C2000F001FF00210F2000F0FDFE0021C6
:10527000202000F0F9FE0021212000F0F5FE212180
:10528000072000F0F1FE142001F070FD61210720DD
:1052900000F0EAFE142001F069FD40F273110720CE
:1052A00000F0E2FE142001F061FD95E4FE488088E4
:1052B0004BF2055188427CD10021084600F0D4FE13
:1052C0000021084600F0D0FE0021084600F0CCFE88
:1052D0000021084600F0C8FE0121A42000F0C4FE11
:1052E000142001F043FD4FF41C51602000F0BCFE7F
:1052F00040F20221082000F0B7FE4FF40571302083
:1053000000F0B2FE43F21571312000F0ADFE40F224
:105310000461322000F0A8FE40F61661332000F050
:10532000A3FE42F21121342000F09EFE4FF4A8515A
:10533000352000F099FE48F20751362000F094FE27
:1053400041F20741372000F08FFE41F2034138203F
:1053500000F08AFE2021392000F086FE1A219020DC
:1053600000F082FE0021102000F07EFE07211120B7
:1053700000F07AFE0021122000F076FE00211320BA
:1053800000F072FE142001F0F1FC4FF4E6611020F1
:1053900000F06AFE40F23711112000F065FE142083
:1053A00001F0E4FC4FF4DC71122000F05DFE1420EB
:1053B00000E085E001F0DAFC4FF47061132000F0AA
:1053C00053FE80212A2000F04FFE4821292000F0C2
:1053D0004BFE142001F0CAFC4FF48071012000F054
:1053E00043FE4FF4E061022000F03EFE41F238013E
:1053F000032000F039FE40F20221082000F034FEC4
:1054000000210A2000F030FE00210C2000F02CFECC
:1054100000210D2000F028FE30210E2000F024FE97
:105420000021502000F020FEEF21512000F01CFE52
:105430000021522000F018FE40F23F11532000F0EE
:1054400013FE4FF41C51602000F00EFE012161207C
:1054500000F00AFE00216A2000F006FE11219020D3
:1054600000F002FE4FF4C061922000F0FDFD40F21A
:105470000241932000F0F8FD0221942000F0F4FD99
:10548000142001F073FC0121072000F0EDFD142031
:1054900001F06CFC6121072000F0E6FD40F2731181
:1054A000072000F0E1FD0021202000F0DDFD0021BB
:1054B000212000F0D9FD2221002000F0D5FD11E3CC
:1054C000794880884CF2055188427CD100210846F9
:1054D00000F0CAFD0021084600F0C6FD142001F0CE
:1054E00045FC0021084600F0BFFD0021084600F001
:1054F000BBFD0021084600F0B7FD0021084600F082
:10550000B3FD0121A42000F0AFFD142001F02EFC1A
:105510004FF41C51602000F0A7FD40F60601082062
:1055200000F0A2FD40F20371302000F09DFD01214A
:10553000312000F099FD0421322000F095FD4FF458
:105540008171332000F090FD4FF44071342000F061
:105550008BFD40F20311352000F086FD1F2136201F
:1055600000F082FD40F20371372000F07DFD012143
:10557000382000F079FD0421392000F075FD152157
:10558000902000F071FD4FF48261102000F06CFD5E
:1055900040F24721112000F067FD4FF4DE71122028
:1055A00000F062FD4FF46061132000F05DFD782093
:1055B00001F0DCFB4FF48071012000F055FD4FF449
:1055C0000071022000E052E000F04EFD41F2300197
:1055D000032000F049FD08210A2000F045FD0021CC
:1055E0000C2000F041FD20210E2000F03DFD0021A7
:1055F0000F2000F039FD0021202000F035FD0021B2
:10560000212000F031FD3D212A2000F02DFD142045
:1056100001F0ACFB2D21292000F026FD00215020B7
:1056200000F022FD4DF2EF01512000F01DFD0021A0
:10563000522000F019FD40F23F11532000F014FDFC
:105640000021612000F010FD00216A2000F00CFD17
:105650004FF44071922000F007FD0521932000F0E7
:1056600003FD4FF48071072000F0FEFC3AE20E4883
:10567000808844F2315188427ED10121002000F01F
:10568000F3FC0A2001F072FB41F22861102000F0C7
:10569000EBFC0E21122000F0E7FC40F6392113202C
:1056A00000F0E2FC0A2001E02482002001F05EFB11
:1056B0004021112000F0D8FC5021152000F0D4FC2E
:1056C0000A2001F053FB1E21122000F0CDFC0A201D
:1056D00001F04CFB4FF4B151102000F0C5FC42F634
:1056E0003921132000F0C0FC0A2001F03FFB4FF4E9
:1056F0008071012000F0B8FC4FF44071022000F0EE
:10570000B3FC41F23801032000F0AEFC40F202216C
:10571000082000F0A9FC08210A2000F0A5FC0021C7
:10572000302000F0A1FC40F20241312000F09CFC4E
:105730004FF48371322000F097FC40F20351332084
:1057400000F092FC4FF48271342000F08DFC40F2A6
:105750000131352000F088FC40F20771362000F05E
:1057600083FC40F20531372000F07EFC4FF40271DB
:10577000382000F079FC00E03EE040F60B71392063
:1057800000F072FC0221412000F06EFC4FF41C512D
:10579000602000F069FC0121612000F065FC4FF4FD
:1057A0000471902000F060FC4FF48571922000F0AD
:1057B0005BFC0421932000F057FC4FF48071A02083
:1057C00000F052FC0121072000F04EFC21210720AF
:1057D00000F04AFC2321072000F046FC332107207B
:1057E00000F042FC40F23311072000F03DFC0021A4
:1057F000A02000F039FC75E1C048808844F23551A2
:1058000088427CD13021152000F02EFC10219A20F6
:1058100000F02AFC2021112000F026FC43F2284150
:10582000102000F021FC0221122000F01DFC41F2AA
:105830003801132000F018FC282001F097FA1221FB
:10584000084600F011FC282001F090FA43F22041B4
:10585000102000F009FC43F23801132000F004FC92
:10586000462001F083FA0021302000F0FDFB40F2D9
:105870000241312000F0F8FB40F20731322000F005
:10588000F3FB4FF44171332000F0EEFB0421342090
:1058900000F0EAFB40F20141352000F0E5FB40F268
:1058A0000771362000F0E0FB40F20531372000F0B0
:1058B000DBFB4FF4C261382000F0D6FB4FF4C2612D
:1058C000392000F0D1FB4FF48071012000F0CCFBB7
:1058D0004FF44071022000F0C7FB41F23001032079
:1058E00000F0C2FB40F60801082000F0BDFB0821D3
:1058F0000A2000F0B9FB4FF41C51602000E033E0B7
:1059000000F0B2FB0121612000F0AEFB4FF49F716B
:10591000902000F0A9FB4FF48071922000F0A4FBCE
:105920004FF48071932000F09FFB4FF44051A02072
:1059300000F09AFB1021A32000F096FB0121072024
:1059400000F092FB2121072000F08EFB232107208D
:1059500000F08AFB3321072000F086FB40F2331170
:10596000072000F081FBBDE06448808841F66311A8
:105970008842F8D1E22000F061FB1D2000F052FBCC
:10598000022000F04FFB042000F04CFB642001F0EB
:1059900009FAE02000F052FB012000F043FB0A204E
:1059A00001F0E4F9E02000F049FB032000F03AFBAD
:1059B0000C2001F0DBF9012000F040FB0A2001F08F
:1059C000D5F9E62000F03AFB2F2000F02BFBFF205A
:1059D00000F028FBFF2000F025FBB02000F02EFB9C
:1059E000202000F01FFB002000F01CFB032000F033
:1059F00019FB40F21F3000F015FB012000F012FBF4
:105A000040F2DF1000F00EFB002000F00BFBB42092
:105A100000F014FB042000F005FB40F21F4000F0F2
:105A200001FB002000F0FEFA2E2000F0FBFA00201F
:105A300000F0F8FA002000F0F5FA002000F0F2FA89
:105A4000002000F0EFFAB62000F0F8FA022000F093
:105A5000E9FA4FF4037000F0E5FA002000F0E2FAF2
:105A6000172000F0DFFA152000F0DCFA002000F02B
:105A7000D9FA002000F0D6FAF02000F0DFFA032077
:105A800000F0D0FA292000F0D9FAD02000F0D6FAA0
:105A9000002000F0C7FABE2000F0D0FA052000F088
:105AA000C1FAFE2000F0BEFA012000F0BBFA00208F
:105AB00000F0B8FA002000F0B5FA002000F0B2FAC9
:105AC000B82000F0BBFA032000F0ACFA012000F08F
:105AD000A9FABA2000F0B2FA012000F0A3FA64207B
