:020000040800F2
:10000000E86C00209D010008FD190008F5190008A2
:10001000F9190008F11300080F2200080000000081
:10002000000000000000000000000000191C000893
:100030001D190008000000008D1A0008311D00087D
:10004000B7010008B7010008B7010008B7010008B0
:10005000B7010008B7010008B7010008B7010008A0
:10006000B7010008B7010008B7010008B701000890
:10007000B7010008B7010008B7010008B701000880
:10008000B7010008B7010008B7010008B701000870
:10009000B7010008B7010008B7010008B701000860
:1000A000B7010008B7010008B7010008B701000850
:1000B000B7010008B7010008B7010008B701000840
:1000C000B7010008B7010008B7010008B701000830
:1000D000B7010008F11F0008B7010008B7010008C8
:1000E000B7010008B7010008B7010008B701000810
:1000F000B7010008B7010008B7010008B701000800
:10010000B7010008B7010008B7010008B7010008EF
:10011000B7010008B7010008B7010008B7010008DF
:10012000A9140008B7010008B7010008B7010008CA
:10013000B7010008B7010008B7010008B7010008BF
:10014000B7010008B7010008B7010008B7010008AF
:10015000B7010008B7010008B7010008B70100089F
:10016000B7010008B7010008B7010008B70100088F
:10017000B7010008B7010008B7010008B70100087F
:10018000B7010008B7010008DFF80CD000F0C6FE88
:1001900000480047852C0008E86C0020064880478E
:1001A00006480047FEE7FEE7FEE7FEE7FEE7FEE75C
:1001B000FEE7FEE7FEE7FEE7351D000889010008BF
:1001C0002DE9F04F8D082DED048B82B00026AC4652
:1001D0003446019506EB0C0909EB0C0A0AEB0C08F6
:1001E00000EBC60700EBC90900EBCA0A00EBC80820
:1001F00097ED003AD9ED003ADAED006A98ED006A21
:1002000097ED010ADAED014A33EE265A73EE860ABB
:1002100099ED014AD8ED015A30EE241A4FEA440B09
:1002200002EBCB0E70EE644A74EE251A35EE200A0E
:100230009EED002ADEED012A87ED000A31EE210A4B
:1002400073EEC63A34EE656A87ED010A35EE600A50
:1002500033EE663A71EE610A02EBC40774EEE35ABC
:1002600033EE064A97ED005A73EEA41AD7ED014A11
:1002700033EE461A24EE056A0BEB040725EE855A89
:1002800002EBC70760EE026A65EEA45A24EE244A28
:1002900097ED003AD7ED013A60EEA24A20EE822AAD
:1002A00021EE037A20EE220A61EEA30A21EE833AC0
:1002B00061EE231A76EEA42A32EE400A36EE251AB3
:1002C00075EE443AC9ED002A77EE200A89ED010A5D
:1002D00073EE611A8AED001ACAED013AC8ED000A00
:1002E000C8ED011A1C446D1E06F101067FF472AFC1
:1002F0004FF6FF7404EA830B019B0093042B7CD917
:1003000066464FEA9C0C4FF00008C146ACF1010E66
:100310004FEA480303EB080402EBC30302EBC805F2
:1003200093ED003AD3ED014A02EBC40395ED005A78
:10033000D5ED015A93ED006A93ED014AD8444B463E
:1003400003EB0C0404EB0C0707EB0C0A00EBC305F2
:1003500000EBC70700EBC40400EBCA0AD5ED003A76
:1003600097ED007AD4ED008A9AED008A95ED010AA6
:10037000D4ED010AD7ED017ADAED011A33EEC72A7E
:1003800070EE676A70EEE12A33EE877A78EE883A8B
:1003900030EE270A38EEC81A70EEA11A72EE227AF1
:1003A00032EE622A77EE232A70EE618A36EEC18A37
:1003B00030EE210A77EE630A31EE261AC5ED002AE7
:1003C00085ED010A28EE050A67EE856A28EE258A82
:1003D00020EE837A20EEA49A68EE831A62EE062A53
:1003E00061EE063A62EE040A67EEA57A68EEA48A28
:1003F00021EE041A36EE882A00E027E077EE286A1C
:1004000071EEC91A30EE670AC4ED006A32EE811A45
:10041000C4ED011A73EEE00A87ED002A87ED010AA8
:100420008AED001A3344CAED010A8B4288D309F1E0
:100430000109F1457FF66CAF4FF6FF7303EA8B0BB2
:10044000009B9B080093042B3FF65AAFDDF8041085
:1004500090ED000AD0ED042A90ED025A90ED031AB7
:10046000D0ED064A90ED073A30EE222AD0ED011A7F
:10047000D0ED050A75EE243A31EE034A30EE620AF9
:1004800071EEA02A31EE431A32EE233A71EEE00A01
:1004900075EE641A72EE844A32EE632A72EEC43A42
:1004A00080ED003A70EE012AC0ED014A30EEE14ADB
:1004B00080ED022A30EE410AC0ED033A71EEA00A47
:1004C000C0ED042A80ED054A80ED060AC0ED070A5A
:1004D0002030491EBCD102B0BDEC048BBDE8F08FCA
:1004E0002DE9F04F4FEA910A2DED048B82B00024E4
:1004F000D446A046CDF804A004EB0C0505EB0C0691
:1005000006EB0C0900EBC40700EBC60600EBC505C3
:1005100000EBC909D7ED011AD6ED012A95ED006A65
:10052000D9ED006AD7ED005A96ED007AD5ED010AB3
:1005300099ED011A36EE262A71EEA23A35EE873A87
:1005400071EEE21A30EE815A70EEC12A4FEA480B82
:1005500002EBCB0E73EE020A9EED004ADEED014A7D
:10056000C7ED000A73EE850A36EE666A75EEC75A65
:10057000C7ED010A33EE422A02EBC80731EE861AB4
:1005800033EEC53A71EEC61A97ED006A97ED015A3F
:1005900075EEE20A0BEB080702EBC70775EEA22A1D
:1005A000D7ED005AD7ED013A60EE866A22EE047A62
:1005B00062EEA57A23EE044A21EE066A61EEA55AA0
:1005C00060EE850A23EE243A22EE242A21EE051A53
:1005D00061EEA31A62EEA32A76EE203A37EE433A92
:1005E00074EE020A36EEC11A85ED003A77EEE11A92
:1005F000C5ED010A35EEA22A86ED001AC6ED013AD4
:10060000C9ED001A641C89ED012A9844BAF1010A67
:100610007FF472AF4FF6FF7404EA830B019B0093E3
:10062000042B7CD966464FEA9C0C4FF00008C1466B
:10063000ACF1010E4FEA480303EB080402EBC303DD
:1006400002EBC805D3ED003A93ED017A02EBC40347
:10065000D5ED006AD5ED015AD3ED004A93ED013A8C
:10066000D8444B4603EB0C0404EB0C0707EB0C0AD5
:1006700000EBC30500EBC70700EBC40400EBCA0A9C
:1006800095ED012A97ED018A95ED001AD4ED008AC7
:10069000D4ED017A97ED009ADAED001ADAED010A4D
:1006A00032EE485A71EE492A38EEE14A32EE082A13
:1006B00037EEA08A37EEE06A78EEA11A31EE091A19
:1006C00075EE048A72EEC67A72EE862A71EE610ABF
:1006D00031EE211A35EE444A32EE489A85ED001A81
:1006E00032EE081A28EEA66A27EEA65A68EEA58A08
:1006F00085ED011A20EEA31A69EE231A22EEA42A30
:1007000024EE248A67EEA57A29EE079A60EE870A1E
:1007100024EE034A62EE832A35EE685A00E027E0B1
:1007200036EE276A71EE497A31EEA01A72EE440A6B
:10073000C4ED007A84ED011A78EE221A87ED005A92
:1007400087ED016ACAED000A3344CAED011A8B42F3
:1007500088D309F10109F1457FF66CAF4FF6FF73BD
:1007600003EA8B0B009B9B080093042B3FF65AAFC8
:10077000DDF8041090ED003AD0ED044AD0ED032AE4
:1007800090ED071A90ED024AD0ED061AD0ED013A2D
:10079000D0ED050A33EE242A72EE815A33EE643A24
:1007A00034EE215A73EEA04A73EEE03A32EEC11AEB
:1007B00074EE610A32EE454A72EE052A74EEA51A0D
:1007C00034EEE55A73EE414A33EEA02A33EE011AB5
:1007D00033EEE03A62EE805A61EE800A64EE003A4F
:1007E00065EE002AC0ED005A64EE801AC0ED010AE1
:1007F00022EE002AC0ED023A21EE004AC0ED032AA3
:1008000023EE001AC0ED041A80ED052A80ED064A99
:1008100080ED071A2030491EACD102B0BDEC048B2C
:10082000BDE8F08F70B504460D4680782188A38915
:10083000626801280ED02846FFF7C2FCE078012844
:1008400018BF70BDE28921882846A368BDE87040C2
:1008500000F066B894ED040A2846FFF741FEEDE784
:1008600010B40180234C446082704FF0000CC370C0
:10087000B1F5807F20D004DC10292FD0402923D06F
:1008800005E0B1F5806F0FD0B1F5805F04D04FF077
:10089000FF3C10BC6046704701218181C18116492F
:1008A0009FED160A816016E004218181C1811449FF
:1008B0009FED140A81600EE010218181C1811249EF
:1008C0009FED120A816006E040218181C1811049BB
:1008D0009FED100A816080ED040ADAE74FF4807121
:1008E0008181C1810C499FED0D0A816080ED040A70
:1008F000CFE7000084360008842E0008000080390D
:100900008A2E00080000803AA22E00080000803BDA
:10091000022F00080000803C823000080000803D6B
:100920002DE9F0014E0801244FF0000C04EB5107B3
:100930006146A6F102082CE061452AD200EBCC0505
:1009400000EBC104D5ED000A94ED000AC4ED000AE5
:1009500085ED000AD5ED010A94ED010AC4ED010A06
:1009600085ED010ACC1900EBC4050CEB070400EB84
:10097000C40495ED000AD4ED000AC5ED000A84ED2B
:10098000000AD4ED010A95ED010AC5ED010A84EDD6
:10099000010A00EBC104B44400EBCC0C94ED020A54
:1009A000DCED000A891CC4ED020A8CED000ADCEDC6
:1009B000010A94ED030AC4ED030A8CED010AB3F8B1
:1009C00000C089B203EB42034145B5D9BDE8F0014F
:1009D00070472DE9F0074D0801244FF0000C04EB9F
:1009E00051066146A5F102082BE0614529D250F875
:1009F000314050F83C7040F8317040F83C4000EB1A
:100A0000C10900EBCC04D9F80470D4F804A0C9F8EB
:100A100004A067608C190CEB060750F8349050F86E
:100A200037A040F834A040F8379000EBC40400EB46
:100A3000C707D4F80490D7F804A0C4F804A0C7F8F6
:100A4000049000EBC104AC44A76850F83C90C4F893
:100A5000089040F83C7000EBCC0CE768DCF80490A0
:100A6000C4F80C90CCF80470B3F800C0891C03EBF8
:100A700042034145B9D9BDE8F00770472DE9F00FB1
:100A800001244F0804EB51084FF0000C7C0804BF10
:100A9000BDE8F00F7047014600EB8805002614E022
:100AA000BCEB460F11D950F82CA0D1F80090C1F83A
:100AB00000A040F82C900CEB0809D5F800A050F8E5
:100AC00029B0C5F800B040F829A0BC4451F8049FF3
:100AD00050F82CA041F804AB40F82C90B3F800C0BB
:100AE00003EB4203641E05F1080506F10106D7D1A8
:100AF000BDE8F00F704700F0004230F000400AD02F
:100B0000C10D01F56071C0F3160042EA0151C2083F
:100B100040071143704700200146704730B50B462F
:100B2000014600202022012409E021FA02F59D421D
:100B300005D303FA02F5491B04FA02F52844151EF1
:100B4000A2F10102F1DC30BD2DE9F05F0546002085
:100B500092469B4688460646814640241BE028462E
:100B600041464746224600F0FAF953465A46C01A13
:100B7000914110D311461846224600F0E1F92D1A92
:100B800067EB01084F4622460120002100F0D8F90A
:100B900017EB00094E41201EA4F10104DFDC48469A
:100BA00031462A464346BDE8F09F2DE9FE4F804678
:100BB00081EA0300C00F0C46009021F0004123F0B1
:100BC0000045B8EB0200A94105D2404621469046B7
:100BD0001C460B46024623F00040104347D0270D29
:100BE000C7F30A00C3F30A510290401A019040284B
:100BF0006BDAC3F3130040F4801B0098924620B1D7
:100C00000023D2EB030A63EB0B0B01985946C0F1AA
:100C10004002504600F094F906460D4650465946AB
:100C2000019A00F0ACF910EB08006141002487EA5A
:100C3000115284EAE7731A4340D0009A62B3019AD2
:100C4000012A4FEA075215DC001B61EB02014FF04D
:100C5000004202EA0752CDE90042001C41F5801132
:100C600032462B4600F0ACF903B0BDE8F08F4046A9
:100C70002146F9E7001B61EB0201001C41F58013DE
:100C800000185B412018A2F5001747EB030140EA6A
:100C9000D570B6196D4111E06D084FEA360645EA88
:100CA000C0754FEA0752001B61EB0201001C41F5C1
:100CB000801149084FEA30000019514132462B4655
:100CC00003B0BDE8F04F00F06CB90098012240007D
:100CD0000023D0EB020263EBE073009821464FEA59
:100CE000E074B8EB000061EB0401E9E783F0004336
:100CF0005BE781F0004158E72DE9FE4F81EA0304EC
:100D000004F0004421F0004100944FF0000B23F068
:100D1000004350EA01045ED052EA03045BD0C3F3FF
:100D20000A54C1F30A552C44A4F2F3340194A0FBF5
:100D30000254C1F3130141F48011C3F3130343F4CC
:100D4000801301FB024400FB034E840A970A44EA25
:100D5000815447EA8357A4FB076802958D0A05FB77
:100D600007854FEA932C04FB0C542705029D4FEA9C
:100D7000065847EA1637B5EB08056EEB070C870EE9
:100D8000920E47EA811742EA8312A7FB0201B6EBF3
:100D90000B0164EB00042B0D43EA0C335E1844EBAB
:100DA0001C50DA465146E7FB0201C5F313044FEA33
:100DB0000B3343EA14534FEA0432019C43EA06031F
:100DC000A4F10C040294009CCDE900B400F0F8F802
:100DD00003B0BDE8F08F00200146F9E72DE9F04DA2
:100DE00081EA030404F0004B21F0004514464FF063
:100DF000000A23F0004150EA050220D054EA010223
:100E00001DD0C5F30A570246C5F31303C1F31300FF
:100E1000C1F30A5640F4801543F48013A7EB06088B
:100E2000101BD64608F2FD3873EB050002D308F11B
:100E3000010801E092185B41B8F1000F03DA0020CD
:100E40000146BDE8F08D00204FF48011064684462F
:100E50000EE0171B73EB050705D3121B63EB0503AD
:100E600006434CEA010C49084FEA300092185B41F6
:100E700050EA0107EDD152EA030012D082EA0400E1
:100E800083EA0501084305D0101BAB4106D20122BD
:100E9000002306E000224FF0004302E06FF0010261
:100EA00053101AEB06004CEB085110EB0A0041EB13
:100EB0000B01BDE8F04D00F074B8C1F30A52C1F364
:100EC000130140F2FF3341F480119A4202DA00200C
:100ED0000146704740F233439A42A2F2334202DCA9
:100EE000524200F03CB800F02BB8000030B5041EB0
:100EF00071F1000404DB4FF00044404264EB010157
:100F0000141E73F1000405DB1C464FF000435242EF
:100F100063EB0403994208BF904230BD064C074D75
:100F200006E0E06840F0010394E8070098471034B9
:100F3000AC42F6D3FFF72CF984B60008A4B600083B
:100F4000202A04DB203A00FA02F100207047914089
:100F5000C2F1200320FA03F3194390407047202A7E
:100F600004DB203A21FA02F00021704721FA02F353
:100F7000D040C2F120029140084319467047202A10
:100F800006DBCB17203A41FA02F043EAE07306E0B1
:100F900041FA02F3D040C2F12002914008431946C1
:100FA000704710B5141E73F1000408DA401C41F1BB
:100FB000000192185B411A4301D120F0010010BDDD
:100FC0002DE9F04D92469B4611B1B1FA81F202E053
:100FD000B0FA80F220329046FFF7B2FF04460F4687
:100FE00040EA0A0041EA0B0153465A46084313D02F
:100FF000114653EA010019D0C8F140025046FFF7EC
:10100000AEFF05460E46504659464246FFF798FF4A
:10101000084305D0012004E020463946BDE8F08DA4
:101020000020054346EAE0762C4337430A986305DF
:10103000E40AA0EB08000022FD0A44EA47540A3003
:1010400002D500200146E9E7010510196941DDE9F3
:10105000084500196941BDE8F04DA2E770B58D184B
:1010600010F8014B14F0030201D110F8012B2311E9
:1010700006D110F8013B03E010F8016B01F8016B99
:10108000521EF9D1ABB110F8012B04F00C048A1AEE
:101090000C2C03D0A2EB84129B1C08E010F8014B2F
:1010A000A2EB0422F8E712F8014B01F8014B5B1E9A
:1010B000F9D5A942D4D3002070BD21B1826842F095
:1010C0000102826003E0826822F0010282607047C0
:1010D0000021084A1168084A1140D0E900231A4348
:1010E00083681A43C3681A431143044AC2F80413BD
:1010F0007047000004230140E030FCFF0020014065
:1011000021B1826842F48072826003E0826822F436
:1011100080728260704721B1826842F400728260FE
:1011200003E0826822F400728260704730B50246A4
:10113000002000235068104C20400D790C6844EAD0
:1011400005242043506090680C4C2040D1E90354A2
:101150002C438D682C434D7944EA4504204390602C
:10116000D06A20F470000C7D641EE4B2234340EA90
:101170000350D06230BD0000FFFEFFFCFDF7FFC052
:10118000F0B504460D4600200021092D11DDE06870
:10119000A5F10A0606EB4607072606FA07F188437B
:1011A000A5F10A0606EB460603FA06F10843E060DD
:1011B0000CE0206905EB4507072606FA07F188438E
:1011C00005EB450603FA06F108432061072A0FDA0A
:1011D000606B561E06EB86071F2606FA07F188434A
:1011E000561E06EB860605FA06F10843606322E008
:1011F0000D2A0FDA206BD61F06EB86071F2606FA8C
:1012000007F18843D61F06EB860605FA06F1084368
:10121000206310E0E06AA2F10D0606EB86071F26A8
:1012200006FA07F18843A2F10D0606EB860605FAD9
:1012300006F10843E062F0BD816841F080418160C1
:101240007047000000B59FB00121084600F030FC57
:101250000121084600F01CFC0121080200F048FCB6
:101260000121880500F014FC4FF0804000F0A2FD41
:101270001AA800F0B3FE40F633001B900020ADF832
:101280006800ADF87000ADF86A001AA94FF0804010
:1012900000F062FE2021480600F054FE012188077C
:1012A00000F07CFD4D4800F05DF900200B904C48AB
:1012B0000D904C480C9000200E904FF480600F90E1
:1012C000002010904FF48060119040001290800038
:1012D00013904011149040021590002016900120A8
:1012E00017900020189019904FF400223E493B4877
:1012F00000F0EFF90121394800F0E0F90BA9374877
:1013000000F04EFA0121354800F020F91021334851
:1013100000F002F901221021304800F023FA0121E7
:101320002E4800F013F920201D9003208DF878003E
:1013300000208DF87B001DA92C4800F0F0FA4FF436
:10134000A06000F099FB38208DF8280000208DF86F
:1013500029008DF82A0001208DF82B000AA800F042
:101360004FFB00200090039002904FF480300190DA
:101370006846FFF7ADFE002004908DF814008DF84C
:1013800015004FF0C06007904FF08050069000208D
:10139000089001208DF8240004A912484C38FFF76A
:1013A000C5FE0723012205210E484C38FFF7E8FE51
:1013B00001210C484C38FFF7AEFE012109484C389A
:1013C000FFF79EFE012107484C38FFF776FE0548DF
:1013D0004C38FFF731FF1FB000BD00001064024021
:1013E0001C0800204C2001401C100020000002407E
:1013F00000BFFEE739B1084A1268012383401A434F
:10140000054B1A6006E0044A1268012383409A43A0
:10141000014B1A60704700000074004041B1094A56
:1014200012684FF4805383401A43064B1A6007E05A
:10143000044A12684FF4805383409A43014B1A6068
:10144000704700000074004030B5002200230A4CB1
:10145000226840F6FE748440A243D1E900452C4343
:101460008D682C43CD6844EA050303FA00F4224357
:10147000014C226030BD00000074004008B500221D
:101480000092054A009200F10802009B1A44009263
:10149000009A116008BD0000007400400021016046
:1014A00041608160C160704710B50024144915483F
:1014B00000F026F910B31249124800F02DF8114837
:1014C00000F013F968B100BF07E00F4830F81400CE
:1014D0000E4921F81400601C84B2B4F5806FF4DB6F
:1014E0000CE0002407E00A4830F81400094921F80C
:1014F0001400601C84B2B4F5806FF4DB10BD0000F2
:1015000020800010106402401C0800200000002011
:101510001C1000201C1800200246094B9A4201D2E0
:10152000084801E00648103801F000531BB1064B93
:101530000B40C36002E0044B0B4083607047000027
:1015400010640240006002407D0F7D0F21B10268EF
:1015500042F00102026003E0026822F00102026030
:1015600070470000016821F0010101600021016065
:1015700041608160C1600161212141614A49884225
:1015800004D13D21484A103A91608CE04649183117
:10159000884205D14FF47461434A103A916082E069
:1015A00041493031884205D14FF474113E4A103A16
:1015B000916078E03C494831884205D14FF0746130
:1015C000394A103A91606EE037496031884204D15F
:1015D0003649354A103AD16065E03349783188425E
:1015E00004D13349304A103AD1605CE02E49903141
:1015F000884204D12F492C4A103AD16053E02A493D
:10160000A831884205D14FF03D51274A103AD160A8
:1016100049E02949884204D13D21274A083A11600E
:1016200041E025491831884205D14FF47461224ABE
:10163000083A116037E020493031884205D14FF433
:1016400074111D4A083A11602DE01B494831884247
:1016500005D14FF07461184A083A116023E0164929
:101660006031884204D11149134A121F11601AE0F7
:1016700011497831884204D10D490F4A121F116077
:1016800011E00D499031884204D10A490A4A121FDB
:10169000116008E00849A831884204D14FF03D515B
:1016A000054A121F11607047106002403D00002083
:1016B000400F002000003D201064024021B102686C
:1016C00042F48022026003E0026822F48022026079
:1016D000704722B1036843F40023036003E003680A
:1016E00023F40023036001617047014600200A686B
:1016F00002F400220AB1012000E00020704700003F
:1017000070B50246002000240025124EB24201D2DC
:10171000114B01E00F4B103B104E0E4036B11E2610
:1017200006EAD124166806EA040502E0566906F0C6
:10173000800501F000560EB15C6800E01C68084EA0
:10174000344004EA010616B10DB1012000E000208A
:1017500070BD000010640240006002403C0F3C0F6E
:101760007D0F7D0F10B501F080034BB122B14369AD
:1017700043F08003436103E0436923F08003436146
:1017800080290BD02AB1036801F01E0423430360B3
:1017900004E0036801F01E04A343036010BD0000D1
:1017A00010B500220268134B1A40CC680B68234323
:1017B0004C6923438C692343CC6923430C6A23433C
:1017C0004C6A23438C6A23434C6B23438C6B234327
:1017D0001A430260426922F00702D1E90B34234325
:1017E0001A4342610B6943604B6883608B68C36036
:1017F00010BD00003F801CF000210160416081604D
:10180000C160016141618161C161016241628162C6
:10181000C1620163416381637047000000B595B008
:101820000121084600F034F90121480700F040F991
:101830000121480500F02CF91020139003208DF8A9
:10184000500002208DF8530013A92F4800F067F8CC
:101850000FA8FFF723FE24200F90002010900220F5
:1018600012900FA90020FFF7EFFD00210846FFF7B7
:1018700005FE01210020FFF7BDFD01210020FFF73B
:10188000CDFD6846FFF7B8FF2048FFF76BFE4FF02D
:10189000606000901E4801901E4802904020039016
:1018A00000010490002005904FF4806006904000F5
:1018B0000790800008904FF440300A9000200B9071
:1018C00001200C9000200D900E904FF48070099034
:1018D000C20211490D48FFF7FCFE01210B48FFF73A
:1018E000EDFE69460948FFF75BFF01210748FFF756
:1018F0002DFE01210020FFF77DFD01210020FFF7D3
:101900008DFD15B000BD000000000240886002405F
:1019100008740040000000201C1800207047F0B53B
:101920000A4600210023002400BF3DE0012505FAFE
:1019300001F3156805EA03049C4234D105684F00A1
:101940000326BE40B543056015794E00B5400668D4
:10195000354305601579012D02D01579022D16D178
:1019600085684F000326BE40B543856055794E001B
:10197000B540866835438560456801268E40B5438D
:101980004560456896798E40B6B235434560C56876
:101990004F000326BE40B543C560D5794E00B54023
:1019A000C6683543C560491C1029BFD3F0BDF0B5EA
:1019B000002300244D07ED0E02FA05F3CE1000F1CE
:1019C000200555F826504E07F70E0F26BE40B543AA
:1019D000CF1000F1200646F82750CE1000F1200568
:1019E00055F8265045EA0304CE1000F1200545F8CD
:1019F0002640F0BD00BFFEE700BFFEE770470000D5
:101A000070B5002100230F22C4781CB3174C246842
:101A100004F4E064C4F5E064C4F30721C1F10404F4
:101A2000E3B20A4144789C40E1B2847814402143F7
:101A30000C07210E0E4C05786155047804F01F0543
:101A40000124AC4005786D11AD0005F1E025C5F825
:101A5000004109E0047804F01F050124AC40054D65
:101A60000678761145F8264070BD00000CED00E0C8
:101A700000E400E080E100E002490143024A116015
:101A8000704700000000FA050CED00E07047000010
:101A900029B1064A12680243044B1A6004E0034A63
:101AA00012688243014B1A607047000030380240D0
:101AB00029B1064A12680243044B1A6004E0034A43
:101AC00012688243014B1A607047000040380240A0
:101AD00029B1064A12680243044B1A6004E0034A23
:101AE00012688243014B1A607047000020380240A0
:101AF00029B1064A12680243044B1A6004E0034A03
:101B000012688243014B1A6070470000443802405B
:101B100029B1064A12680243044B1A6004E0034AE2
:101B200012688243014B1A6070470000243802405B
:101B3000F0B5002100220024022500260223324FA6
:101B40003F6807F00C0121B1042905D0082937D1DD
:101B500005E02E4F076036E02D4F076033E02A4F37
:101B60003F1F3F68C7F38056274F3F1F3F6807F06E
:101B70003F036EB1264FB7FBF3F7DFF88CC0ACF133
:101B8000040CDCF800C0CCF3881C07FB0CF40CE060
:101B90001E4FB7FBF3F7DFF870C0ACF1040CDCF8B4
:101BA00000C0CCF3881C07FB0CF4174F3F1F3F68A5
:101BB000C7F301477F1C7D00B4FBF5F7076002E027
:101BC000124F076000BF00BF0F4F3F6807F0F001E2
:101BD0000909104F7A5C0768D74047600A4F3F6891
:101BE00007F4E051890A0B4F7A5C4768D740876059
:101BF000054F3F6807F46041490B064F7A5C476820
:101C0000D740C760F0BD0000083802400024F4004F
:101C100000127A000A080020704700000CB500206E
:101C2000019000903448006840F4803032490860E8
:101C300000BF3148006800F4003000900198401C5B
:101C40000190009818B90198B0F5A04FF1D12A4839
:101C5000006800F4003010B10120009001E0002085
:101C600000900098012846D123484030006840F099
:101C700080502149403108602048006840F44040CD
:101C80001E4908601C48083000681B49083108607C
:101C90000846006840F4004008600846006840F4C8
:101CA000A05008601648091F0860081F006840F02F
:101CB0008070091F086000BF0F48006800F00070C6
:101CC0000028F9D040F205700E4908600A48083033
:101CD000006820F0030008490831086008460068E1
:101CE00040F00200086000BF03480830006800F0C0
:101CF0000C000828F8D10CBD0038024000700040EC
:101D000008544007003C0240042808D14FF0E0216D
:101D1000096941F004014FF0E022116107E04FF042
:101D2000E021096921F004014FF0E02211617047C0
:101D30007047000010B51548006840F47000134962
:101D400008601348006840F0010011490860002055
:101D50000F49083108600E4800680E4908400C49D8
:101D600008600D48091D0860081F006820F48020E5
:101D7000091F0860002006490C310860FFF74EFF7C
:101D80004FF0006001498039086010BD88ED00E027
:101D900000380240FFFFF6FE1030002421B1028817
:101DA00042F00102028004E002884FF6FE731A40FE
:101DB0000280704710B504465548844208D101217D
:101DC0000846FFF7A5FE00210120FFF7A1FE9DE0D8
:101DD000B4F1804F08D101210846FFF779FE0021B8
:101DE0000120FFF775FE91E04A48844208D10121A5
:101DF0000220FFF76DFE00210220FFF769FE85E05B
:101E00004548844208D101210420FFF761FE0021EA
:101E10000420FFF75DFE79E04048844208D10121AB
:101E20000820FFF755FE00210820FFF751FE6DE066
:101E30003B48844208D101211020FFF749FE0021D0
:101E40001020FFF745FE61E03648844208D10121A9
:101E50002020FFF73DFE00212020FFF739FE55E04E
:101E60003148844208D101210220FFF751FE0021B0
:101E70000220FFF74DFE49E02C48844209D10121A0
:101E80000804FFF745FE00214FF48030FFF740FEC5
:101E90003CE02748844209D101214804FFF738FE7D
:101EA00000214FF40030FFF733FE2FE02148844239
:101EB00009D101218804FFF72BFE00214FF4802077
:101EC000FFF726FE22E01C48844208D10121402071
:101ED000FFF7FEFD00214020FFF7FAFD16E017484E
:101EE000844208D101218020FFF7F2FD00218020EB
:101EF000FFF7EEFD0AE01248844207D10121801568
:101F0000FFF7E6FD0021A015FFF7E2FD10BD000080
:101F1000000001400004004000080040000C0040A8
:101F20000010004000140040000401400040014047
:101F3000004401400048014000180040001C0040DF
:101F40000020004082884FF68F731A40828082887A
:101F50000A4382807047000000220288184B984292
:101F60000ED0184B98420BD0B0F1804F08D0164BD2
:101F7000984205D0154B984202D0154B984204D197
:101F80004FF68F731A404B881A43124B984207D072
:101F9000114B984204D04FF6FF431A400B891A4365
:101FA00002804B68C3620B880385054B984202D0C0
:101FB000044B984201D18B7A0386012383827047B8
:101FC00000000140000401400004004000080040FF
:101FD000000C004000100040001400404FF0FF31A2
:101FE00041600021018001814180817270470000C1
:101FF00010B540F225511D4800F04AF810B31B48B7
:1020000000F000F9C4B21A48008800F40040C8B9D2
:102010001748008800F4804060B10A2C03D00020EB
:102020001349088020E01248008840F4004010491D
:10203000088019E00D2C06D10D48008840F480403E
:102040000B49088010E00A480088C0F30D000949D8
:102050000C5407480088401C054908800846008841
:10206000C72801DD0020088010BD000000100140DD
:10207000080800201C68002021B1828942F4005227
:10208000828104E082894DF6FF731A408281704795
:1020900070B50246002400230025002040F66A1691
:1020A000B14200D100BFC1F3421501F01F03012668
:1020B00006FA03F3012D02D19689334006E0022D82
:1020C00002D1168A334001E0968A33400C12012671
:1020D00006FA04F41688344013B10CB1012000E074
:1020E000002070BDF0B50346002400260025002026
:1020F00040F66A17B94200D100BF1846C1F3421436
:1021000001F01F06012707FA06F5012C01D10C305A
:1021100004E0022C01D1103000E014301AB107683D
:102120002F43076002E00768AF430760F0BD00007F
:102130002DE9FF4705460E460024A14600BFA046F4
:10214000B08900B100BF2C8A24F44054F0880443C5
:102150002C82AC8941F20C608443B08831890843F9
:10216000718908430443AC81AC8A24F44074B0897B
:102170000443AC826846FFF7DBFC2048854202D06E
:102180001F48854202D1DDF80C9001E0DDF808908F
:10219000A88900F4004040B109EBC90000EB091028
:1021A00031684900B0FBF1F707E009EBC90000EB2B
:1021B000091031688900B0FBF1F76420B7FBF0F03B
:1021C00004012009642101FB1078A88900F4004073
:1021D00040B1322000EBC800B0FBF1F000F0070086
:1021E000044308E0322000EB08106421B0FBF1F05A
:1021F00000F00F0004432C81BDE8FF870010014070
:102200000014014001468888C0F30800704700BFF1
:10221000FEE700000FB4054B10B503A9044A02986D
:1022200000F0CAF810BC5DF814FB0000292C00086F
:102230000408002002E008C8121F08C1002AFAD1D1
:1022400070477047002001E001C1121F002AFBD136
:10225000704700002DE9FF5FDDE90220010DDDF888
:1022600038B0024318D044F61050A1F2FF31414378
:102270000D140F98012820D0A5EB0B00401C5FEA3D
:10228000000A4FF00004474EDFF81C91A04650466C
:1022900016D5CAF1000728E00F98012443A20128AF
:1022A00008D0002100980F9BC0E90021C0E902433B
:1022B000BDE8FF9F6FEA0B01F4E7CBF10000DEE71A
:1022C000074612E0F80707D0224633464046494603
:1022D000FEF712FD804689462246334610461946CF
:1022E000FEF70AFD04460E467F10002FEAD1DDE915
:1022F0000201BAF1000F42464B4602DAFEF7FCFC3F
:1023000001E0FEF76BFD04460E460022284BFEF767
:10231000EDFD03D84FF0FF30014607E00022254BCA
:1023200020463146FEF741FCFEF7C7FD102409E0C8
:10233000002C0ADB0A220023FEF706FC019B303248
:102340001A55641E50EA0102F2D1641C019AC4F1CC
:10235000110314440F9A012A03D0012208430DD11E
:102360000AE0084304D000204FF0110B0F9080E7E3
:10237000A3EB0B056D1E0DE05B4504DD4FF0000285
:1023800005F1010504E003DA4FF00002A5F10105B3
:10239000002AECD000980F99C0E90231C0E900454D
:1023A00086E70000000024400000F03F30000000FD
:1023B0000000F0430000E03F2DE9FF4F95B09B4641
:1023C0008946064600250FE2252877D100242746B6
:1023D000F84A0121059400E0044316F8013F203B30
:1023E00001FA03F01042F7D130782A2811D06FF0AB
:1023F0002F033078A0F13002092A16D8059A44F04C
:10240000020402EB820203EB42021044761C0590A8
:10241000EFE759F8042B0592002A03DA504244F4FE
:102420000054059044F00204761C30782E2816D112
:1024300016F8010F44F004042A280DD06FF02F0283
:102440003078A0F13003092B09D807EB870302EBA2
:102450004303C718761CF3E759F8047B761C3078E1
:102460006C280FD006DC4C2817D068280DD06A28BD
:1024700014D104E0742810D07A280FD10DE044F470
:1024800000140AE044F4801401E044F4401472782B
:10249000824202D104F58014761C761C30786628BE
:1024A0000BD013DC582877D009DC002875D04528DC
:1024B000F6D04628F4D047281AD19DE118E06328C9
:1024C00035D0642879D0652812D195E1702873D071
:1024D00008DC6728F1D069286FD06E280DD06F28EE
:1024E00006D1B5E073282CD0752875D0782874D023
:1024F0005A46179990476D1C75E1C4F302500228A3
:1025000009D003280DD0D9F8001004280DD00D6093
:1025100009F1040967E1D9F80010EA17C1E900528E
:10252000F6E7D9F800100D80F2E70D70F0E719F822
:10253000041B8DF8001000208DF80100EA460120F0
:1025400003E059F804AB4FF0FF3061074FF0000192
:1025500002D40DE008F101018846B9420FDA804546
:10256000F8DB1AF808100029F4D108E008F101019D
:1025700088468142FADB1AF808100029F6D105983E
:102580005B46A0EB080721463846179A00F094FAFC
:10259000284400EB080507E04DE029E10DE01AF8BA
:1025A000010B5A4617999047B8F10108F7D25B46DC
:1025B00021463846179A13E142E00A220092C4F3FA
:1025C00002524FF0000A022A08D059F804CB032A1D
:1025D0004FEAEC710AD00DE029E02AE009F1070189
:1025E00021F00702F2E802C1914609E00FFA8CFCE3
:1025F0004FEAEC71042A03D14FFA8CFC4FEAEC71DC
:10260000002907DA0A460021DCF1000C61EB020127
:102610002D2202E0220504D52B228DF80420012270
:1026200003E0E20701D02022F7E7904659E00A21B3
:1026300002E010220DE010214FF0000A00910BE0A3
:1026400010224FF0000A44F004040827009203E02F
:1026500008224FF0000A0092C4F30252022A05D069
:1026600059F804CB0021032A08D009E009F1070139
:1026700021F00702F2E802C1914605E01FFA8CFC46
:10268000042A01D10CF0FF0C4FF00008220728D5D6
:10269000702806D0009B83F0100353EA0A0305D08C
:1026A0000EE040228DF80420012208E05CEA0102DD
:1026B00006D030228DF804208DF8050002229046C5
:1026C000009B83F0080353EA0A030AD15CEA010283
:1026D00001D1620705D530228DF804204FF00108A2
:1026E0007F1E582804D034A003900EA802900DE05D
:1026F00036A0F9E753466046009AFEF725FA84466D
:102700000398825C0298401E029002705CEA01000D
:10271000F0D1029806A9081A00F1200A600702D534
:1027200024F4803400E00127574502DDA7EB0A00BE
:1027300000E0002000EB0A01009005984144401A97
:102740000590E00306D45B462146179A059800F0F1
:10275000B3F90544002706E001A85A46C05D179961
:1027600090476D1C7F1C4745F6DBE0030CD55B46AC
:102770002146179A059800F09FF9054404E030209F
:102780005A46179990476D1C0099481E00900029E1
:10279000F5DC08E0029802995A460078491C02913B
:1027A000179990476D1CBAF10001AAF1010AF1DCFA
:1027B00065E1000009280100303132333435363705
:1027C000383961626364656600000000303132337D
:1027D000343536373839414243444546000000001D
:1027E00000F058F90544761C307800287FF4ECADF1
:1027F00019B02846BDE8F08F620700D4062709F11A
:10280000070222F0070CFCE80223E14603F000482F
:102810005FEA080C02D00FF2702C0DE05FEA045C56
:1028200002D50FF2682C07E05FEAC47C02D00FF2F9
:10283000602C01E0AFF2700C4FF0FF3823F0004342
:10284000CDF850C065280CD006DC452809D04628B4
:102850001DD047283DD13DE0662818D067287ED19D
:1028600038E00021112F01DB112000E0781CCDE9B8
:10287000000106A90EA8FFF7EDFCDDE90F010E9A95
:1028800003910021009207F1010A04914DE04FF0FD
:1028900000400097CDE9011006A90EA8FFF7DAFC69
:1028A000DDE90F0203920E9B11990022DDF80CA0C6
:1028B0000093049211B9791C00EB010AB7EB0A00EE
:1028C00004D4C0F1FF3007F1010A0490AAEB07001D
:1028D000019044E0012F00DA01270021112F01DDD2
:1028E000112000E03846CDE9000106A90EA8FFF747
:1028F000B1FCDDE90F010E9A0391002104910092D1
:10290000BA4621070CD40399514500DA8A46BAF138
:10291000010F05DD009AAAF10101515C302908D0B0
:10292000B84202DA10F1040F06DA0121CDE90110F4
:1029300015E0AAF10101E9E7002805DC049901444A
:102940000491AAEB000102E0411C514500DD8A46DA
:102950000499401A401C01904FF00040029020075B
:1029600004D40198504501DBCDF8048000208DF897
:102970004F0002980DF14F07B0F1004F25D02B20EA
:102980000E9002984FF0020800280CDA40420290A4
:102990002D200E9007E00A210298FEF7BFF8303193
:1029A000029007F8011DB8F10001A8F10108F2DC5E
:1029B00002980028EFD1791E0E980870307800F048
:1029C000200040F0450007F8020D12A8C01B00F1DE
:1029D00007081498007800B1012000EB0A01019863
:1029E00001EBE07105984144401A401E0590E00358
:1029F00006D45B462146179A059800F05DF8054419
:102A00001498007818B15A46179990476D1CE00346
:102A100024D55B462146179A059800F04DF80544E9
:102A20001CE00498002807DBDDE90301884203DD90
:102A30000098405C179901E0179930205A4690475A
:102A4000049805F10105401C04900198401E019076
:102A500004D12E205A46179990476D1CBAF10001F7
:102A6000AAF1010ADDDC05E017F8010B5A461799B7
:102A700090476D1CB8F10001A8F10108F4DC5B4639
:102A80002146179A0598ABE62D0000002B000000A8
:102A9000200000002DE9F041044600251E4617469F
:102AA000880404D405E039462020B0476D1C641E1C
:102AB000F9D52846BDE8F0812DE9F041044600250E
:102AC0001E469046C80301D5302700E02027880421
:102AD00004D505E041463846B0476D1C641EF9D563
:102AE0002846BDE8F081000010B504466FF00400F0
:102AF000FFF70AF9E11704EB5171C1F3C701074A67
:102B000011701046007800EB4001C1EBC0104FF689
:102B1000FF7101EAC0000249088010BD00080020D2
:102B20000208002070B504464FF4077094FBF0F0E3
:102B3000C6B24FF4077094FBF0F100FB114085B270
:102B400005E04FF4077000F009F8701EC6B2002EC1
:102B5000F7D115B1284600F001F870BD0146114AC1
:102B600012884A434FF0E0235A6100229A611A46C4
:102B7000126942F001021A6100BF4FF0E0221069B1
:102B800000F001021AB100F48032002AF5D04FF0B3
:102B9000E022126922F001024FF0E0231A610022C4
:102BA0009A6170470208002070B5ADF5015D0546D9
:102BB0000E4601230022990242F22C006844FDF7E0
:102BC0004FFE002412E006EB840090ED000A0BA9F2
:102BD00001EBC40080ED000A9FED120A6000401C6A
:102BE00001EB800080ED000A601C84B2B4F5806FB8
:102BF000E9DB0BA901F50050FDF714FE00240AE003
:102C00000BA800EB840090ED000A05EB840080ED3A
:102C1000000A601C84B2B4F5006FF1DB0DF5015DB4
:102C200070BD00000000000000BF054A128802F0DD
:102C30004002002AF9D0C2B2014B9A8070470000CE
:102C40000010014070B586B005460E4601231A46B5
:102C5000990201A8FDF704FE314601A8FDF7E2FD47
:102C6000002409E006EBC40090ED000A05EB8400A7
:102C700080ED000A601C84B2B4F5806FF2DB06B010
:102C800070BD00002DED028BA820FFF72DFF4FF443
:102C9000E13000F0A1F84FF4A060FEF7EDFEFEF782
:102CA000D1FAFEF7BBFD6EE04FF47A70FFF73AFF02
:102CB000002413E0344830F81400344921F814009B
:102CC000084630F8140000EE100AB8EE400A30480A
:102CD00000EB840080ED000A601C84B2B4F5806FC4
:102CE000E8DB2CA0FFF796FA002407E0274830F82D
:102CF00014102BA0FFF78EFA601C84B2B4F5806F1D
:102D0000F4DB23492848FFF74FFF28A0FFF782FA9A
:102D1000002412E0244800EB840090ED000A10EE3D
:102D2000101A0846FDF7E7FE41EC180B53EC182B80
:102D300022A0FFF76FFA601C84B2B4F5006FE9DBE4
:102D400019492048FFF77EFF1FA0FFF763FA002410
:102D500012E01C4800EB840090ED000A10EE101AFF
:102D60000846FDF7C8FE41EC180B53EC182B13A0D6
:102D7000FFF750FA601C84B2B4F5006FE9DB4FF442
:102D80007A70FFF7CFFE8FE71C0800201C20002080
:102D90001C480020696E7075743A0D0A000000002E
:102DA00025640D0A000000001C28002066667420BF
:102DB000726573756C743A0D0A00000025660D0A81
:102DC000000000001C580020646170207369676E69
:102DD000616C0D0A0000000010B588B004460121A6
:102DE0000846FEF755FE01211020FEF781FE07225E
:102DF00009212248FEF7DBFD07220A211F48FEF7C2
:102E0000D6FD4FF4C060069002208DF81C008DF8AE
:102E10001D0000208DF81E0001208DF81F0006A95E
:102E20001648FEF77CFD02940020ADF80C00ADF8CA
:102E30000E00ADF81000ADF814000C20ADF8120033
:102E400002A90F48FFF774F901210D48FFF714F9A3
:102E5000012240F225510A48FFF744F925208DF858
:102E6000040003208DF805008DF8060001208DF880
:102E7000070001A8FEF7C4FD08B010BD0000024025
:102E800000100140000400020006000100050003DC
:102E90000007800080048002800680018005800396
:102EA00080074000400440024006400140054003C6
:102EB0004007C000C004C002C006C001C005C00376
:102EC000C007200020042002200620012005200346
:102ED0002007A000A004A002A006A001A005A00356
:102EE000A007600060046002600660016005600386
:102EF0006007E000E004E002E006E001E005E00336
:102F0000E007100010041002100610011005100355
:102F10001007900090049002900690019005900395
:102F200090075000500450025006500150055003C5
:102F30005007D000D004D002D006D001D005D00375
:102F4000D007300030043002300630013005300345
:102F50003007B000B004B002B006B001B005B00355
:102F6000B007700070047002700670017005700385
:102F70007007F000F004F002F006F001F005F00335
:102F8000F0070800080408020806080108050803FD
:102F90000807880088048802880688018805880355
:102FA0008807480048044802480648014805480385
:102FB0004807C800C804C802C806C801C805C80335
:102FC000C807280028042802280628012805280305
:102FD0002807A800A804A802A806A801A805A80315
:102FE000A807680068046802680668016805680345
:102FF0006807E800E804E802E806E801E805E803F5
:10300000E807180018041802180618011805180314
:103010001807980098049802980698019805980354
:103020009807580058045802580658015805580384
:103030005807D800D804D802D806D801D805D80334
:10304000D807380038043802380638013805380304
:103050003807B800B804B802B806B801B805B80314
:10306000B807780078047802780678017805780344
:103070007807F800F804F802F806F801F805F803F4
:10308000F807040004040402040604010405040310
:103090000407840084048402840684018405840374
:1030A00084074400440444024406440144054403A4
:1030B0004407C400C404C402C406C401C405C40354
:1030C000C407240024042402240624012405240324
:1030D0002407A400A404A402A406A401A405A40334
:1030E000A407640064046402640664016405640364
:1030F0006407E400E404E402E406E401E405E40314
:10310000E407140014041402140614011405140333
:103110001407940094049402940694019405940373
:1031200094075400540454025406540154055403A3
:103130005407D400D404D402D406D401D405D40353
:10314000D407340034043402340634013405340323
:103150003407B400B404B402B406B401B405B40333
:10316000B407740074047402740674017405740363
:103170007407F400F404F402F406F401F405F40313
:10318000F4070C000C040C020C060C010C050C03DB
:103190000C078C008C048C028C068C018C058C0333
:1031A0008C074C004C044C024C064C014C054C0363
:1031B0004C07CC00CC04CC02CC06CC01CC05CC0313
:1031C000CC072C002C042C022C062C012C052C03E3
:1031D0002C07AC00AC04AC02AC06AC01AC05AC03F3
:1031E000AC076C006C046C026C066C016C056C0323
:1031F0006C07EC00EC04EC02EC06EC01EC05EC03D3
:10320000EC071C001C041C021C061C011C051C03F2
:103210001C079C009C049C029C069C019C059C0332
:103220009C075C005C045C025C065C015C055C0362
:103230005C07DC00DC04DC02DC06DC01DC05DC0312
:10324000DC073C003C043C023C063C013C053C03E2
:103250003C07BC00BC04BC02BC06BC01BC05BC03F2
:10326000BC077C007C047C027C067C017C057C0322
:103270007C07FC00FC04FC02FC06FC01FC05FC03D2
:10328000FC07020002040202020602010205020318
:103290000207820082048202820682018205820382
:1032A00082074200420442024206420142054203B2
:1032B0004207C200C204C202C206C201C205C20362
:1032C000C207220022042202220622012205220332
:1032D0002207A200A204A202A206A201A205A20342
:1032E000A207620062046202620662016205620372
:1032F0006207E200E204E202E206E201E205E20322
:10330000E207120012041202120612011205120341
:103310001207920092049202920692019205920381
:1033200092075200520452025206520152055203B1
:103330005207D200D204D202D206D201D205D20361
:10334000D207320032043202320632013205320331
:103350003207B200B204B202B206B201B205B20341
:10336000B207720072047202720672017205720371
:103370007207F200F204F202F206F201F205F20321
:10338000F2070A000A040A020A060A010A050A03E9
:103390000A078A008A048A028A068A018A058A0341
:1033A0008A074A004A044A024A064A014A054A0371
:1033B0004A07CA00CA04CA02CA06CA01CA05CA0321
:1033C000CA072A002A042A022A062A012A052A03F1
:1033D0002A07AA00AA04AA02AA06AA01AA05AA0301
:1033E000AA076A006A046A026A066A016A056A0331
:1033F0006A07EA00EA04EA02EA06EA01EA05EA03E1
:10340000EA071A001A041A021A061A011A051A0300
:103410001A079A009A049A029A069A019A059A0340
:103420009A075A005A045A025A065A015A055A0370
:103430005A07DA00DA04DA02DA06DA01DA05DA0320
:10344000DA073A003A043A023A063A013A053A03F0
:103450003A07BA00BA04BA02BA06BA01BA05BA0300
:10346000BA077A007A047A027A067A017A057A0330
:103470007A07FA00FA04FA02FA06FA01FA05FA03E0
:10348000FA070600060406020606060106050603FC
:103490000607860086048602860686018605860360
:1034A0008607460046044602460646014605460390
:1034B0004607C600C604C602C606C601C605C60340
:1034C000C607260026042602260626012605260310
:1034D0002607A600A604A602A606A601A605A60320
:1034E000A607660066046602660666016605660350
:1034F0006607E600E604E602E606E601E605E60300
:10350000E60716001604160216061601160516031F
:10351000160796009604960296069601960596035F
:10352000960756005604560256065601560556038F
:103530005607D600D604D602D606D601D605D6033F
:10354000D60736003604360236063601360536030F
:103550003607B600B604B602B606B601B605B6031F
:10356000B60776007604760276067601760576034F
:103570007607F600F604F602F606F601F605F603FF
:10358000F6070E000E040E020E060E010E050E03C7
:103590000E078E008E048E028E068E018E058E031F
:1035A0008E074E004E044E024E064E014E054E034F
:1035B0004E07CE00CE04CE02CE06CE01CE05CE03FF
:1035C000CE072E002E042E022E062E012E052E03CF
:1035D0002E07AE00AE04AE02AE06AE01AE05AE03DF
:1035E000AE076E006E046E026E066E016E056E030F
:1035F0006E07EE00EE04EE02EE06EE01EE05EE03BF
:10360000EE071E001E041E021E061E011E051E03DE
:103610001E079E009E049E029E069E019E059E031E
:103620009E075E005E045E025E065E015E055E034E
:103630005E07DE00DE04DE02DE06DE01DE05DE03FE
:10364000DE073E003E043E023E063E013E053E03CE
:103650003E07BE00BE04BE02BE06BE01BE05BE03DE
:10366000BE077E007E047E027E067E017E057E030E
:103670007E07FE00FE04FE02FE06FE01FE05FE03BE
:10368000FE0701000000803F00000000ECFF7F3FCC
:10369000D40FC93AB1FF7F3FC70F493B4EFF7F3F71
:1036A000C1CB963BC4FE7F3F890FC93B13FE7F3FD2
:1036B0003053FB3B39FD7F3F59CB163C39FC7F3FF4
:1036C00002ED2F3C11FB7F3F900E493CC1F97F3F3B
:1036D0000030623C4AF87F3F4B517B3CACF67F3F69
:1036E00038398A3CE6F47F3FB6C9963CF8F27F3F12
:1036F0001C5AA33CE3F07F3F69EAAF3CA7EE7F3F53
:103700009B7ABC3C43EC7F3FB00AC93CB8E97F3FA1
:10371000A69AD53C05E77F3F7B2AE23C2BE47F3F1E
:103720002DBAEE3C29E17F3FB949FB3C00DE7F3FEB
:1037300090EC033DAFDA7F3F2F340A3D37D77F3F10
:10374000B87B103D98D37F3F2CC3163DD1CF7F3F30
:10375000880A1D3DE2CB7F3FCC51233DCCC77F3F44
:10376000F698293D8FC37F3F07E02F3D2ABF7F3F5B
:10377000FC26363D9EBA7F3FD56D3C3DEAB57F3F86
:1037800091B4423D0FB17F3F2FFB483D0DAC7F3FD1
:10379000AF414F3DE3A67F3F0E88553D91A17F3F4E
:1037A0004CCE5B3D189C7F3F6814623D78967F3F0E
:1037B000625A683DB1907F3F38A06E3DC28A7F3F1C
:1037C000E9E5743DAB847F3F742B7B3D6D7E7F3F8D
:1037D0006CB8803D08787F3F0ADB833D7B717F3F7B
:1037E00094FD863DC76A7F3F0A208A3DEC637F3F98
:1037F0006A428D3DE95C7F3FB464903DBF557F3F99
:10380000E786933D6D4E7F3F05A9963DF4467F3F89
:103810000ACB993D543F7F3FF9EC9C3D8D377F3F6C
:10382000CF0EA03D9D2F7F3F8C30A33D87277F3F4C
:103830003052A63D491F7F3FBA73A93DE4167F3F32
:103840002B95AC3D580E7F3F80B6AF3DA4057F3F22
:10385000BBD7B23DC9FC7E3FDAF8B53DC7F37E3F2A
:10386000DD19B93D9DEA7E3FC33ABC3D4CE17E3F48
:103870008D5BBF3DD4D77E3F397CC23D34CE7E3F89
:10388000C69CC53D6DC47E3F36BDC83D7FBA7E3FF8
:1038900086DDCB3D69B07E3FB7FDCE3D2DA67E3F98
:1038A000C81DD23DC99B7E3FB93DD53D3D917E3F70
:1038B000895DD83D8B867E3F377DDB3DB17B7E3F8A
:1038C000C49CDE3DB0707E3F2EBCE13D88657E3FEE
:1038D00076DBE43D385A7E3F9AFAE73DC14E7E3FA3
:1038E0009A19EB3D23437E3F7638EE3D5E377E3FAF
:1038F0002E57F13D722B7E3FC075F43D5E1F7E3F1B
:103900002C94F73D24137E3F73B2FA3DC2067E3FEE
:1039100092D0FD3D38FA7D3F4577003E88ED7D3FF2
:103920002E06023EB1E07D3F0295033EB2D37D3FBD
:10393000C223053E8CC67D3F6EB2063E40B97D3F38
:103940000541083ECCAB7D3F86CF093E309E7D3F92
:10395000F35D0B3E6E907D3F4AEC0C3E85827D3FD1
:103960008B7A0E3E74747D3FB708103E3D667D3FF6
:10397000CC96113EDE577D3FCA24133E59497D3F08
:10398000B2B2143EAC3A7D3F8340163ED82B7D3F09
:103990003DCE173EDD1C7D3FE05B193EBC0D7D3FFB
:1039A0006BE91A3E73FE7C3FDE761C3E03EF7C3FE4
:1039B00038041E3E6CDF7C3F7B911F3EAECF7C3FC8
:1039C000A51E213EC9BF7C3FB6AB223EBDAF7C3FAA
:1039D000AD38243E8A9F7C3F8CC5253E318F7C3F8D
:1039E0005152273EB07E7C3FFCDE283E086E7C3F75
:1039F0008D6B2A3E3A5D7C3F04F82B3E444C7C3F65
:103A000061842D3E283B7C3FA2102F3EE5297C3F60
:103A1000C99C303E7A187C3FD428323EE9067C3F70
:103A2000C4B4333E31F57B3F9840353E53E37B3F92
:103A300050CC363E4DD17B3FEC57383E20BF7B3FCC
:103A40006CE3393ECDAC7B3FCF6E3B3E539A7B3F20
:103A500015FA3C3EB2877B3F3E853E3EEA747B3F93
:103A60004910403EFC617B3F379B413EE74E7B3F28
:103A70000726433EAB3B7B3FB9B0443E48287B3FE3
:103A80004D3B463EBE147B3FC2C5473E0E017B3FC9
:103A90001850493E37ED7A3F4FDA4A3E3AD97A3FDD
:103AA00067644C3E16C57A3F60EE4D3ECBB07A3F20
:103AB00038784F3E599C7A3FF101513EC1877A3F99
:103AC000898B523E02737A3F0115543E1C5E7A3F49
:103AD000589E553E10497A3F8F27573EDD337A3F37
:103AE000A4B0583E841E7A3F97395A3E04097A3F63
:103AF0006AC25B3E5EF3793F1A4B5D3E91DD793FD2
:103B0000A8D35E3E9DC7793F135C603E83B1793F89
:103B10005CE4613E439B793F836C633EDC84793F88
:103B200086F4643E4E6E793F667C663E9A57793FD6
:103B30002204683EC040793FBA8B693EBF29793F75
:103B40002F136B3E9812793F7F9A6C3E4AFB783F69
:103B5000AB216E3ED6E3783FB2A86F3E3BCC783FB8
:103B6000942F713E7BB4783F51B6723E939C783F60
:103B7000E83C743E8684783F5AC3753E526C783F69
:103B8000A649773EF853783FCCCF783E773B783FD5
:103B9000CB557A3ED122783FA4DB7B3E040A783FA6
:103BA00056617D3E10F1773FE1E67E3EF7D7773FE5
:103BB0002236803EB7BE773FC0F8803E51A5773FA2
:103BC0004ABB813EC58B773FC07D823E1372773FF3
:103BD0002240833E3A58773F7002843E3C3E773F16
:103BE000AAC4843E1724773FCE86853ECC09773F12
:103BF000DF48863E5BEF763FDA0A873EC4D4763FE5
:103C0000C1CC873E07BA763F938E883E249F763F8D
:103C10005050893E1B84763FF8118A3EEC68763F0F
:103C20008AD38A3E974D763F07958B3E1B32763F6F
:103C30006E568C3E7A16763FC0178D3EB3FA753FAE
:103C4000FCD88D3EC6DE753F229A8E3EB3C2753FCC
:103C5000325B8F3E7BA6753F2C1C903E1C8A753FC5
:103C600010DD903E976D753FDD9D913EED50753FA7
:103C7000945E923E1D34753F351F933E2717753F66
:103C8000BFDF933E0BFA743F31A0943EC9DC743F12
:103C90008D60953E62BF743FD220963ED5A1743FA1
:103CA00000E1963E2284743F17A1973E4966743F17
:103CB0001661983E4B48743FFE20993E272A743F78
:103CC000CEE0993EDD0B743F86A09A3E6EED733FC9
:103CD00027609B3ED9CE733FAF1F9C3E1FB0733F02
:103CE00020DF9C3E3F91733F789E9D3E3972733F2B
:103CF000B85D9E3E0E53733FDF1C9F3EBE33733F45
:103D0000EEDB9F3E4714733FE59AA03EACF4723F52
:103D1000C259A13EEBD4723F8718A23E04B5723F50
:103D200033D7A23EF894723FC595A33EC774723F45
:103D30003F54A43E7054723F9F12A53EF433723F2D
:103D4000E5D0A53E5213723F128FA63E8CF2713F12
:103D5000254DA73E9FD1713F1F0BA83E8EB0713FEE
:103D6000FEC8A83E578F713FC486A93EFB6D713FC8
:103D70006F44AA3E7A4C713F0102AB3ED42A713F98
:103D800077BFAB3E0809713FD47CAC3E17E7703F6C
:103D9000153AAD3E02C5703F3CF7AD3EC6A2703F3E
:103DA00049B4AE3E6680703F3A71AF3EE15D703F10
:103DB000102EB03E373B703FCBEAB03E6718703FE5
:103DC0006BA7B13E73F56F3FEF63B23E5AD26F3FC0
:103DD0005820B33E1BAF6F3FA5DCB33EB88B6F3F9F
:103DE000D698B43E30686F3FEC54B53E83446F3F85
:103DF000E610B63EB0206F3FC3CCB63EBAFC6E3F75
:103E00008488B73E9ED86E3F2A44B83E5DB46E3F6C
:103E1000B2FFB83EF88F6E3F1EBBB93E6D6B6E3F72
:103E20006E76BA3EBE466E3FA031BB3EEB216E3F82
:103E3000B6ECBB3EF2FC6D3FAFA7BC3ED5D76D3FA5
:103E40008B62BD3E93B26D3F4A1DBE3E2D8D6D3FD0
:103E5000EBD7BE3EA1676D3F6F92BF3EF2416D3F13
:103E6000D54CC03E1D1C6D3F1E07C13E24F66C3F65
:103E700048C1C13E07D06C3F557BC23EC5A96C3FCF
:103E80004435C33E5E836C3F15EFC33ED45C6C3F4C
:103E9000C8A8C43E24366C3F5C62C53E500F6C3FE0
:103EA000D21BC63E58E86B3F29D5C63E3BC16B3F8F
:103EB000628EC73EFB996B3F7C47C83E95726B3F55
:103EC0007700C93E0C4B6B3F53B9C93E5E236B3F35
:103ED0001072CA3E8CFB6A3FAE2ACB3E95D36A3F36
:103EE0002CE3CB3E7BAB6A3F8B9BCC3E3C836A3F53
:103EF000CA53CD3ED95A6A3FEA0BCE3E52326A3F90
:103F0000EAC3CE3EA7096A3FCA7BCF3ED7E0693FEE
:103F10008A33D03EE4B7693F2AEBD03ECC8E693F6E
:103F2000AAA2D13E9165693F095AD23E323C693F0F
:103F30004811D33EAE12693F67C8D33E07E9683FD8
:103F4000647FD43E3CBF683F4136D53E4C95683FC8
:103F5000FDECD53E396B683F99A3D63E0341683FDF
:103F6000135AD73EA816683F6B10D83E2AEC673F1D
:103F7000A3C6D83E87C1673FB97CD93EC196673F8B
:103F8000AD32DA3ED86B673F80E8DA3ECA40673F21
:103F9000319EDB3E9915673FC153DC3E45EA663FE3
:103FA0002E09DD3ECCBE663F79BEDD3E3093663FD6
:103FB000A273DE3E7167663FA928DF3E8E3B663FF7
:103FC0008DDDDF3E880F663F4F92E03E5EE3653F4A
:103FD000EE46E13E10B7653F6AFBE13EA08A653FD1
:103FE000C4AFE23E0B5E653FFA63E33E5431653F8A
:103FF0000E18E43E7904653FFECBE43E7BD7643F78
:10400000CB7FE53E59AA643F7533E63E147D643F9D
:10401000FBE6E63EAC4F643F5D9AE73E2122643FFB
:104020009C4DE83E73F4633FB700E93EA1C6633F91
:10403000AEB3E93EAC98633F8166EA3E956A633F62
:104040003019EB3E5A3C633FBBCBEB3EFC0D633F6C
:10405000217EEC3E7BDF623F6330ED3ED7B0623FB6
:1040600080E2ED3E1082623F7994EE3E2653623F3D
:104070004C46EF3E1A24623FFBF7EF3EEAF4613F05
:1040800085A9F03E98C5613FEA5AF13E2296613F0C
:10409000290CF23E8A66613F43BDF23ED036613F55
:1040A000386EF33EF206613F071FF43EF2D6603FE2
:1040B000B1CFF43ECFA6603F3580F53E8976603FB4
:1040C0009330F63E2146603FCBE0F63E9615603FCA
:1040D000DC90F73EE9E45F3FC840F83E19B45F3F2B
:1040E0008EF0F83E27835F3F2DA0F93E12525F3FCE
:1040F000A54FFA3EDB205F3FF7FEFA3E81EF5E3FC1
:1041000022AEFB3E05BE5E3F275DFC3E678C5E3FF8
:10411000040CFD3EA65A5E3FBBBAFD3EC3285E3F7F
:104120004A69FE3EBEF65D3FB217FF3E97C45D3F53
:10413000F3C5FF3E4D925D3F063A003FE15F5D3FB4
:10414000FF90003F532D5D3FE4E7003FA3FA5C3F43
:10415000B53E013FD1C75C3F7395013FDD945C3FA5
:104160001CEC013FC7615C3FB142023F8E2E5C3FB9
:104170003299023F34FB5B3F9FEF023FB8C75B3F82
:10418000F845033F1A945B3F3D9C033F5A605B3FF9
:104190006DF2033F792C5B3F8948043F75F85A3F25
:1041A000919E043F50C45A3F84F4043F09905A3F03
:1041B000624A053FA05B5A3F2CA0053F16275A3F95
:1041C000E2F5053F6AF2593F824B063F9CBD593FDD
:1041D0000EA1063FAD88593F86F6063F9C53593FD6
:1041E000E84B073F6A1E593F36A1073F17E9583F82
:1041F0006FF6073FA1B3583F924B083F0B7E583FE5
:10420000A1A0083F5348583F9BF5083F7912583FFB
:104210007F4A093F7FDC573F4E9F093F63A6573FC8
:1042200009F4093F2670573FAD480A3FC739573F49
:104230003D9D0A3F4803573FB7F10A3FA7CC563F81
:104240001C460B3FE595563F6B9A0B3F025F563F6E
:10425000A5EE0B3FFE27563FC9420C3FD9F0553F14
:10426000D7960C3F93B9553FD0EA0C3F2C82553F6F
:10427000B33E0D3FA44A553F81920D3FFB12553F7F
:1042800038E60D3F31DB543FDA390E3F47A3543F48
:10429000658D0E3F3B6B543FDBE00E3F0F33543FC9
:1042A0003B340F3FC3FA533F84870F3F55C2533F00
:1042B000B8DA0F3FC789533FD52D103F1851533FF0
:1042C000DC80103F4918533FCDD3103F59DF523F98
:1042D000A726113F49A6523F6B79113F186D523FF7
:1042E00019CC113FC633523FB01E123F54FA513F12
:1042F0003071123FC2C0513F9AC3123F1087513FE5
:10430000EE15133F3D4D513F2A68133F4A13513F6D
:1043100050BA133F37D9503F5F0C143F039F503FB3
:10432000585E143FAF64503F39B0143F3B2A503FB2
:104330000402153FA8EF4F3FB753153FF4B44F3F6A
:1043400054A5153F1F7A4F3FD9F6153F2B3F4F3FDE
:104350004748163F17044F3F9F99163FE4C84E3F0A
:10436000DFEA163F908D4E3F073C173F1C524E3FF1
:10437000188D173F89164E3F12DE173FD5DA4D3F95
:10438000F52E183F029F4D3FC07F183F10634D3FF1
:1043900073D0183FFD264D3F0F21193FCBEA4C3F0C
:1043A0009471193F79AE4C3F00C2193F08724C3FDF
:1043B00055121A3F78354C3F93621A3FC7F84B3F6E
:1043C000B8B21A3FF8BB4B3FC6021B3F097F4B3FB9
:1043D000BB521B3FFA414B3F99A21B3FCC044B3FC2
:1043E0005FF21B3F7FC74A3F0C421C3F138A4A3F84
:1043F000A2911C3F874C4A3F1FE11C3FDC0E4A3F05
:1044000084301D3F12D1493FD17F1D3F2993493F41
:1044100006CF1D3F2155493F221E1E3FFA16493F38
:10442000266D1E3FB3D8483F12BC1E3F4E9A483FF0
:10443000E50A1F3FCA5B483F9F591F3F271D483F62
:1044400041A81F3F65DE473FCBF61F3F849F473F94
:104450003B45203F8560473F9393203F6721473F7F
:10446000D2E1203F2AE2463FF92F213FCEA2463F2C
:10447000067E213F5463463FFBCB213FBB23463F93
:10448000D719223F03E4453F9967223F2DA4453FBA
:1044900043B5223F3964453FD302233F2624453F9D
:1044A0004B50233FF5E3443FA99D233FA5A3443F41
:1044B000EEEA233F3763443F1A38243FAB22443FA0
:1044C0002C85243F00E2433F25D2243F38A1433FBF
:1044D000041F253F5160433FCB6B253F4C1F433F9B
:1044E00077B8253F29DE423F0A05263FE89C423F38
:1044F0008451263F895B423FE39D263F0B1A423F92
:104500002AEA263F70D8413F5636273FB796413FAB
:104510006882273FE154413F61CE273FEC12413F83
:10452000401A283FDAD0403F0566283FA98E403F19
:10453000B0B1283F5C4C403F41FD283FF009403F6F
:10454000B848293F67C73F3F1594293FC0843F3F84
:1045500057DF293FFC413F3F802A2A3F1BFF3E3F58
:104560008E752A3F1BBC3E3F82C02A3FFF783E3FEC
:104570005B0B2B3FC5353E3F1B562B3F6EF23D3F3D
:10458000BFA02B3FF9AE3D3F4AEB2B3F676B3D3F52
:10459000B9352C3FB8273D3F0F802C3FECE33C3F23
:1045A00049CA2C3F03A03C3F69142D3FFC5B3C3FB4
:1045B0006F5E2D3FD9173C3F59A82D3F98D33B3F05
:1045C00029F22D3F3B8F3B3FDE3B2E3FC14A3B3F15
:1045D00078852E3F29063B3FF7CE2E3F75C13A3FE7
:1045E0005B182F3FA47C3A3FA5612F3FB7373A3F76
:1045F000D3AA2F3FACF2393FE6F32F3F85AD393FC9
:10460000DE3C303F4268393FBB85303FE122393FD5
:104610007CCE303F65DD383F2217313FCB97383FA6
:10462000AD5F313F1652383F1DA8313F430C383F34
:1046300071F0313F55C6373FAA38323F4A80373F85
:10464000C780323F233A373FC9C8323FDFF3363F96
:10465000AF10333F7FAD363F7A58333F0467363F64
:1046600029A0333F6C20363FBCE7333FB8D9353FF4
:10467000342F343FE792353F8F76343FFB4B353F45
:10468000CFBD343FF304353FF304353FCFBD343F56
:10469000FB4B353F8F76343FE792353F342F343F25
:1046A000B8D9353FBCE7333F6C20363F29A0333FB4
:1046B0000467363F7A58333F7FAD363FAF10333F04
:1046C000DFF3363FC9C8323F233A373FC780323F16
:1046D0004A80373FAA38323F55C6373F71F0313FE5
:1046E000430C383F1DA8313F1652383FAD5F313F74
:1046F000CB97383F2217313F65DD383F7CCE303FC6
:10470000E122393FBB85303F4268393FDE3C303FD4
:1047100085AD393FE6F32F3FACF2393FD3AA2F3FA7
:10472000B7373A3FA5612F3FA47C3A3F5B182F3F34
:1047300075C13A3FF7CE2E3F29063B3F78852E3F85
:10474000C14A3B3FDE3B2E3F3B8F3B3F29F22D3F93
:1047500098D33B3F59A82D3FD9173C3F6F5E2D3F63
:10476000FC5B3C3F69142D3F03A03C3F49CA2C3FF2
:10477000ECE33C3F0F802C3FB8273D3FB9352C3F41
:10478000676B3D3F4AEB2B3FF9AE3D3FBFA02B3F50
:104790006EF23D3F1B562B3FC5353E3F5B0B2B3F1B
:1047A000FF783E3F82C02A3F1BBC3E3F8E752A3FAA
:1047B0001BFF3E3F802A2A3FFC413F3F57DF293FF6
:1047C000C0843F3F1594293F67C73F3FB848293F02
:1047D000F009403F41FD283F5C4C403FB0B1283FCD
:1047E000A98E403F0566283FDAD0403F401A283F57
:1047F000EC12413F61CE273FE154413F6882273FA1
:10480000B796413F5636273F70D8413F2AEA263FA8
:104810000B1A423FE39D263F895B423F8451263F6E
:10482000E89C423F0A05263F29DE423F77B8253FF4
:104830004C1F433FCB6B253F5160433F041F253F37
:1048400038A1433F25D2243F00E2433F2C85243F3B
:10485000AB22443F1A38243F3763443FEEEA233FFC
:10486000A5A3443FA99D233FF5E3443F4B50233F7D
:104870002624453FD302233F3964453F43B5223FB9
:104880002DA4453F9967223F03E4453FD719223FB6
:10489000BB23463FFBCB213F5463463F067E213F6F
:1048A000CEA2463FF92F213F2AE2463FD2E1203FE8
:1048B0006721473F9393203F8560473F3B45203F1B
:1048C000849F473FCBF61F3F65DE473F41A81F3F10
:1048D000271D483F9F591F3FCA5B483FE50A1F3FBE
:1048E0004E9A483F12BC1E3FB3D8483F266D1E3F2C
:1048F000FA16493F221E1E3F2155493F06CF1D3F54
:104900002993493FD17F1D3F12D1493F84301D3F3C
:10491000DC0E4A3F1FE11C3F874C4A3FA2911C3FDF
:10492000138A4A3F0C421C3F7FC74A3F5FF21B3F3E
:10493000CC044B3F99A21B3FFA414B3FBB521B3F5C
:10494000097F4B3FC6021B3FF8BB4B3FB8B21A3F33
:10495000C7F84B3F93621A3F78354C3F55121A3FC8
:1049600008724C3F00C2193F79AE4C3F9471193F19
:10497000CBEA4C3F0F21193FFD264D3F73D0183F26
:1049800010634D3FC07F183F029F4D3FF52E183FEB
:10499000D5DA4D3F12DE173F89164E3F188D173F6F
:1049A0001C524E3F073C173F908D4E3FDFEA163FAB
:1049B000E4C84E3F9F99163F17044F3F4748163FA4
:1049C0002B3F4F3FD9F6153F1F7A4F3F54A5153F58
:1049D000F4B44F3FB753153FA8EF4F3F0402153FC4
:1049E0003B2A503F39B0143FAF64503F585E143FEC
:1049F000039F503F5F0C143F37D9503F50BA133FCD
:104A00004A13513F2A68133F3D4D513FEE15133F66
:104A10001087513F9AC3123FC2C0513F3071123FBD
:104A200054FA513FB01E123FC633523F19CC113FCA
:104A3000186D523F6B79113F49A6523FA726113F8F
:104A400059DF523FCDD3103F4918533FDC80103F10
:104A50001851533FD52D103FC789533FB8DA0F3F48
:104A600055C2533F84870F3FC3FA533F3B340F3F38
:104A70000F33543FDBE00E3F3B6B543F658D0E3FE1
:104A800047A3543FDA390E3F31DB543F38E60D3F40
:104A9000FB12553F81920D3FA44A553FB33E0D3F57
:104AA0002C82553FD0EA0C3F93B9553FD7960C3F27
:104AB000D9F0553FC9420C3FFE27563FA5EE0B3FAC
:104AC000025F563F6B9A0B3FE595563F1C460B3FE6
:104AD000A7CC563FB7F10A3F4803573F3D9D0A3FD9
:104AE000C739573FAD480A3F2670573F09F4093F81
:104AF00063A6573F4E9F093F7FDC573F7F4A093FE0
:104B00007912583F9BF5083F5348583FA1A0083FF2
:104B10000B7E583F924B083FA1B3583F6FF6073FBB
:104B200017E9583F36A1073F6A1E593FE84B073F38
:104B30009C53593F86F6063FAD88593F0EA1063F6C
:104B40009CBD593F824B063F6AF2593FE2F5053F53
:104B500016275A3F2CA0053FA05B5A3F624A053FEB
:104B600009905A3F84F4043F50C45A3F919E043F39
:104B700075F85A3F8948043F792C5B3F6DF2033F3B
:104B80005A605B3F3D9C033F1A945B3FF845033FEF
:104B9000B8C75B3F9FEF023F34FB5B3F3299023F58
:104BA0008E2E5C3FB142023FC7615C3F1CEC013F6F
:104BB000DD945C3F7395013FD1C75C3FB53E013F3B
:104BC000A3FA5C3FE4E7003F532D5D3FFF90003FB9
:104BD000E15F5D3F063A003F4D925D3FF3C5FF3E0A
:104BE00097C45D3FB217FF3EBEF65D3F4A69FE3E89
:104BF000C3285E3FBBBAFD3EA65A5E3F040CFD3E95
:104C0000678C5E3F275DFC3E05BE5E3F22AEFB3EED
:104C100081EF5E3FF7FEFA3EDB205F3FA54FFA3E95
:104C200012525F3F2DA0F93E27835F3F8EF0F83E82
:104C300019B45F3FC840F83EE9E45F3FDC90F73EBF
:104C40009615603FCBE0F63E2146603F9330F63E3E
:104C50008976603F3580F53ECFA6603FB1CFF43E08
:104C6000F2D6603F071FF43EF206613F386EF33E16
:104C7000D036613F43BDF23E8A66613F290CF23E69
:104C80002296613FEA5AF13E98C5613F85A9F03E00
:104C9000EAF4613FFBF7EF3E1A24623F4C46EF3ED9
:104CA0002653623F7994EE3E1082623F80E2ED3EF1
:104CB000D7B0623F6330ED3E7BDF623F217EEC3E4A
:104CC000FC0D633FBBCBEB3E5A3C633F3019EB3EE0
:104CD000956A633F8166EA3EAC98633FAEB3E93EB6
:104CE000A1C6633FB700E93E73F4633F9C4DE83EC5
:104CF0002122643F5D9AE73EAC4F643FFBE6E63E0F
:104D0000147D643F7533E63E59AA643FCB7FE53E90
:104D10007BD7643FFECBE43E7904653F0E18E43E4A
:104D20005431653FFA63E33E0B5E653FC4AFE23E3C
:104D3000A08A653F6AFBE13E10B7653FEE46E13E63
:104D40005EE3653F4F92E03E880F663F8DDDDF3EBC
:104D50008E3B663FA928DF3E7167663FA273DE3E49
:104D60003093663F79BEDD3ECCBE663F2E09DD3E08
:104D700045EA663FC153DC3E9915673F319EDB3EF5
:104D8000CA40673F80E8DA3ED86B673FAD32DA3E13
:104D9000C196673FB97CD93E87C1673FA3C6D83E5D
:104DA0002AEC673F6B10D83EA816683F135AD73ECF
:104DB0000341683F99A3D63E396B683FFDECD53E71
:104DC0004C95683F4136D53E3CBF683F647FD43E3A
:104DD00007E9683F67C8D33EAE12693F4811D33E2A
:104DE000323C693F095AD23E9165693FAAA2D13E41
:104DF000CC8E693F2AEBD03EE4B7693F8A33D03E80
:104E0000D7E0693FCA7BCF3EA7096A3FEAC3CE3EDF
:104E100052326A3FEA0BCE3ED95A6A3FCA53CD3E60
:104E20003C836A3F8B9BCC3E7BAB6A3F2CE3CB3E03
:104E300095D36A3FAE2ACB3E8CFB6A3F1072CA3EC6
:104E40005E236B3F53B9C93E0C4B6B3F7700C93EA5
:104E500095726B3F7C47C83EFB996B3F628EC73EA5
:104E60003BC16B3F29D5C63E58E86B3FD21BC63EBF
:104E7000500F6C3F5C62C53E24366C3FC8A8C43EF0
:104E8000D45C6C3F15EFC33E5E836C3F4435C33E3C
:104E9000C5A96C3F557BC23E07D06C3F48C1C13E9F
:104EA00024F66C3F1E07C13E1D1C6D3FD54CC03E15
:104EB000F2416D3F6F92BF3EA1676D3FEBD7BE3EA3
:104EC0002D8D6D3F4A1DBE3E93B26D3F8B62BD3E40
:104ED000D5D76D3FAFA7BC3EF2FC6D3FB6ECBB3EF5
:104EE000EB216E3FA031BB3EBE466E3F6E76BA3EB2
:104EF0006D6B6E3F1EBBB93EF88F6E3FB2FFB83E82
:104F00005DB46E3F2A44B83E9ED86E3F8488B73E5B
:104F1000BAFC6E3FC3CCB63EB0206F3FE610B63E43
:104F200083446F3FEC54B53E30686F3FD698B43E33
:104F3000B88B6F3FA5DCB33E1BAF6F3F5820B33E2D
:104F40005AD26F3FEF63B23E73F56F3F6BA7B13E2E
:104F50006718703FCBEAB03E373B703F102EB03E33
:104F6000E15D703F3A71AF3E6680703F49B4AE3E3E
:104F7000C6A2703F3CF7AD3E02C5703F153AAD3E4C
:104F800017E7703FD47CAC3E0809713F77BFAB3E5A
:104F9000D42A713F0102AB3E7A4C713F6F44AA3E66
:104FA000FB6D713FC486A93E578F713FFEC8A83E76
:104FB0008EB0713F1F0BA83E9FD1713F254DA73E7C
:104FC0008CF2713F128FA63E5213723FE5D0A53E80
:104FD000F433723F9F12A53E7054723F3F54A43E7B
:104FE000C774723FC595A33EF894723F33D7A23E73
:104FF00004B5723F8718A23EEBD4723FC259A13E5E
:10500000ACF4723FE59AA03E4714733FEEDB9F3E3F
:10501000BE33733FDF1C9F3E0E53733FB85D9E3E11
:105020003972733F789E9D3E3F91733F20DF9C3ED7
:105030001FB0733FAF1F9C3ED9CE733F27609B3E8E
:105040006EED733F86A09A3EDD0B743FCEE0993E35
:10505000272A743FFE20993E4B48743F1661983EC4
:105060004966743F17A1973E2284743F00E1963E43
:10507000D5A1743FD220963E62BF743F8D60953EAD
:10508000C9DC743F31A0943E0BFA743FBFDF933EFE
:105090002717753F351F933E1D34753F945E923E32
:1050A000ED50753FDD9D913E976D753F10DD903E53
:1050B0001C8A753F2C1C903E7BA6753F325B8F3E51
:1050C000B3C2753F229A8E3EC6DE753FFCD88D3E38
:1050D000B3FA753FC0178D3E7A16763F6E568C3EFA
:1050E0001B32763F07958B3E974D763F8AD38A3E9B
:1050F000EC68763FF8118A3E1B84763F5050893E1B
:10510000249F763F938E883E07BA763FC1CC873E78
:10511000C4D4763FDA0A873E5BEF763FDF48863EAF
:10512000CC09773FCE86853E1724773FAAC4843EBC
:105130003C3E773F7002843E3A58773F2240833EA0
:105140001372773FC07D823EC58B773F4ABB813E5D
:1051500051A5773FC0F8803EB7BE773F2236803EEC
:10516000F7D7773FE1E67E3E10F1773F56617D3E0F
:10517000040A783FA4DB7B3ED122783FCB557A3EB0
:10518000773B783FCCCF783EF853783FA649773EBF
:10519000526C783F5AC3753E8684783FE83C743E33
:1051A000939C783F51B6723E7BB4783F942F713E0A
:1051B0003BCC783FB2A86F3ED6E3783FAB216E3E42
:1051C0004AFB783F7F9A6C3E9812793F2F136B3ED3
:1051D000BF29793FBA8B693EC040793F2204683EBF
:1051E0009A57793F667C663E4E6E793F86F4643E00
:1051F000DC84793F836C633E439B793F5CE4613E92
:1052000083B1793F135C603E9DC7793FA8D35E3E72
:1052100091DD793F1A4B5D3E5EF3793F6AC25B3E9A
:1052200004097A3F97395A3E841E7A3FA4B0583E0B
:10523000DD337A3F8F27573E10497A3F589E553EBF
:105240001C5E7A3F0115543E02737A3F898B523EB1
:10525000C1877A3FF101513E599C7A3F38784F3EE1
:10526000CBB07A3F60EE4D3E16C57A3F67644C3E48
:105270003AD97A3F4FDA4A3E37ED7A3F1850493EE5
:105280000E017B3FC2C5473EBE147B3F4D3B463EB1
:1052900048287B3FB9B0443EAB3B7B3F0726433EAB
:1052A000E74E7B3F379B413EFC617B3F4910403ED0
:1052B000EA747B3F3E853E3EB2877B3F15FA3C3E1B
:1052C000539A7B3FCF6E3B3ECDAC7B3F6CE3393E88
:1052D00020BF7B3FEC57383E4DD17B3F50CC363E14
:1052E00053E37B3F9840353E31F57B3FC4B4333EBA
:1052F000E9067C3FD428323E7A187C3FC99C303E78
:10530000E5297C3FA2102F3E283B7C3F61842D3E47
:10531000444C7C3F04F82B3E3A5D7C3F8D6B2A3E2B
:10532000086E7C3FFCDE283EB07E7C3F5152273E1B
:10533000318F7C3F8CC5253E8A9F7C3FAD38243E13
:10534000BDAF7C3FB6AB223EC9BF7C3FA51E213E10
:10535000AECF7C3F7B911F3E6CDF7C3F38041E3E0E
:1053600003EF7C3FDE761C3E73FE7C3F6BE91A3E0A
:10537000BC0D7D3FE05B193EDD1C7D3F3DCE173E01
:10538000D82B7D3F8340163EAC3A7D3FB2B2143EEF
:1053900059497D3FCA24133EDE577D3FCC96113ECE
:1053A0003D667D3FB708103E74747D3F8B7A0E3E9C
:1053B00085827D3F4AEC0C3E6E907D3FF35D0B3E57
:1053C000309E7D3F86CF093ECCAB7D3F0541083EF8
:1053D00040B97D3F6EB2063E8CC67D3FC223053E7E
:1053E000B2D37D3F0295033EB1E07D3F2E06023EE3
:1053F00088ED7D3F4577003E38FA7D3F92D0FD3DF8
:10540000C2067E3F73B2FA3D24137E3F2C94F73DD3
:105410005E1F7E3FC075F43D722B7E3F2E57F13DDF
:105420005E377E3F7638EE3D23437E3F9A19EB3D53
:10543000C14E7E3F9AFAE73D385A7E3F76DBE43D27
:1054400088657E3F2EBCE13DB0707E3FC49CDE3D52
:10545000B17B7E3F377DDB3D8B867E3F895DD83DCE
:105460003D917E3FB93DD53DC99B7E3FC81DD23D94
:105470002DA67E3FB7FDCE3D69B07E3F86DDCB3D9C
:105480007FBA7E3F36BDC83D6DC47E3FC69CC53DDC
:1054900034CE7E3F397CC23DD4D77E3F8D5BBF3D4D
:1054A0004CE17E3FC33ABC3D9DEA7E3FDD19B93DEC
:1054B000C7F37E3FDAF8B53DC9FC7E3FBBD7B23DAE
:1054C000A4057F3F80B6AF3D580E7F3F2B95AC3D86
:1054D000E4167F3FBA73A93D491F7F3F3052A63D76
:1054E00087277F3F8C30A33D9D2F7F3FCF0EA03D70
:1054F0008D377F3FF9EC9C3D543F7F3F0ACB993D70
:10550000F4467F3F05A9963D6D4E7F3FE786933D6C
:10551000BF557F3FB464903DE95C7F3F6A428D3D5B
:10552000EC637F3F0A208A3DC76A7F3F94FD863D3A
:105530007B717F3F0ADB833D08787F3F6CB8803DFD
:105540006D7E7F3F742B7B3DAB847F3FE9E5743DEF
:10555000C28A7F3F38A06E3DB1907F3F625A683D5E
:1055600078967F3F6814623D189C7F3F4CCE5B3D30
:1055700091A17F3F0E88553DE3A67F3FAF414F3D50
:105580000DAC7F3F2FFB483D0FB17F3F91B4423DB3
:10559000EAB57F3FD56D3C3D9EBA7F3FFC26363D48
:1055A0002ABF7F3F07E02F3D8FC37F3FF698293DFD
:1055B000CCC77F3FCC51233DE2CB7F3F880A1D3DC6
:1055C000D1CF7F3F2CC3163D98D37F3FB87B103D92
:1055D00037D77F3F2F340A3DAFDA7F3F90EC033D52
:1055E00000DE7F3FB949FB3C29E17F3F2DBAEE3C0D
:1055F0002BE47F3F7B2AE23C05E77F3FA69AD53C20
:10560000B8E97F3FB00AC93C43EC7F3F9B7ABC3C82
:10561000A7EE7F3F69EAAF3CE3F07F3F1C5AA33C13
:10562000F8F27F3FB6C9963CE6F47F3F38398A3CB2
:10563000ACF67F3F4B517B3C4AF87F3F0030623CE9
:10564000C1F97F3F900E493C11FB7F3F02ED2F3C9B
:1056500039FC7F3F59CB163C39FD7F3F3053FB3B34
:1056600013FE7F3F890FC93BC4FE7F3FC1CB963BF2
:105670004EFF7F3FC70F493BB1FF7F3FD40FC93A71
:10568000ECFF7F3F000000000000803FD40FC9BA4C
:10569000ECFF7F3FC70F49BBB1FF7F3FC1CB96BB3C
:1056A0004EFF7F3F890FC9BBC4FE7F3F3053FBBB1A
:1056B00013FE7F3F59CB16BC39FD7F3F02ED2FBC57
:1056C00039FC7F3F900E49BC11FB7F3F003062BC2C
:1056D000C1F97F3F4B517BBC4AF87F3F38398ABCC8
:1056E000ACF67F3FB6C996BCE6F47F3F1C5AA3BC1C
:1056F000F8F27F3F69EAAFBCE3F07F3F9B7ABCBC26
:10570000A7EE7F3FB00AC9BC43EC7F3FA69AD5BC49
:10571000B8E97F3F7B2AE2BC05E77F3F2DBAEEBCAC
:105720002BE47F3FB949FBBC29E17F3F90EC03BDEF
:1057300000DE7F3F2F340ABDAFDA7F3FB87B10BD5C
:1057400037D77F3F2CC316BD98D37F3F880A1DBD36
:10575000D1CF7F3FCC5123BDE2CB7F3FF69829BD0F
:10576000CCC77F3F07E02FBD8FC37F3FFC2636BDF0
:105770002ABF7F3FD56D3CBD9EBA7F3F91B442BDED
:10578000EAB57F3F2FFB48BD0FB17F3FAF414FBD13
:105790000DAC7F3F0E8855BDE3A67F3F4CCE5BBD71
:1057A00091A17F3F681462BD189C7F3F625A68BD1B
:1057B00078967F3F38A06EBDB1907F3FE9E574BD1C
:1057C000C28A7F3F742B7BBDAB847F3F6CB880BDAA
:1057D0006D7E7F3F0ADB83BD08787F3F94FD86BDE9
:1057E0007B717F3F0A208ABDC76A7F3F6A428DBDB9
:1057F000EC637F3FB46490BDE95C7F3FE78693BD77
:10580000BF557F3F05A996BD6D4E7F3F0ACB99BD21
:10581000F4467F3FF9EC9CBD543F7F3FCF0EA0BDC7
:105820008D377F3F8C30A3BD9D2F7F3F3052A6BD6B
:1058300087277F3FBA73A9BD491F7F3F2B95ACBD1A
:10584000E4167F3F80B6AFBD580E7F3FBBD7B2BDD9
:10585000A4057F3FDAF8B5BDC9FC7E3FDD19B9BDAF
:10586000C7F37E3FC33ABCBD9DEA7E3F8D5BBFBDA3
:105870004CE17E3F397CC2BDD4D77E3FC69CC5BDBE
:1058800034CE7E3F36BDC8BD6DC47E3F86DDCBBD08
:105890007FBA7E3FB7FDCEBD69B07E3FC81DD2BD89
:1058A0002DA67E3FB93DD5BDC99B7E3F895DD8BD44
:1058B0003D917E3F377DDBBD8B867E3FC49CDEBD48
:1058C000B17B7E3F2EBCE1BDB0707E3F76DBE4BD98
:1058D00088657E3F9AFAE7BD385A7E3F9A19EBBD3C
:1058E000C14E7E3F7638EEBD23437E3F2E57F1BD3D
:1058F0005E377E3FC075F4BD722B7E3F2C94F7BDA2
:105900005E1F7E3F73B2FABD24137E3F92D0FDBD71
:10591000C2067E3F457700BE38FA7D3F2E0602BEA6
:1059200088ED7D3F029503BEB1E07D3FC22305BEF9
:10593000B2D37D3F6EB206BE8CC67D3F054108BE28
:1059400040B97D3F86CF09BECCAB7D3FF35D0BBE3A
:10595000309E7D3F4AEC0CBE6E907D3F8B7A0EBE32
:1059600085827D3FB70810BE74747D3FCC9611BE12
:105970003D667D3FCA2413BEDE577D3FB2B214BEE2
:1059800059497D3F834016BEAC3A7D3F3DCE17BEA0
:10599000D82B7D3FE05B19BEDD1C7D3F6BE91ABE55
:1059A000BC0D7D3FDE761CBE73FE7C3F38041EBE00
:1059B00003EF7C3F7B911FBE6CDF7C3FA51E21BEA9
:1059C000AECF7C3FB6AB22BEC9BF7C3FAD3824BE54
:1059D000BDAF7C3F8CC525BE8A9F7C3F515227BE00
:1059E000318F7C3FFCDE28BEB07E7C3F8D6B2ABEB3
:1059F000086E7C3F04F82BBE3A5D7C3F61842DBE6F
:105A0000444C7C3FA2102FBE283B7C3FC99C30BE3B
:105A1000E5297C3FD42832BE7A187C3FC4B433BE1B
:105A2000E9067C3F984035BE31F57B3F50CC36BE11
:105A300053E37B3FEC5738BE4DD17B3F6CE339BE1F
:105A400020BF7B3FCF6E3BBECDAC7B3F15FA3CBE4B
:105A5000539A7B3F3E853EBEB2877B3F491040BE96
:105A6000EA747B3F379B41BEFC617B3F072643BE08
:105A7000E74E7B3FB9B044BEAB3B7B3F4D3B46BEA0
:105A800048287B3FC2C547BEBE147B3F185049BE65
:105A90000E017B3F4FDA4ABE37ED7A3F67644CBE5A
:105AA0003AD97A3F60EE4DBE16C57A3F38784FBE80
:105AB000CBB07A3FF10151BE599C7A3F898B52BEDF
:105AC000C1877A3F011554BE02737A3F589E55BE76
:105AD0001C5E7A3F8F2757BE10497A3FA4B058BE4C
